:020000040800F2
:1000000028050020E9250008612400086324000871
:1000100000000000000000000000000000000000E0
:10002000000000000000000000000000672400083D
:100030000000000000000000692400086B24000894
:100040000B0B000800000000771200088712000860
:10005000AF130008E3130008CF210008972500081C
:10006000A32500087324000815260008212600088F
:100070007D240008232600082526000827260008DE
:10008000292600082B260008000000002D26000865
:100090002F260008312600083326000835260008E0
:1000A00037260008392600083B2600088724000868
:1000B0003D260008000000003F260008FEB50400B1
:1000C0002068C76920680568206880680090A54896
:1000D00038400290029800280AD1B80608D5A80630
:1000E00006D5606E002802D02000616E884737E197
:1000F0000298002800D19FE00120009901400029CA
:1001000004D199492940002900D195E001003940E6
:10011000C9B2002908D0E90506D521680862802106
:10012000615801438022A150B9070DD500990140C3
:10013000C9B2002908D002212268116280216158C9
:1001400004220A438021625079070DD500990140AD
:10015000C9B2002908D004212268116280216158A7
:1001600002220A438021625039070ED5A90604D421
:1001700000990840C0B2002807D008202168086212
:100180008021615808438021605038050BD56801F3
:1001900009D5802000012168086280202058202194
:1001A00001438020215080202058002843D0B806E9
:1001B00007D5A80605D5606E002802D02000616E24
:1001C0008847802020580190402620688068304071
:1001D000002804D1019828210140002925D02000C1
:1001E00000F0A4FA206880680640002E19D020682C
:1001F00080684021884321688860206F00280CD0E7
:100200005A48216F4863206F00F070FB002812D01D
:10021000206F216F496B88470DE0200000F024FC1F
:1002200009E0200000F020FC05E0200000F01CFCAC
:1002300000208021605093E0206E012870D1F806E4
:100240006ED5E8066CD510202168086220688068A9
:1002500040063BD5206F00684668300080B2002819
:1002600033D030005821615A80B288422DD25A20B2
:100270002652206F806920281ED0206800683C49E3
:10028000014020680160206880680121884321685E
:100290008860206880684021884321688860202029
:1002A000E0670020206620680068102188432168EC
:1002B0000860206F00F0F4FA5820205A5A21615A41
:1002C000411A89B2200000F0D0FB49E05820205AA2
:1002D0005A21615A461A5A20205A00281FD030004D
:1002E00080B200281BD020680068224901402068A5
:1002F000016020688068012188432168886020208F
:10030000E06700202066606620680068102188434E
:1003100021680860310089B2200000F0A6FB1FE0D0
:10032000F8020AD50098400207D5802040032168D2
:100330000862200000F0E8FB12E0380608D5280625
:1003400006D5A06E002802D02000A16E884707E0E5
:10035000780605D5680603D5200000F01FFAFFE7F0
:10036000F7BD00000F080000200100048507000809
:10037000FFFEFFFFDFFEFFFFFEB505000026300099
:1003800069460870A868296901436A690A43E869EF
:10039000104329680968944A0A40024329680A60A0
:1003A00029684968914A0A40E96811432A685160FE
:1003B000A9692A6A0A43029229688968A54A0A40FB
:1003C000029911432A6891602968A34A914215D184
:1003D000A24800688007800F002805D0022809D0B5
:1003E00006D3032802D007E034000EE002240CE01C
:1003F00004240AE0082408E0102406E0286898494C
:10040000884201D1340000E0102480273F02E869CF
:10041000B84240D12000C0B2002806D0022808D03F
:10042000042808D008280AD00AE000F0A9FE070036
:100430000AE0B74F08E000F067FE070004E003E0C1
:100440003700012069460870002F57D002207843FA
:10045000696849084018696800F0B6FE80B20190EA
:100460000198102813D301988021490288420ED2A6
:100470000199A8480840019949084907490F0143D3
:1004800068464180684640882968C86036E0012097
:100490006946087032E02000C0B2002806D0022869
:1004A00008D0042808D008280AD00AE000F068FE26
:1004B00007000AE0964F08E000F026FE070004E07F
:1004C00003E03700012069460870002F16D06868E5
:1004D00040083818696800F077FE80B201900198F2
:1004E000102808D3019880214902884203D201983C
:1004F0002968C86002E00120694608706E66AE6631
:1005000068460078FEBD00B52421415CC90707D5C7
:1005100001684968804A0A40816A11430268516053
:100520002421415C890707D5016849687B4A0A4054
:10053000C16A1143026851602421415C490707D513
:1005400001684968764A0A40016B114302685160AC
:100550002421415C090707D501684968714A0A40AE
:10056000416B1143026851602421415CC90607D5E3
:10057000016889686C4A0A40816B11430268916086
:100580002421415C890607D501688968764A0A40BA
:10059000C16B1143026891602421415C490614D566
:1005A00001684968714A0A40016C11430268516050
:1005B000016C80225203914207D1016849686C4A5C
:1005C0000A40416C1143026851602421415C0906D4
:1005D00007D501684968674A0A40816C114302687F
:1005E000516000BD00000000F369FFFFFFCFFFFF77
:1005F0007CB50500002480202C5000F03DFE060054
:100600002868006800070CD55B4800903300002282
:1006100080218903280000F025F8002801D003205C
:1006200017E02868006840070CD553480090330055
:1006300000228021C903280000F014F8002801D00E
:10064000032006E02020A867E8672C6674202C545D
:10065000002076BDFFF4FFFF00380140301002405B
:1006600000440040F4B504000D001F00069E206801
:10067000C0692840A84201D1012000E0002069465D
:100680000978884241D10020C0438642EFD000F073
:10069000F3FDC01B864201D3002E13D120680068F1
:1006A0003649014020680160206880680121884344
:1006B000216888602020A067E067002074216054D2
:1006C000032023E0206800684007D0D58020000187
:1006D0002168C96901400029C9D0216808622068E1
:1006E0000068264901402068016020688068012177
:1006F0008843216888602020A067E06780216050DF
:10070000002074216054032000E00020F2BD0000AE
:1007100000127A00F0FF0000FFFFFDFFFFFFFEFF69
:10072000FFFFFBFFFF7FFFFFFFEFFFFF00B501684B
:100730000968134A0A4001680A6001688968012251
:10074000914302689160016E012905D10168096831
:1007500010229143026811602021C16700210166C7
:10076000416600BD00000000FFDFFFFFFFFFEFFF5D
:10077000FFFF9FFFFFFFF7FFFFFFFF015FFEFFFF90
:10078000DFFEFFFF38B50400656A00205A21685279
:1007900052216852280000F067F931BD10B50400FD
:1007A0002068006840218843216808602020A067F5
:1007B0000020A066200000F065FD10BDF8B5040023
:1007C00000252F00002C01D1012020E00220212152
:1007D0006054206801680E4808406168A2680A43B6
:1007E000E168114322690A4361691143A2690A431E
:1007F000E6691643064320680660200000F022F9EF
:10080000A563012021216054202025540020F2BD41
:100810000FC0FFFFF7B504001F00002006002021D5
:10082000615C012901D1022039E001252900202243
:10083000A1542121615C01292BD102212122A15443
:10084000A0632068006801218843216808603B009C
:10085000029A0199200000F0E0F8E06A002806D032
:10086000206800680E210143206801600BE02068C9
:1008700000680A21014320680160206800680421A3
:100880008843216808602068006805432068056087
:1008900003E020216054022006003000C0B2FEBDFB
:1008A00000B501002120085C022806D004208863DE
:1008B000002020228854012017E0086800680E22DA
:1008C00090430A68106008680068012290430A6833
:1008D000106001200A6C03009340CA6B5360212210
:1008E0008854002020228854002000BD38B5040020
:1008F000002005002121615C022904D00420A063AE
:10090000012005001BE0216809680E22914322683E
:100910001160216809680122914322681160012158
:10092000226C0B009340E26B53602122A1542021E2
:100930006054606B002802D02000616B884728005B
:10094000C0B232BD70B50400E06B0568206806686F
:100950000420216C02008A402A40002A16D0064258
:1009600014D021680968890605D421680968042221
:10097000914322681160216C8840E16B4860E06A15
:10098000002849D02000E16A884745E00220216C18
:1009900002008A402A40002A1CD006421AD0216850
:1009A0000968890608D4216809680A2291432268E7
:1009B000116001212122A154216C8840E16B486023
:1009C000002020216054A06A002825D02000A16AC0
:1009D000884721E00820216C02008A402A40002A32
:1009E0001AD03040002817D0206800680E218843B4
:1009F000216808600120216C02008A40E16B4A6096
:100A0000A06321216054002020216054206B002825
:100A100002D02000216B884770BD30B50124056CE1
:100A2000AC40C56B6C60046863604468102C04D1F2
:100A30000468A2600468E16003E00468A1600468DF
:100A4000E26030BD10B5040020680549401814214B
:100A500000F0BAFB800020640248E06310BD000093
:100A6000F8FFFDBF0000024070477047F2B5040078
:100A700017001D00002C01D101203FE0A06F0028CD
:100A800005D1002074216054200000F013FC2420C4
:100A9000A067206800680121884321680860200061
:100AA000FFF76AFC012801D1012027E0606A0028D5
:100AB00002D02000FFF727FD206880688021C9014F
:100AC000014320688160206880680D4901400098DA
:100AD00008432168886078052E0406432068006872
:100AE0000849014031432068016020680068012105
:100AF0000143206801602000FFF77AFDF2BD00008D
:100B0000FF7FFFFFFFFF00FC7047FEE7F8B584B0F2
:100B10000400002C01D101204AE22078C00766D5EC
:100B20000C20B4490A680240042A09D00A6810401F
:100B300008280ED18020400209680140814208D176
:100B4000AD480068800352D5606800284FD101206D
:100B50002EE26068012806D1A7480168802252026F
:100B60000A43026024E06068002809D1A2480168B5
:100B7000A24A0A4002600168A14A0A40026017E0E6
:100B8000606805280BD19C4801688022D2020A4384
:100B900002600168802252020A43026008E096481F
:100BA0000168964A0A4002600168954A0A4002605C
:100BB000606800280DD000F05FFB05008E480068DB
:100BC000800314D400F058FB401B6528F6D30320A3
:100BD000EEE100F051FB050087480068800306D570
:100BE00000F04AFB401B6528F6D30320E0E1022613
:100BF0002068304000284FD00C207E490A6802400F
:100C0000002A06D00A681040082814D10868C003DA
:100C100011D4794801683140002904D0E1680129E4
:100C200001D00120C4E10168F82291432269D20079
:100C30000A43026030E0E06800281AD06E4F38683E
:100C400001210143396000F017FB0500386830408E
:100C5000002806D100F010FB401B0328F6D3032028
:100C6000A6E13868F82188432169C9000143396049
:100C700012E0614F386801218843386000F0FCFAC7
:100C8000050038683040002806D000F0F5FA401B17
:100C90000328F6D303208BE12078000728D5E069EC
:100CA000002812D0C34F386801210143396000F099
:100CB000E3FA050038683040002819D100F0DCFA6A
:100CC000401B0328F6D3032072E1BA4F3868012194
:100CD0008843386000F0D0FA0500386830400028BA
:100CE00006D000F0C9FA401B0328F6D303205FE1C9
:100CF000042720683840002800D18CE00020694695
:100D0000087080204005AC490968014000290AD1DB
:100D1000A9490A6802430A600968084003900398D9
:100D2000012069460870A5480068C00514D4A3488E
:100D30000068802149000143A048016000F09CFA4E
:100D400005009E480068C00506D400F095FA401BD7
:100D50006528F6D303202BE1A068012805D1984827
:100D6000016801220A43026021E0A068002809D13D
:100D70009348016801229143016001680422914374
:100D8000016014E0A068052808D18D480168394346
:100D90000160016801220A43026008E08848016896
:100DA0000122914301600168042291430160A0681F
:100DB00000280FD000F060FA05008148006830403C
:100DC00000281FD100F058FA401B7E498842F4D316
:100DD0000320EDE000F050FA05007948006830404B
:100DE00000280FD000F048FA401B76498842F4D31F
:100DF0000320DDE00410024000100240FFFFFEFF70
:100E0000FFFFFBFF68460078012804D16A480168AB
:100E10006D4A0A4002602078C00650D560690128FA
:100E200022D1B44800680743B2480760B14800685F
:100E300001210143AF48016000F01EFA0500AD48F2
:100E400000683040002806D100F016FA401B032845
:100E5000F5D30320ACE0A7480168F8229143A269CA
:100E6000D2000A4302602AE00421C9436069884233
:100E70000BD1A0480268114001600168F82291433B
:100E8000A269D2000A43026019E09A480068074349
:100E90009848076097480068012188439549086091
:100EA00000F0EAF90500934800683040002806D0B9
:100EB00000F0E2F9401B0328F5D3032078E0206A14
:100EC000002874D08C4800680C21014008294DD0BE
:100ED000206A022838D1894F386889490140396031
:100EE00000F0CAF900908026B60438683040002827
:100EF00007D000F0C1F90099401A0328F3D303206A
:100F000056E0A54801680F229143E26A0A43026055
:100F1000794801687B4A0A40A16A1143626A0A4320
:100F200002603868802149040143396000F0A4F967
:100F3000050038683040002839D100F09DF9401B89
:100F40000328F6D3032033E06C4E30686C4901402F
:100F5000316000F091F905003068800127D500F07C
:100F60008BF9401B0328F7D3032021E0206A0128D6
:100F700001D101201CE060480068019086480068AB
:100F800002900198802149020840616A88420CD190
:100F900002980007000FE16A884206D10198F0210B
:100FA00089030140A06A814201D0012000E00020B5
:100FB00005B0F0BD241002401C100240007000403B
:100FC0002010024089130000FFFFFFEFF3B581B04E
:100FD0000400002C01D101208BE001256F4E306808
:100FE0002840029988420CD2306801218843029936
:100FF00001433160306828400299884201D00120C5
:1010000077E002202168014000290FD021784907AC
:1010100005D539490A68E023DB0013430B603649E4
:101020000A68F0239A43A36813430B6021682940A0
:10103000002932D06168012905D130480068800359
:1010400011D4012055E06168022905D12B480068C0
:10105000800108D401204CE0284909680840002894
:1010600001D1012045E0244F38680321884361689D
:101070000143396000F000F9009038680C2101400C
:1010800060688000814208D000F0F6F80099401AAC
:1010900043498842F1D303202BE00298316829406C
:1010A00088420CD2306801218843029901433160A3
:1010B000306805400298854201D0012019E020786F
:1010C000400706D50C480168364A0A40E1681143DA
:1010D000016000F019F83449074A12681209120732
:1010E000120F895CC84031490860002000F01CF9EB
:1010F0000020FEBD341002400410024000100240E7
:10110000FFFFFFFEFFFFC2FFF0B589B005A8284929
:10111000102200F031F901A82649102200F02CF924
:101120000024200000942500260023490F680C218C
:101130003940042902D0082902D01BE01F481AE0D8
:101140000F2005A9BA0C0240895C0E0001A9124AC1
:1011500012681040085C0090F80306D51748009903
:1011600000F032F87043050002E0154870430500B6
:10117000280000E0114809B0F0BD0C480068704735
:1011800080B5FFF7FAFF0F490B4A1268120A52079F
:10119000520F895CC84002BD2C1002400020024062
:1011A00089130000FFF8FFFFD82500080800002081
:1011B000B8250008C82500080410024000127A0073
:1011C00000093D00182600080022030A8B420BD2BA
:1011D00003098B4219D243088B422ED2411A00D206
:1011E0000146524110467047FF2209023FD01206C5
:1011F0008B4205D3121209028B4201D3121209024B
:1012000003098B4219D300E0090AC3098B4201D3B9
:10121000CB01C01A524183098B4201D38B01C01A02
:10122000524143098B4201D34B01C01A5241030979
:101230008B4201D30B01C01A5241C3088B4201D328
:10124000CB00C01A524183088B4201D38B00C01AD5
:10125000524143088B4201D34B00C01A524188428D
:1012600000D3401A5241CFD201461046704708B50C
:1012700000F09CF808BDFEE701480068704700BF19
:10128000200100207047FEE781B0012022490A6852
:1012900002430A60096808400090009880204005D9
:1012A0001E490A6802430A600968084000900098D5
:1012B00001B0704710B586B0040001A8142100F0F9
:1012C00077F820681749884223D18020C00112494D
:1012D0000A6802430A60096808400090009880206C
:1012E00080020F490A6802430A60096808400090BA
:1012F0000098B0204001019002200290002003904D
:10130000032004900120059001A99020C00500F061
:1013100069F806B010BD0000181002401C10024011
:10132000141002400038014010B50400FA2080007B
:101330000E490978FFF748FF01000D480068FFF7E4
:1013400043FF00F0EDF9002801D001200CE0042C4F
:1013500009D2002221000020C04300F0D0F9054846
:101360000460002000E0012010BD00BF0C00002040
:10137000080000200400002070B4103A03D378C99C
:10138000103A78C0FBD2530701D318C918C001D551
:1013900008C908C0D20704D30B880380891C801CAD
:1013A000002A01D50B78037070BC70477047FEE7C8
:1013B0000022FFE71300103906D330B414001500E3
:1013C00010393CC0FCD230BC490700D30CC000D55A
:1013D00004C0890002D30280801C002900D502705D
:1013E0007047FEE7FCB5020000240868E0400028D2
:1013F00000D1ECE0012508682E00A64006400196C9
:101400000198002800D1E0E04868012808D0486829
:10141000022805D04868112802D0486812281CD13B
:101420009668032084462700022047436046B84060
:101430008643CF68BC462000022778436746874032
:101440003743976056682800A040864348680009E3
:101450002840A040304303005360D7680326BC46B1
:101460002700022047433000B84067468743009773
:10147000886884462700022047436046B840009FA2
:10148000384300900098D0604868022802D048682D
:10149000122820D1E008042358431018076A0720B7
:1014A00000970F239C462700074004235F436346B1
:1014B000BB40009F9F43BC460B6927003840042770
:1014C0007843834067463B430093E0080423584336
:1014D0001018009B0362176823000220434330006A
:1014E000984087434B6833409C4620000223584372
:1014F000634683403B4313604868C00065D541485C
:1015000007682F43076000682840009000983E4815
:101510008446A708042047436046C05900900F271F
:10152000BC46270030003840042778436746874090
:101530000098B8439027FF05BA4201D100250DE07D
:10154000324B9A420AD0324B9A4201D1022505E031
:10155000304B9A4201D1350000E0052523001E40A2
:1015600004235E43B54005432748A308042673437C
:10157000C550294B1868019EB0434E68F60302D54A
:101580000500019828431860244D2B68019EB34341
:101590004E68B60302D51800019B03432B60204D13
:1015A0002868019EB0434E68F60202D503000198F8
:1015B000184328601B4D2B68019EB3434E68B6024A
:1015C00002D51800019B03432B60641C0DE7F3BD9B
:1015D00000B5020010690B009BB21840002801D032
:1015E000012000E00020C0B200BD00B51300DBB256
:1015F000002B03D00B009BB2836102E00B009BB277
:10160000836200BD18100240080001400004004839
:1016100000080048000C0048000401400404014098
:10162000080401400C04014000B5010049B2002942
:1016300005D40121C206D20E91403C4A116000BD82
:10164000F0B5020052B2002A1CD40322384B040029
:1016500064B2A40804256C431C59FF2516000640FB
:1016600008277E43B540AC438D01EDB20240082609
:10167000724395402543020052B29208042462430B
:101680009D5022E00F242B4A032305006DB2254014
:10169000083DAD0804267543060076B23440083C88
:1016A000A408042674431659FF27BC461C000440B6
:1016B00008277C436746A740BE438C01E4B2034041
:1016C00008277B439C4034435451F0BD10B50400BF
:1016D000601E80214904884201D301200EE0601E73
:1016E0001549086003210020C043FFF7A9FF00202F
:1016F00012490860072012490860002010BD70B52B
:1017000005000C0016002100280040B2FFF798FFEA
:1017100070BD10B50400200040B2FFF785FF10BD7A
:1017200010B504002000FFF7D1FF10BD00E100E07C
:1017300000E400E01CED00E014E000E018E000E050
:1017400010E000E0F8B5040000252F002E00002C6A
:1017500001D10120D4E0A06B002806D1E563280068
:1017600034216054200000F07DFB1020A16B01406B
:10177000002900D0BDE03900C9B2002900D0B8E08E
:101780000422216889681140002900D0B1E0A36BD0
:101790005C49194002230B43A363216889688907C8
:1017A000890F01290AD1012123681B680B40002BF6
:1017B00003D12368DB681B0400D500E02900002961
:1017C0000FD12168C96818239943A3680B43216886
:1017D000CB60216809698B009B0861681943236805
:1017E00019612168CB68484919402368D960A16A0A
:1017F000012902D08021490100E029002369022B40
:1018000000D02A00B446237E9E03637EDB0333436D
:10181000A67E76031E433143E3680B431A4324211B
:10182000615C4E00164361460E43E17E01290FD1F3
:10183000A17E002904D13100802676020E4307E004
:10184000A16B20220A43A263E16B01220A43E263F7
:10185000E169FF22C232914204D03200E169266A76
:101860000E4316432168C96831432268D160E16A9A
:1018700080225205914214D0E16A012911D0E16A17
:1018800002290ED0E16A03290BD0E16A042908D0AD
:10189000E16A052905D0E16A062902D0E16A072933
:1018A0000ED121684969072291432268516121685C
:1018B00049692C22A25C5207520F0A4321684A61EF
:1018C0002168C968114A0A40B24207D1E563A06B9A
:1018D0000221884301210143A1630FE0A16B022291
:1018E00091430843A0630120E16B0143E1630700DA
:1018F00004E0A16B0843A063012007003800C0B2D8
:10190000F2BD0000FFFEFFFF1902FEFFE7FF3F836D
:10191000F7B50400002528006946087004272068F0
:1019200080683840002844D13420205C012801D14F
:10193000022043E00126300034216054607E0128FB
:1019400004D0200000F086F96946087068460078E7
:10195000002831D1A06B5A49014080204000084343
:10196000A063E563342025545648216B88625648AD
:10197000216BC8625548216B08631C2021680860F0
:101980002068406810210143206841602068C068D9
:1019900006432068C660029B019A2068010040311E
:1019A000206BFEF737FF2068806807432068876058
:1019B00002E002206946087068460078FEBD38B52E
:1019C00004000420216809680140002904D021682E
:1019D0004968014000290AD10821226812680A409A
:1019E000002A3AD0226852681140002935D0A16BF4
:1019F000C90604D4A16B802292000A43A263216825
:101A0000C968C02212010A40002A20D1A17E002903
:101A10001DD121680968090719D52168896808401E
:101A200000280CD1206840680C2188432168486058
:101A3000A06B8749014001200843A06307E0A06B29
:101A400020210143A163E06B01210143E1632000F8
:101A500000F05AFA0C202168086080252068006890
:101A6000284000280ED0206840682840002809D06F
:101A7000A06B802149020143A163200000F0A4FB78
:101A8000206805601025206800682840002816D0CE
:101A9000206840682840002811D0A06A012803D09F
:101AA0002068C068C00708D5E06B02210143E163EC
:101AB00020680560200000F088FB2068056031BDCB
:101AC000FEF1FFFF0D1D0008911D00089F1D00087D
:101AD000F8B504000D0000273E000097802149055D
:101AE000E06A884213D0E06A012810D0E06A022838
:101AF0000DD0E06A03280AD0E06A042807D0E06A23
:101B0000052804D0E06A062801D0E06A07283420BE
:101B1000205C012801D1022098E00122100034232A
:101B2000E05420688068400700D586E06868734B01
:101B300098425FD02068806A2B689A4002432068F0
:101B40008262E06A884228D0E06A012825D0E06AF3
:101B5000022822D0E06A03281FD0E06A04281CD0A3
:101B6000E06A052819D0E06A062816D0E06A07283E
:101B700013D00720A96822685269024091420CD014
:101B800021684969072291432268516121684969A6
:101B9000AA6810400843216848612868102805D0C9
:101BA0002868112802D0286812284BD128681028EC
:101BB00002D18020000407E02868112802D180208B
:101BC000C00301E0802040044D490A6810430860CA
:101BD0002868102836D14B4800684B49FFF7F4FAC3
:101BE0000A2148430090009800282BD00098401EFE
:101BF0000090F8E72068806A29688A40904321684D
:101C000088622868102805D02868112802D0286822
:101C1000122817D12868102802D18021090407E072
:101C20002868112802D18021C90301E080214904DC
:101C3000334802688A43026004E0A06B202101431C
:101C4000A1631600342027543000C0B2F2BD00005A
:101C5000FFFEFFFF7CB50400002006000090216815
:101C600089688907890F01290BD10121226812682F
:101C70000A40002A03D12268D268120401D5080064
:101C8000FFE7002838D1206880683F4901400029DB
:101C900009D0A06B10210143A163E06B0121014336
:101CA000E163012029E0012520688068284321683C
:101CB0008860144800681449FFF786FA009000987D
:101CC000002803D00098401E0090F8E7FFF7D4FAF0
:101CD000060020680068284000280DD1FFF7CCFAE4
:101CE000801B0328F5D3A06B10210143A163E06B97
:101CF0000543E563012000E0002076BD01100000EF
:101D0000082701400800002040420F0038B50400B9
:101D1000656AA86B5021014000292FD1A86B802152
:101D200089000143A9632868C068C02109010140F6
:101D300000291FD1A87E00281CD128680068000750
:101D400018D52868806840070CD4286840680C21A2
:101D5000884329684860A86B0C490140012008436A
:101D6000A86307E0A86B20210143A963E86B012168
:101D70000143E963280000F0C7F803E02000296B65
:101D8000096B884731BD000017000080FFFEFFFF90
:101D900038B50400656A280000F018FA31BD38B57E
:101DA0000400656AA86B40210143A963E86B042124
:101DB0000143E963280000F008FA31BD7FB54C4CBF
:101DC0004C4820608020C00560600025A560E5606B
:101DD00001202061082161612900217629006176B6
:101DE0000100A1762900E176FF21C231E16125627F
:101DF00024216054A56280267605E6622000FFF764
:101E0000A1FC002801D000F0C8F968460C21FFF7BA
:101E1000CFFA0296009580256D0101956946200054
:101E2000FFF756FE002801D000F0B7F90296102007
:101E30000090019569462000FFF74AFE002801D076
:101E400000F0ABF9200000F0C3F9002801D000F049
:101E5000A4F9002200210C20FFF751FC0C20FFF711
:101E600058FC7FBD70B586B0040001A81421FFF7AF
:101E70009FFA20681F49884237D1802080001E4980
:101E80000A6802430A6009680840009000988020B0
:101E900080021A490A6802430A60096808400090F3
:101EA000009841200190032002900025039501A98C
:101EB0009020C005FFF796FA114E12483060756009
:101EC000B5608020F0608020400030618020C0003C
:101ED00070612020B061F5613000FEF76FFC0028D2
:101EE00001D000F05AF92663746206B070BD00009C
:101EF000D8000020002401401810024014100240B5
:101F0000940000200800024070B500210A00D2B2FF
:101F1000002A1BD1A44A0B00DBB204246343D3582C
:101F20001B020C00E4B204256C4314591B1B9F4C8C
:101F30000D00EDB202267543645B1B191B0A0C00F1
:101F4000E4B204256C431351491CDFE770BD38B57A
:101F500000F0A8F900F07AF800F0CAF800F0B2F941
:101F6000FFF72CFF00F0A9F8914D01224021280035
:101F7000FFF73BFB012280212800FFF736FB90246E
:101F8000E405002204212000FFF72FFB012202219B
:101F90002800FFF72AFB002280212000FFF725FB05
:101FA000012210212000FFF720FB02227F498148F7
:101FB000FFF7AEFC002801D000F0EFF80121280067
:101FC000FFF706FB002805D1002240212800FFF77B
:101FD0000CFB04E0012240212800FFF706FB8021D2
:101FE00009027548FFF7F4FA002805D10022802184
:101FF0002800FFF7FAFA04E0012280212800FFF709
:10200000F4FA002202212000FFF7EFFA0022022159
:102010002000FFF7EAFA002202212000FFF7E5FA8C
:10202000002220212000FFF7E0FA012000F060F9F3
:10203000012202212000FFF7D8FA012220212000EE
:10204000FFF7D3FA012000F053F9B7E730B595B0A8
:1020500009A83021FFF7ACF968461021FFF7A8F96D
:1020600004A81421FFF7A4F91220099001240C946C
:102070000E9410200D900F900025119509A8FEF7E1
:1020800045FD002801D000F088F807200090019558
:102090000295039500216846FEF798FF002801D0BD
:1020A00000F07BF80494069504A800F037F90028A6
:1020B00001D000F072F815B030BD80B53F484049FE
:1020C000016096210902416000218160C1600161C7
:1020D0000C2242618161C1610162416200230022E0
:1020E0000021FEF7C3FC002801D000F056F801BD26
:1020F000F8B586B068461421FFF75AF98021090324
:10210000304802680A43026002681140059105994F
:102110008021C90302680A430260026811400591E8
:1021200005998021890202680A4302600068014023
:10213000059105981E4E0022C2213000FFF755FA86
:102140009027FF0500221E213800FFF74EFAE020FD
:102150000002009000240194029469461648FFF79B
:1021600041F9012500950194029469463000FFF77A
:1021700039F9C22000900195029403946946300019
:10218000FFF730F9B6200090019502940394694658
:102190003800FFF727F907B0F0BD80B500224021D5
:1021A0000348FFF722FAF9E7180100200000002099
:1021B00000140048D800002000080048100000204B
:1021C0000038014014100240704770477047FEE726
:1021D000FEB5040000252F00019500953420205CF9
:1021E000012801D102205AE0012630003421605438
:1021F000032021688968014001290AD12168096802
:102200003140002903D12168C968090401D5310092
:1022100000E02900002939D1A16B214A0A4002219E
:102220001143A1632168C968084000902068C06814
:10223000032188432168C8602068806880210906DE
:10224000014320688160FFF717F8019020688068DB
:1022500000280FD5FFF710F80199401A0328F5D38D
:10226000A06B0221884310210143A163342025542F
:10227000012014E02068C068009901432068C16013
:10228000A06B022188430643A66304E0A06B2021D3
:102290000143A1633700342025543800C0B2FEBD8D
:1022A000FFFEFFFF80B50648016810220A43026066
:1022B0000020FFF739F8FEF7E7FF002002BD00001D
:1022C0000020024080B5012008490A6802430A60E4
:1022D0000968084000900098002201210920FFF7BA
:1022E0000EFA0920FFF715FA01BD00BF14100240D5
:1022F00070B50400FEF7C0FF050026000020C043B3
:10230000864202D0044800783618FEF7B5FF401B1D
:10231000B042FAD370BD00BF0C000020F8B584B005
:102320000700002002900190802464023968214057
:10233000002964D06946087080204005404D296816
:102340000140002909D12968014329602968084012
:10235000039003980120694608703A4E3068C00522
:1023600012D430688021490001433160FEF784FFB8
:1023700002903068C00507D4FEF77EFF0299401A2C
:102380006528F6D3032059E0C02080002E4E316826
:10239000014001910199002923D001997A681040E8
:1023A00081421ED0306829490140019130680443C0
:1023B00034603068264901403160019830600198EE
:1023C000C0070ED5FEF758FF02903068800708D48A
:1023D000FEF752FF0299401A1E498842F5D30320A6
:1023E0002CE030681949014078680843306068463D
:1023F0000078012803D128681749014029603878FE
:10240000C00706D51548016803229143BA680A43FC
:1024100002603878800606D5104801681022914382
:10242000FA680A4302603868400506D50B4801681F
:10243000402291433A690A430260002005B0F0BD92
:102440001C1002400070004020100240FFFCFFFF03
:10245000FFFFFEFF89130000FFFFFFEF3010024077
:10246000704700B5FEE77047704780B500F016F87A
:1024700001BD80B50648FEF765FA01BD80B5054887
:10248000FFF79DFA01BD80B50348FDF717FE01BDBA
:1024900094000020D80000201000002003480168AC
:1024A000034A127889180160704700BF200100209C
:1024B0000C00002070B40123002413E00168001D0B
:1024C000194202D04D466D1E49190C60091D121F9C
:1024D000042AFAD20D00960701D50C80AD1C1A40D3
:1024E00000D02C700268001D002AE7D170BC704734
:1024F00030B401220168001D00290FD00368C31801
:1025000044680830144202D04D466D1E64191D689F
:1025100025601B1D241D091FECD0F8E730BC704757
:1025200010B5074979441831064C7C44163404E050
:10253000081D0A68891888470100A142F8D110BD1A
:1025400008000000280000006DFFFFFF14010000DC
:10255000100000200000000099FFFFFF10000000A5
:1025600098000000000000200000000000F00DF8BE
:10257000002801D0FFF7D4FF00BF00BF002000BF3C
:1025800000BFFFF7E4FC00F002F80120704780B5BF
:1025900000F002F801BDFEE70746384600F002F8F9
:1025A000FBE7FEE780B500BF00BF024A110018201C
:1025B000ABBEFBE72600020002030405060708097C
:1025C0000A0B0C0D0E0F101001020304050607087C
:1025D000090A0B0C0D0E0F10000000000000000097
:1025E0000102030406070809014880470148004723
:1025F0004126000809260008FFFFFFFF0400000035
:1026000000127A000100000000BF00BF00BF00BF41
:10261000FFF7ACFFFEE7000000000000010203042A
:10262000FEE7FEE7FEE7FEE7FEE7FEE7FEE7FEE782
:10263000FEE7FEE7FEE7FEE7FEE7FEE7FEE7FEE772
:022640007047E1
:0400000508002609C0
:00000001FF
