:020000040800F2
:10000000680C0020CD710008516C0008536C00088A
:10001000556C0008576C0008596C0008000000007F
:100020000000000000000000000000005B6C000801
:100030005D6C0008000000005F6C0008616C000847
:1000400025720008297200082D720008317200081C
:1000500035720008397200083D72000841720008CC
:1000600045720008497200084D720008517200087C
:100070007B6C000855720008856C00088F6C0008C6
:10008000597200085D72000861720008657200080C
:10009000697200086D7200087172000875720008BC
:1000A00000000000797200087D720008817200086B
:1000B00085720008897200088D720008917200082C
:1000C00095720008997200089D720008A1720008DC
:1000D000A5720008716C0008A9720008AD720008D2
:1000E000B1720008A36C0008B5720008996C000892
:1000F000B97200082DE9F0439FB000BF65A6269CA9
:10010000DFF8E88A8DF83B40029100240B944FF011
:10011000FF37044691461D460AE019F8011B029874
:10012000A0470028029000F0A1800B98401C0B9083
:1001300099F8000050B12528EFD100210022059147
:1001400006920791089209910A9203E00B98A5E0A4
:1001500041F0010119F8010F2028F9D023280CD013
:100160002B2804D02D2805D0302809D080E041F07C
:100170000201EFE741F00401ECE741F00801E9E793
:1001800041F01001E6E70D920AE00D98404505DACE
:1001900000EB800002EB4002303A0D9209F10109B8
:1001A00099F80020A2F130000A28EED399F8000057
:1001B0002E2818BF0C9726D119F8010F2A2808D12C
:1001C0002868286009F1010950F8042B28600C9276
:1001D00019E02D280CBF09F10109002000220C9222
:1001E0000BE040B90C9A424505DA02EB820203EBC0
:1001F0004203303B0C9309F1010999F80030A3F157
:1002000030020A2AEDD3ADF83810304699F80010C4
:1002100000F0A0FE08B119F8010B8DF83A009DF826
:100220003A00682805D199F8000068280CD16221AD
:1002300006E06C2804BF99F800006C2804D17121F5
:100240008DF83A1009F1010910A804902A4619F80E
:10025000013B6946204600F061F838B910AA6946AA
:10026000204600F091F900287FF562AF384615E08E
:100270002A2888D12A682A6052F8040B2A600028AC
:100280000D9003D540420D9041F0040109F10109A0
:100290008CE70000686A6C747A4C00001FB0BDE8FF
:1002A000F083622820D0682811D06A2803D06C28F7
:1002B00027D0712825D10868C01D20F007000860EC
:1002C000D0E9002308300860194610467047002A1C
:1002D0000A680A60106803D0121D0A6000B217E0B5
:1002E000121D0A6080B217E0002A0A680A601068CE
:1002F00003D0121D0A6040B20AE0121D0A60C0B2AB
:100300000AE0002A0A680A60106803D0121D0A6019
:10031000C1177047121D0A600021704770B51C4656
:100320000D46B4F125002E69114600F01B811C38E2
:100330006AD0001F022867D9133843D0093863D028
:10034000801E16D0401E1ED0401E02285CD9001F01
:1003500019D0401F00F08380401E33D0401E00F0B3
:10036000CD80C01E00F0DC80801E2BD0C01E29D0A6
:10037000FEE06869421C6A610A680A6052F8043B40
:100380000A603354FEE095F83A000122FFF789FF36
:10039000C5E900010023994204DA6869411C6961DA
:1003A0002D220DE0288F810704D56869411C696101
:1003B0002B2205E0C00722D56869411C6961202213
:1003C00032541CE095F83A000022FFF76AFFC5E9B5
:1003D000000195F83800010711D5D5E90023002068
:1003E000834208BF82420AD044F02000782806D118
:1003F000686930213154401C421C6A6134542146E2
:1004000068693044E86087E00868C01D20F0070094
:100410000860D0E9002308300860C5E90023D5E969
:100420000001C80F04D06869411C69612D220DE0EC
:10043000288F810704D56869411C69612B2205E07A
:10044000C00704D56869411C69612022325468697B
:100450003044E8602146284600F0C8F992E005F1F2
:100460003A02507820B14FF0FF340FF6502062E08E
:100470001078622808D0682824D06A2812D06C2806
:100480002ED071280ED02BE00A680A6052F8040BB7
:100490000A6020B94FF0FF340FF638204BE0E96ACC
:1004A00001706FE00A680A6052F8040B0A6020B914
:1004B0004FF0FF340FF61C203DE0EA6AD317C0E985
:1004C00000235FE00A680A6052F8040B0A6020B952
:1004D0004FF0FF340FF6FC102DE0E96A018051E087
:1004E0000A680A6052F8040B0A6020B94FF0FF3422
:1004F0000FF6E0101FE0E96A016043E00A680A6055
:1005000052F8040B0A60002120F0000221F0FF33B2
:10051000C5E90023EE607821284600F0BBF831E001
:100520000868086050F8044B0860EC603CB94FF074
:10053000FF340FF6B81000F01DFD201A70BD2E6BB1
:10054000002E04D5204600F035FD044608E0324672
:100550000021204600F04AFD002814BF041B344649
:10056000AC610FE06869411C69612522325409E0E1
:100570006969481C686125227254210002D0431C1D
:100580006B613454002070BD2DE9FC410F460646D6
:1005900090467A6B7869396ABC6A121AB869521A3D
:1005A000796A121AF869521A121A97F83800141B4D
:1005B00041070FD42020002C8DF800000ADD2546CD
:1005C00001236A463946304600F060FC00285DD1C0
:1005D0006D1EF5D17B6942463946304600F056FC27
:1005E000002853D130208DF800003D6A002D09DD30
:1005F00001236A463946304600F048FC002845D1C0
:100600006D1EF5D1BB69FA683946304600F03EFCF4
:1006100000283BD130208DF800007D6A002D08DDD8
:1006200001236A463946304600F030FC70BB6D1E2F
:10063000F6D1F868B969FB6942183946304600F0CE
:1006400025FC18BB30208DF80000BD6A002D08DDA8
:1006500001236A463946304600F018FCB0B96D1ED9
:10066000F6D197F8380041070DD52020002C8DF8E1
:10067000000008DD01236A463946304600F006FCDA
:1006800020B9641EF6D10020BDE8F6814FF0FF309E
:10069000BDE8F6812DE9FC4707468C463E69BCF172
:1006A0006F0F08BF082405D04CF02000782814BF35
:1006B0000A2410243C25D7E90023BCF1640F18BF9D
:1006C000BCF1690F9046994606D100218B4203DAAE
:1006D000D8F1000869EB49094FF0000AD14508BF7D
:1006E000D0451FD1386BE8B9082C4BD197F83800AA
:1006F000010747D530203B2586F83B0042E0002823
:100700000ED597F8380000F01400102808D17B6B44
:100710007969386A5B1A1B1A9A1A002AC8BF3A62AA
:10072000BDE8F3878DF800C0404649462246E317EE
:1007300000F088FC3032D0B26D1E3A28019504DBFF
:100740009DF80000A0F151018A18725540464946B3
:100750002246E31700F076FC89468046D14508BF63
:10076000D04503D0F86871198842DDD3082C09D12F
:1007700097F83800010705D5705D302802D06D1E4E
:1007800030207055C5F13C02BA617119F960386BBF
:100790008242B4DA821A3A624FF6EF70398F014022
:1007A0003987BDE8F3872DE9D04306460F46144646
:1007B0004FF00008DFF8389412E0E00707D5424612
:1007C0004B463046394600F055FD06460F4640463A
:1007D000494642464B4600F04DFD6410804689462E
:1007E000002CEAD130463946BDE8D0832DE9F34FDD
:1007F000054641F020048DB0D5E90089612C02AE98
:1008000009D0286B002848BF062003D408BF672CF6
:1008100001D101202863D5E9002358004015401C70
:100820000ED119030CD00320A8619DF8381061394E
:100830001A2902D20FF2D06111E00FF2D0610EE05E
:1008400059004915491C0FD118030DD10320A86187
:100850009DF8381061391A2914D30FF2B861E8688D
:10086000032200F0D9FDD3E1194621F00043B3F58E
:10087000801F10460DD20027BB4208BFBA42019725
:1008800003D111E00FF28861E9E701AA00F018FE38
:100890000AE0DFF8607307EB1352DFF85C33019274
:1008A0001940DFF858331943C5E90001612C0ED116
:1008B000E86830210170821CEA609DF838106129D7
:1008C0000CBF7821582141706869801C6861D5E9A6
:1008D00000AB2BF0004300202AF00002834204BF4B
:1008E0008242002300F05B81612C40F0AA80286BDB
:1008F000002847BF21210091401C0090009F7F1CD1
:10090000404649460022002300F012FED9460199D4
:100910008DF8082038BF89F00049091F002FD04604
:1009200001910DF1090040F34981B349DFF8D0B2DC
:100930000C910646404649460022002300F010FE76
:1009400080F03B814800400D00F11C0211D0002ACC
:100950000FDD40F2FF70824205DB09F0004040EA03
:100960000B01002013E00C98014041EA025140467F
:100970000DE029F00043002028F00002834208BF68
:1009800082420FBF40461C22404600F001FE8046D6
:10099000894600F09BFEFF1F002F044609DD00F092
:1009A000B3FE02460B464046494600F0BFFE804675
:1009B0008946F01D072104E004F00F0200F8012D24
:1009C0002411002C01DD491EF6D5491E5CBF002212
:1009D00000F8012DF9D5ECE00020194602AA0A44DE
:1009E00000E05B1E12F80149491E8442F9D00F282D
:1009F00004D10DF10900425C521C4254002904D577
:100A00000198001D02AE5B1C0190591E12D49DF886
:100A100038007218A0F13A07147804F130085FFA30
:100A200088F43A2CA8BFB844491E02F80189F3D5CE
:100A30008DF83800286B002840F1B080591E2963DA
:100A4000ACE0404649460022002300F071FD0199C8
:100A500038BF89F0004947F297504143694A91FBFA
:100A6000F2F20192D2F1070204DD40464946FFF757
:100A70009AFE0AE0524200206349FFF794FE0246C4
:100A80000B464046494600F0C3FE8046662C286B64
:100A9000DFF878B106BF019F0A3706273F18142FE9
:100AA000C8BF142730208DF8080089460DF10900D1
:100AB00000E03046002F34DD06464046494600F04F
:100AC000CBFF01460A4606F1080304200A26B2FBC2
:100AD000F6F606EB860EA2EB4E02303203F8012C3E
:100AE0000A22B6FBF2F202EB820EA6EB4E0630367D
:100AF000401E03F8026DE9D1083F002F03F10806FC
:100B0000D7DD084600F0BCFF02460B46404649468A
:100B100000F00CFE00225B4600F0ACFB80468946EC
:100B2000CBE70DF10901401A0DF1090604E0019926
:100B3000491E401E0191761C31783029F7D0662C71
:100B400002D10199491C03E0652C0CBF0121002151
:100B50002B6BCB189842B8BF431E002B1ED4834288
:100B600004DAF05C3528A8BF392000DA30201946B5
:100B7000721E02EB010800E05B1E18F80199491E85
:100B80008145F9D0392802D1705C401C705400298D
:100B900004D50198401C16465B1C0190019800B2D8
:100BA00000901BB29DF838103246284600F034F809
:100BB0002EE0C61D002F3FF7BDAE30460DF10901F6
:100BC000401A009903468842C8BF0B46002B0DF11E
:100BD00009063FF52FAF8342BFF6FEAE0DF10900C7
:100BE000C15C07297FF7F8AE0F20F6E6CBCCCC0C22
:100BF0000000244002FCFFFFFFFF0F800000E03FE9
:100C00000000F07FA08601000000F03F84D79741EC
:100C10000FB0BDE8F08F00002DE9F84783B006461D
:100C20008A461746984600F039FFB8F1000F406A2F
:100C3000356B90F8009002DC4FF00108B6A74AF03F
:100C40002000BDF93040662808BF641C15D0672815
:100C500040F0848014F1040FC0F28680AC4280F230
:100C6000838096F83800641C010702D4A845B8BFF9
:100C7000454620B22D1A48BF00250FFA84FAF068C5
:100C8000B169BAF1000F25DC4A1C30234354002D12
:100C900003DC96F83800010703D5F06800F80290ED
:100CA000521C15EB0A0FB8BF6C4220B244194142E6
:100CB0004445B8BFA046B26171620FFA88F5F5618C
:100CC000F068B3692A463946184400F0A5FB641B56
:100CD000B462C4E022B29045084417DA424639466D
:100CE00000F09AFBB0694044B061AAEB0801002D06
:100CF000716203DC96F838100A0705D5F16801F82F
:100D00000090F069401CF061B562A8E0394600F03F
:100D100083FBB069002D5044A8EB040803DC96F86F
:100D200038100A0703D5F16801F80090401CB06143
:100D30000FFA88F08542F368B069B8BFA8460FFA89
:100D400088F207EB0A01184400F066FBB1690FFA5C
:100D500088F00144B161281A706280E0BAF1610F35
:100D600014D14FF0700A16E0A84504DA96F838104E
:100D70000A0758BF45466D1E48BF0025BAF1670FE8
:100D800014BF4FF0450A4FF0650A04E0BAF1410F75
:100D900008BF4FF0500AB169F368481CB061002DDC
:100DA00017F8012B5A5403DC96F838100A071BD5A4
:100DB000F168431CB36101F80090002D14DDA8F127
:100DC00001080FFA88F039468542F768B8BFA8468F
:100DD0000FFA88F2F81800F01FFBB0690FFA88F1DB
:100DE00008446D1AB0617562F068B1690844002C5E
:100DF00080F800A003D42B224270811C03E02D2137
:100E000041706442811C00206A460AE023460A249D
:100E100093FBF4F404EB8405A3EB450302F8013BD8
:100E2000401C24B2002CF1DC012806DC4AF0200230
:100E3000652A04BF302201F8012B48B9302001F89F
:100E4000010B07E0401E1DF80030303301F8013B74
:100E50000028F7DCF268B0691044091AF16196F8CD
:100E6000380000F0140010280DD17269B169706A61
:100E70008A18F1698218B06A8A188218706B8242E7
:100E8000BCBF821A326204B0BDE8F087F8B50546EF
:100E90000E4617461C46002074B117F8011BB068B7
:100EA000A847B06030B1F06A401CF0620020641EB8
:100EB000F3D1F2BD4FF0FF30F2BD00007072696EE9
:100EC00074665F733A20256E20646973616C6C6F81
:100ED000776564007072696E74663A20626164209E
:100EE000256E20617267756D656E74007072696E33
:100EF00074665F733A2062616420257320617267B3
:100F0000756D656E740000006E616E004E414E009E
:100F1000696E6600494E4600300030B4002513E08B
:100F200050F8042BD30744BFA9F101039A18091FF5
:100F3000042942F8045BFAD213468C0744BF15809B
:100F40009B1CC90748BF1D7050F8041B0029E7D13E
:100F500030BC70470278C9B28A421AB11CBF10F87F
:100F6000012FF9E718BF002070470268531C036087
:100F70001170704780B500B906A005490B681BB118
:100F800022220021984701E000F08CFD222002BDC2
:100F900054040020636F6E73747261696E7420680C
:100FA000616E646C65723A20626164206D65737372
:100FB0006167650000F10103810704D010F8011B8F
:100FC000820781B1FAD10268A2F10131914311F097
:100FD000803104BF50F8042FF6E709BAB1FA81F165
:100FE00000EBD100401CC01A70470000C9B2830753
:100FF00006D0521E22D310F8013B9942F7D11FE0D0
:10100000083A13D302F1040241EA012141EA014105
:1010100050F8043B121F21BF4B40A3F1013C2CEAC6
:10102000030C1CF0803FF3D0C9B2001F083210F847
:10103000013B521E28BF91EA030FF8D818BF0120C8
:10104000401E7047BBBBE1B1B2F5803F80F07E80AF
:10105000022A1ED98C46B1FBF2F102FB11C31B041C
:1010600043EA1043B3FBF2FC02FB1C3380B240EABC
:101070000343B3FBF2F002FB103240EA0C400023C2
:101080007047022A05D98446B0FBF2F002FB10C279
:1010900070474AB105D100F0010249085FEA30000B
:1010A000704700220023704700F000BD0B000200D3
:1010B000002100207047904271EB030CF6D3B3F58A
:1010C000803F2FD2F0B5B3FA83F7B1FA81F4A7F1DC
:1010D0000F0E3D1B5340CEF1200602FA0EF2F341F3
:1010E0005340B5F10F0746D80F3C2C444140C4F1A2
:1010F0002006A040F1414140B1FBF3F603FB16117D
:10110000A2FB0645001BA94102D2761E8018594158
:1011100080EA010221FA0EF362FA0EF200215A402F
:101120003046F0BD30B4B1FBF3FC03FB1C11A2FB55
:101130000C45001BA94103D2ACF1010C80185941A8
:1011400030BC02460B46604600217047B2F1807FFA
:1011500065D3F0B5B2FA82F7B1FA81F4C7F10F06A0
:101160003D1B22FA06F307F1110EF24120355A40D9
:10117000B5F10F07B8D94140C4F12006A040F141B4
:101180004140B1FBF3FC03FB1C11A2FB0C45001B0F
:10119000A94103D2BCF1010C801859410F2F12D381
:1011A0000F3FC90341EA5041B1FBF3F603FB1611AF
:1011B000A2FB0645D4EBC030A94102D2761E8018AE
:1011C000594146EACC3C07B34140C7F12006B8403C
:1011D000F1414140B1FBF3F603FB1611A2FB0645BA
:1011E000001BA94102D2761E8018594180EA0102F3
:1011F00021FA0EF3C7F1200462FA0EF20CFA07F09E
:101200005A402CFA04F13043F0BD80EA010221FA81
:101210000EF3002162FA0EF260465A40F0BD8C4691
:10122000B1FBF2F102FB11C31B0243EA1063B3FBF3
:10123000F2FC02FB1C331B024CEA002043EA106361
:10124000B3FBF2FC02FB1C331B024CEA002043EA16
:101250001063B3FBF2FC02FB1C331B024CEA0020C0
:1012600043EA1063B3FBF2FC02FB1C324CEA0020A1
:1012700000237047B0B581EA030C0CF0004C40F23B
:10128000FF7515EA11541DBF15EA1357AC42AF4262
:1012900039E0E41923EA455343F48013C90241F0CD
:1012A000004141EA505EC7021100A7FB020200287C
:1012B0004FF00000EEFB01204FF00001E3FB07219F
:1012C00018BF42F00102401800214941E3FB0E0122
:1012D000A4F580640F0302D252004041494154F109
:1012E00001046CDD470872F1004250F1000051EB3F
:1012F0000451A1F580115CBF41EA0C01B0BD4CEA7C
:1013000005510020B0BD05EA1357AC4214BFAF42EF
:1013100041E050EA410E1CBF52EA430E02E0614632
:101320000020B0BD24423C441BD15FEA070EF6D03A
:10133000090302BF01460020AEF1140EB1FA81F795
:10134000AEEB070401FA07FE0C37C7F1200100FAE3
:1013500007F7C8404EEA000E23EA455343F48013D2
:10136000A2E733F00043B3FA83F704BFB2FA82FE78
:1013700077440B3FE41BB7F1200E2FBF02FA0EF3A8
:10138000BB40C7F1200E22FA0EFE38BF43EA0E031F
:10139000BA40641C82E750EA410E14BF52EA430E81
:1013A0006FF000014FF4001717EB430F8ABF194687
:1013B00017EB410FB5E74CEA05510020B0BDD4F161
:1013C0000104B4F120070FDAC4F12007520828BF46
:1013D00042F0010210FA07F501FA07F7E1BF2A43CC
:1013E000E0403843E1400FE0352C98DCC7F12004A1
:1013F00052EA400220FA07F218BF42F0010231FA25
:1014000007F0A1400A43002172F1004250F10000B0
:1014100051EB0C01B0BD000062B38B0708D0521E27
:1014200011F8013B00F8013B00F024808B07F6D156
:10143000830740F0208000BF103A07D330B4B1E8F2
:101440003810103AA0E83810F9D230BC530724BF46
:10145000B1E80810A0E8081044BF51F8043B40F878
:10146000043BD20724BF31F8022B20F8022B44BFE3
:101470000B7803707047121F17D35B0009D151F826
:10148000043B20F8023B1B0C121F20F8023BF6D253
:101490000BE051F8043B00F8013B1B0A20F8023B2B
:1014A0001B0C121F00F8013BF3D238BF121D521E55
:1014B00024BF11F8013B00F8013BF8D87047000049
:1014C00010B5144600F002F8226010BDC1F30A53B3
:1014D00043B14A0012F5001F28D2A3F2FE32A1EB5D
:1014E0000251704750EA410C20D001F0004C31EA23
:1014F0000C01B1FA81F204BFB0FA80F3D2180B3AB2
:10150000B2F120032CBF00FA03F1914041EA0C0133
:101510003EBFC2F1200C20FA0CF319439040524216
:1015200040F2FD33D21A01EB03517047002270479D
:101530004FF4001C1CEB410F94BF1CEB430F09E060
:1015400041EA030C50EA4C0C52EA0C0C03D29942CB
:1015500008BF9042704714BF8B4282427047000020
:101560004FF4001C1CEB410F94BF1CEB430F09E030
:1015700041EA030C50EA4C0C52EA0C0C03D28B42A9
:1015800008BF8242704714BF9942904270470000E2
:10159000124254D440F2FF7C1CEA11530FD0634531
:1015A00031D09B1863453CBF01EB0251704701F0FD
:1015B000004141EA0C510020AFF30080704750EA2F
:1015C000410320D001F0004C91EA0C011CD0B1FA8B
:1015D00081F30B3B9A420DD9D21A994051EA0C0182
:1015E000C3F1200C20FA0CFC61449840531C40F2DB
:1015F000FF7CD7E7914041EA0C01C2F1200C20FAB0
:101600000CF3194390407047B0FA80F31533202B48
:10161000E0D3202AEED3203A203B9A4209D9D21AAD
:1016200000FA03F141EA0C010020531C40F2FF7C58
:10163000B8E700FA02F141EA0C010020704752427B
:1016400040F2FF7C1CEA11530DD06345DBD0B2EBB6
:10165000030C3CBFA1EB025170470CF1010221EADF
:10166000035141F4801150EA410CCCD001F0004C00
:10167000352A27DC30B481EA0C01B2F1200309DA03
:10168000C2F12003044601FA03F5D0402843D140BB
:101690009C400CE0C3F12002450020FA03F418BF7F
:1016A00044F0010421FA03F091400C43002174F14D
:1016B000004550F1000051EB0C01244230BC7FF496
:1016C0007BAF70476146002076E70000C1F30A5304
:1016D00040F2FE329B1A14DDD3F120034FEAE1728F
:1016E00008DDC90241EA505141F00040D84080185D
:1016F0005040704703F2E13010B1D24382F0004015
:101700007047002070470000C11768B14840401A78
:10171000B0FA80F29040D21CC907C2F5846241EA57
:10172000025202EBD02140057047000070B44FF028
:10173000004591EA030F40F1BB816B40841A71EBC5
:10174000030603D2001BB141121973414FF4001C70
:101750001CEB410F34BF7CEB430442E00C0DA4EBC7
:101760001356352E4FDC45EAC323DB0A45EAC12177
:10177000C912B6F120050DDD63FA05F6EB4086EAE5
:101780000305124218BF45F00105C01851F10001D0
:101790000CD213E062FA06F5F2405540F3415A408C
:1017A000B340F3405A408018594107D349085FEAD3
:1017B00030005FEA350528BF45F0010501F58011CD
:1017C000420875F1004250F1000041EB04514E0017
:1017D00016F5001F70BC38BF70470020090D0905C1
:1017E00070471CEB410F10D252EA43060BD0BCEB02
:1017F000410F05D80C0DAB43661E342EB6DD02E05A
:10180000AB438018594170BC704770BC70470000F2
:10181000F0B540F2FF7581EA030C0CF0004C15EABC
:1018200011541DBF15EA1357AC42AF42E5E0BC416D
:10183000C1F31301C3F31303801A994143F48013D6
:1018400004D2641E4000494180185941C90241EA4E
:101850005051B1FBF3F603FB1611A2FB0675D7EB53
:10186000C020A94102D2761E80185941C90241EA1E
:101870005051B1FBF3FE03FB1E11A2FB0E75D7EB1B
:10188000C020A94103D2AEF1010E8018594189024E
:1018900041EA9051760546EA8E2EB1FBF3F603FB42
:1018A0001611A2FB0675D7EB8020A94102D2761E45
:1018B00080185941C90241EA50514EEA060EB1FB67
:1018C000F3F603FB1611A2FB0675D7EBC020A94166
:1018D00002D2761E80185941C90241EA5051B1FB2B
:1018E000F3F703FB1711A2FB0735D3EBC020A94187
:1018F00067F100070CBF004247F0010766F3D527E8
:101900004FEA1E31B80814F5806412DDBD0775F189
:10191000004250EB0E5051EB045111F5801F5CBF9B
:1019200041EA0C01F0BD4CF07F6141F0E041002044
:10193000F0BDBD076D0840EA0E5041F48011D4F1AE
:101940000104B4F120060ADAC4F120060200E040E6
:1019500001FA06F3E1401843B24015430EE0342C7F
:1019600013DCC6F1200445EA40056D0820FA06F2B2
:10197000154321FA06F0A1400D43002175F1004204
:1019800050F1000051EB0C01F0BD00205FEA0C01AA
:10199000F0BDCFB992185B41B3FA83F704BFB2FA36
:1019A00082F6BF190B3FB7F120062FBF02FA06F3EC
:1019B000BB40C7F1200622FA06F638BF3343BA40CF
:1019C0001CB1E419641E33E77F4231F00041B1FAE3
:1019D00081F404BFB0FA80F6A4190B3CB4F12006E0
:1019E0002FBF00FA06F1A140C4F1200620FA06F646
:1019F00038BF3143A0403C1B1AE7AC421ABF05EA8E
:101A00001357AF4212E050EA41061CBF52EA4306A8
:101A1000BFE750EA4107304661461CBF41EA055125
:101A2000F0BD52EA430C08BFC143F0BD00204FF4A3
:101A3000001616EB410F98BF16EB430F08BF16EBCD
:101A4000410F24BFC14305E016EB430F0CBF6146B5
:101A50004CEA0551F0BD0000400D491840EA8120D4
:101A60000CD2490DA1F58061491C40F0004005DB16
:101A7000D1F11F0154BFC840C01770470020704704
:101A8000014648B1B0FA80F18840C91CC1F58461B3
:101A9000090501EBD0214005704700000048704760
:101AA0000C000020012000F0B9B8000070470000D1
:101AB000841A71EB030604D26E40001BB141121967
:101AC00073414FF4001C1CEB410F34BF7CEB430609
:101AD00083E00C0DA4EB1356362E00F37C80012E10
:101AE00045EAC32341DC43EA525312BFD2029202B9
:101AF0005B08240545EAC12141EA5051D2EBC020E0
:101B0000994125D407D1B0FA80F610FA06F162D0D7
:101B10000020203608E0B1FA81F6B140C6F120027B
:101B200020FA02F21143B0404FEAF474B4EB465489
:101B300034F001064FEA74040AD8D6F50016760D83
:101B400004F00044F04061FA06F25040F140484091
:101B5000C00A40EA415021F0004128BF5FEA500529
:101B600050F1000044EBD12135E0DB0A45EAC12108
:101B7000C90AB6F120050EDD42EA0242120CC5F197
:101B8000200603FA06F6EB4042EA06056D4298414C
:101B900061F100010DE062FA06F5F240554063FA8A
:101BA00006FC82EA0C02F3405A406D42904161EB20
:101BB000030111F4801F05D1641E620502D06D007F
:101BC0004041494121F48011430875F1004350F12F
:101BD000000041EB045170BC70471CEB410F15D263
:101BE00023F0004352EA43060BD04FEA4C0CBCEB07
:101BF000410F04D80C0D661E342EB7DDEBE7801ABA
:101C0000994150EA410608BF0021E4E708BF1CEBF8
:101C1000430F28BF6FF00001DDE7000080B5AFF390
:101C20000080024A11001820ABBEFBE7260002002C
:101C30002DE9FC470400002C01D1012077E3206846
:101C4000002809D0207810F01F0F05D14FF4A8719B
:101C5000DFF8280A00F088FFDFF874793D6815F096
:101C60000C053E6816F480362078C00772D560688F
:101C700000280BD06068012808D06068052805D0CE
:101C800040F25911DFF8F40900F06EFF082D04D07E
:101C90000C2D0CD1B6F5803F09D1DFF83009006872
:101CA000800357D56068002854D101203FE3606865
:101CB000012806D1DFF81409016851F48031016070
:101CC00025E0606800280AD1DFF80009016831F4D6
:101CD00080310160016831F48021016017E06068A3
:101CE00005280AD1DFF8E408016851F48021016079
:101CF000016851F48031016009E0DFF8D008016823
:101D000031F480310160016831F480210160606844
:101D100000280FD000F02AFF8046DFF8B0080068E6
:101D2000800317D400F022FFB0EB08006528F4D33D
:101D30000320FCE200F01AFF8046DFF890080068FC
:101D4000800307D500F012FFB0EB08006528F4D33C
:101D50000320ECE2207880072DD5E068002808D029
:101D6000E068012805D04FF4C671DFF8100900F0D3
:101D7000FBFE2069202805D340F28D11DFF8FC0816
:101D800000F0F2FE042D03D00C2D25D1002E23D11E
:101D9000DFF838080068800704D5E068012801D022
:101DA0000120C4E2DFF82008016831F4F85122690B
:101DB00051EA022101602078C00640F11481002D13
:101DC00040F0B580DFF804080068800537D5A069C9
:101DD000002834D10120AAE2E06800281CD00120AC
:101DE000DFF89C18086000F0C1FE0600DFF8DC0791
:101DF0000068800706D400F0B9FE801B0328F5D3E5
:101E0000032094E2DFF8C007016831F4F851226939
:101E100051EA02210160CEE70020DFF86418086073
:101E200000F0A4FE0600DFF8A40700688007C2D512
:101E300000F09CFE801B0328F5D3032077E2E069C5
:101E4000B0F5807F05D340F2D711DFF8300800F0FD
:101E50008BFE206A00281DD0206AB0F5005F19D0E3
:101E6000206AB0F5804F15D0206AB0F5C04F11D070
:101E7000206AB0F5004F0DD0206AB0F5204F09D090
:101E8000206AB0F5404F05D04FF4EC71DFF8EC0755
:101E900000F06AFEDFF83067306810F46040216AB5
:101EA000884230D2206A00F0EDFB002801D00120EA
:101EB0003DE2316831F46041206A014331603068AD
:101EC00020F07F40E16950EA016030600121206A22
:101ED000400B401C81404FF400404143DFF8240890
:101EE0003A68C2F30312805CC140DFF8E806016083
:101EF000DFF8E406006800F03FFE0100C9B20029E7
:101F000071D0C0B213E2316831F46041206A0143FC
:101F10003160306820F07F40E16950EA0160306054
:101F2000206A00F0AFFB0028D0D00120FFE1A069BB
:101F3000002808D0A069012805D04FF40271DFF80D
:101F40003C0700F011FEA069002871D00120DFF8E5
:101F5000B817086000F00AFE0600DFF87006006897
:101F6000800506D400F002FE801B0328F5D3032071
:101F7000DDE1E069B0F5807F05D34FF40771DFF84C
:101F8000FC0600F0F1FD206A00281DD0206AB0F5A3
:101F9000005F19D0206AB0F5804F15D0206AB0F5E7
:101FA000C04F11D0206AB0F5004F0DD0206AB0F5B7
:101FB000204F09D0206AB0F5404F05D040F21D21D6
:101FC000DFF8B80600F0D0FDDFF8FC150A6832F43F
:101FD0006042206A02430A60086820F07F40E2699C
:101FE00050EA026008602078000747D56069002841
:101FF00008D06069012805D04FF40F71DFF87C0626
:1020000000F0B2FD6069002825D00120DFF8FC1641
:10201000086000F0ABFD0600DFF85C060068800792
:102020002CD400F0A3FD801B0328F5D303207EE110
:102030000020DFF8D416086000F098FD0600DFF8F5
:102040008C0500688005CED500F090FD801B03282C
:10205000F5D303206BE10020DFF8B016086000F034
:1020600085FD0600DFF810060068800706D500F041
:102070007DFD801B0328F5D3032058E1207840071D
:1020800040F19C805FF00008A06800280BD0A06899
:10209000012808D0A068052805D04FF41A71DFF890
:1020A000DC0500F061FDDFF868663068C0000AD426
:1020B000306850F080503060306810F080500090F0
:1020C00000985FF00108DFF84C96D9F80000C005D1
:1020D00014D4D9F8000050F48070C9F8000000F062
:1020E00045FD8246D9F80000C00507D400F03EFD4A
:1020F000B0EB0A006528F5D3032018E1A068012899
:1021000006D1DFF87405016851F48071016025E0A3
:10211000A06800280AD1DFF86005016831F48071F9
:102120000160016831F48061016017E0A068052852
:102130000AD1DFF84405016851F48061016001684B
:1021400051F48071016009E0DFF82C05016831F479
:1021500080710160016831F480610160A06800282D
:1021600011D000F003FD8146DFF80C050068800502
:102170001BD400F0FBFCB0EB090041F2893188422E
:10218000F2D30320D3E000F0F1FC8146DFF8E8044D
:102190000068800509D500F0E9FCB0EB090041F2C8
:1021A00089318842F2D30320C1E05FFA88F8B8F1A0
:1021B000010F03D1306830F080503060606A002831
:1021C0000BD0606A012808D0606A022805D04FF45D
:1021D0002B71DFF8A80400F0C7FC606A002800F04B
:1021E000A5800C2D00F08B80606A022874D1A06A53
:1021F000002809D0A06AB0F5803F05D040F2B52193
:10220000DFF8780400F0B0FCE06A002825D0E06A2E
:10221000B0F5802F21D0E06AB0F5002F1DD0E06A24
:10222000B0F5402F19D0E06AB0F5801F15D0E06AF4
:10223000B0F5A01F11D0E06AB0F5C01F0DD0E06A64
:10224000B0F5E01F09D0E06AB0F5001F05D040F2FC
:10225000B621DFF8280400F087FC206BB0F5800F72
:102260000DD0206BB0F5000F09D0206BB0F5400FFA
:1022700005D040F2B721DFF8040400F075FCDFF868
:1022800098640020306000F071FC8046DFF83C5319
:102290002868800107D500F069FCB0EB080003282E
:1022A000F4D3032043E0396831F47D01A06A01438F
:1022B000E06A0143206B014339600120306000F087
:1022C00055FC04002868800130D400F04FFC001B4E
:1022D0000328F7D303202AE00020DFF83C1408602D
:1022E00000F044FC0400DFF8E402006880011DD522
:1022F00000F03CFC001B0328F5D3032017E0606AC4
:10230000012801D1012012E0386810F48031A26A5E
:10231000914209D110F47011E26A914204D110F493
:102320004000216B884201D0012000E00020BDE880
:10233000F6872DE9F04104000D00002C01D10120A9
:102340003FE1002D07D0012D05D040F22A31DFF802
:102350002C0300F009FCDFF8C463306810F00100C2
:10236000A84211D2012D03D1306850F00400306032
:1023700030684008400028433060306810F00100A9
:10238000A84201D001201CE12078800727D5A06851
:1023900000281DD0A06880281AD0A068902817D0E7
:1023A000A068A02814D0A068B02811D0A068C028C8
:1023B0000ED0A068D0280BD0A068E02808D0A06874
:1023C000F02805D040F24131DFF8B00200F0CCFB3C
:1023D0007F490A6832F0F002A06802430A60207860
:1023E000C00740F18180606800280ED06068012835
:1023F0000BD06068022808D06068032805D04FF42D
:102400005271DFF8780200F0AFFB6068022805D156
:102410006E480068800319D40120D2E06068032868
:1024200005D16A480068800110D40120C9E06068C5
:10243000012805D165480068800707D40120C0E065
:1024400062480068800501D40120BAE0604F396815
:102450008908890060680143396000F087FB804685
:10246000606802280ED1386810F00C0008283BD0B4
:1024700000F07CFBB0EB080041F289318842F2D3D6
:1024800003209EE0606803280ED1386810F00C002D
:102490000C2829D000F06AFBB0EB080041F289312A
:1024A0008842F2D303208CE0606801280ED138689E
:1024B00010F00C00042817D000F058FBB0EB080017
:1024C00041F289318842F2D303207AE0386810F073
:1024D0000C0F09D000F04AFBB0EB080041F2893143
:1024E0008842F3D303206CE0306810F0010085428D
:1024F00011D2012D03D1306850F0040030603068F3
:102500004008400028433060306810F00100A842C5
:1025100001D0012055E0207840071ED5E068002852
:1025200014D0E068B0F5806F10D0E068B0F5A06F0F
:102530000CD0E068B0F5C06F08D0E068B0F5E06F8F
:1025400004D040F2AD314D4800F00EFB20490A683E
:1025500032F4E062E06802430A60207800071FD589
:102560002069002814D02069B0F5806F10D0206950
:10257000B0F5A06F0CD02069B0F5C06F08D020690D
:10258000B0F5E06F04D04FF46D713C4800F0ECFA08
:102590000F48016831F46051226951EAC2010160BB
:1025A00000F01CF8DFF85C11094A1268C2F303124C
:1025B000895CC840074908600748006800F0DCFAF9
:1025C000C0B2BDE8F081000004380240003802408B
:1025D00008380240080000200000002000B5504BE1
:1025E000186810F00C01042904D0082904D00C2923
:1025F00004D01BE04B4824E04B4822E04B49C0F399
:102600008342895CC0F38152521C1868C00306D50E
:102610004548A0FB01010023FEF714FD05E04148F9
:10262000A0FB01010023FEF70DFD0AE04048006811
:10263000C0F342300121401C11FA00F04FF4004178
:10264000484300BD3B480068704780B5FFF7FAFF7C
:102650003949334A1268C2F30222895CC84002BD7C
:1026600080B5FFF7EFFF34492D4A1268C2F3C2224A
:10267000895CC84002BD000034380240806F000809
:102680000000474218B40021254A126812F0F00FEA
:1026900020D11F4B1A68D20004D51E4A126812F4CA
:1026A000C05210E01A6852F080521A601A6812F094
:1026B00080520092009A174A126812F4C0521C68A5
:1026C00034F080541C60B2F5C05F03D1B0F5404FC8
:1026D00000D10121012904D11048026852F00402FE
:1026E00002600E480268520852000A430260006805
:1026F00010F00100884201D0012000E0002012BC4F
:1027000070470000BC710008200047428006474225
:10271000243802400070004060004742003C024004
:10272000083802400024F40000366E01DC71000815
:1027300004380240080000201472000810B5DFF8C9
:10274000E04301228021200000F0FCFB40F21A400F
:1027500000F036FC00228021200000F0F3FB10BDC9
:1027600080B500F0CBFC00F052FE00F059FE4FF4B3
:10277000807000F05FFE4FF4007000F05BFEDFF849
:10278000A403016851F004010160016851F00801DF
:10279000016000F069FE01BDF0B585B06846142106
:1027A00000F078FE012000900320019000200290AC
:1027B00000200390DFF868636946300000F00AFAF1
:1027C0000A2000F0FDFBDFF860734021380000F0C4
:1027D000A4FB0400012001906946300000F0FAF9E2
:1027E0000A2000F0EDFB00220121300000F0AAFBDE
:1027F0004021380000F091FB05000122012130004A
:1028000000F0A0FB4021380000F087FB2100C9B296
:10281000012909D12900C9B2002905D10100C9B295
:10282000012901D1002011E055EA04010143C9B298
:10283000002901D1012009E02C43E4B2002C04D18D
:10284000C0B2012801D1022000E0002005B0F0BD97
:1028500080B500F042FEB54800F020FE00F02EFEEC
:10286000002801D0FFF76AFF01BD78B595B000F0F0
:10287000BDFDAF48016851F080510160006810F063
:102880008050009000980025AA480068C00705D530
:102890000125A448016851F00401016000F0F1F83D
:1028A00000F098FE00F054FF00F078FF01F034F8DB
:1028B00001F0A8F801F075F99F4C2068C068C005C8
:1028C0000BD59E480178491C01702068C06810F043
:1028D000800070F4C0702168C8602800C0B2002871
:1028E00016D100F016FC00200290052001900B206C
:1028F0000090062302220A21152001F01DF920680C
:10290000C06810F0800070F4C0702168C86001E0F9
:1029100000F0DDFBFFF79CFF0DA8202100F0BAFDC1
:10292000002203A9200001F03DFB002801D000F0A7
:1029300019F9EDB2002D21D106A81C2100F0AAFD45
:102940004FF480700C9006A803A991E82C0080E851
:102950002C009DF81A000F308DF81A000020099005
:1029600000200A9002208DF82C00002206A92000E9
:1029700001F032FC002801D000F0F4F82068C068B3
:10298000C0050BD56D480178491C01702068C068EE
:1029900010F0800070F4C0702168C860684D28682D
:1029A000401C28605E4E0221300000F0B6FAC0B232
:1029B00000281AD04FF40051300000F0AEFA6149FF
:1029C00008704FF48051300000F0A7FA5E4908709B
:1029D0004FF40061300000F0A0FA5C490870042157
:1029E000300000F09AFA5A490870FFF7D5FE00222D
:1029F00003A9200001F0D6FA002801D000F0B2F8B7
:102A0000002000F032FB0021002000F0DEFC9DF8E9
:102A10000E0000909DF80D309DF80C204D490DA83A
:102A200001F044FE4C4E01200090330007220A21A1
:102A30000DA800F0B0FC1021002000F0C6FC4448B6
:102A4000007802904148007801903F48007800905B
:102A50003C4803783948027840490DA801F026FE29
:102A600001200090330007220A210DA800F093FCFA
:102A700000F00CFB2868C8287FF480AFFFF770FED9
:102A80007CE780B594B007A8342100F003FD02A8CC
:102A9000142100F0FFFC3248D0E90023CDE90023E7
:102AA0002048016831F4C05151F4006101600620F2
:102AB00007900120099001200A9010200B9002201D
:102AC000109000201190002012905FF4800013906D
:102AD00007A8FFF7ADF8002801D000F043F80F2059
:102AE0000290032003900020049000200590002015
:102AF0000690012102A8FFF71CFC002801D000F07D
:102B000031F8012000905FF480300190684601F0B8
:102B1000EDFD002801D000F025F815B000BD000043
:102B200000040240007000400000024004720008EF
:102B30002438024004700040EC0300205E040020B2
:102B4000480400205A0400205B0400205C0400209C
:102B50005D040020AC710008E46400089071000876
:102B60000C72000872B6FEE770470000014800686A
:102B7000704700BF5004002038B5040000251249FA
:102B8000086800281BD04FF47A700968B0FBF1F098
:102B90000E490968B1FBF0F001F028FF00280CD1C4
:102BA000102C08D2002221005FF0FF3001F0EFFE70
:102BB0000748046004E0012502E0012500E001254A
:102BC0002800C0B232BD00BF040000200800002071
:102BD000000000202DE9F84305008846002700206A
:102BE0000020DFF8A863B54218D0DFF8A4038542BF
:102BF00014D0DFF8A003854210D0DFF89C03854293
:102C00000CD0DFF89803854208D0DFF894038542A2
:102C100004D0B121DFF88C03FFF7A6FFD8F800003D
:102C2000000405D0D8F80000000C0004002804D0EF
:102C3000B221DFF87003FFF797FFD8F804000028EF
:102C400072D0D8F8040001286ED0D8F804001128FA
:102C50006AD0D8F80400022866D0D8F804001228F8
:102C600062D0D8F80400B0F5881F5DD0D8F8040011
:102C7000B0F5041F58D0D8F80400B0F5441F53D065
:102C8000D8F80400B0F5901F4ED0D8F80400B0F585
:102C9000081F49D0D8F80400B0F5481F44D0D8F830
:102CA0000400032840D0B321DFF8F802FFF75CFFEF
:102CB0003AE0052304E0DFF8E4028542F9D1042379
:102CC00017F00300C0B2800083401A433800800828
:102CD00041F82020DFF8D0120868A043D8F804207B
:102CE000D20300D520430860DFF8C0120868A04373
:102CF000D8F80420920300D520430860DFF8B01212
:102D00000868A043D8F80420D20200D52043086008
:102D1000DFF8A0120868A043D8F80420920201D579
:102D20000443200008607F1CD8F80000F840002809
:102D300000F0F1805FF00109D8F8004019FA07F0BF
:102D40000440002CEFD098F8040010F00300012894
:102D500005D098F8040010F0030002282FD1D8F80D
:102D60000C00002810D0D8F80C0001280CD0D8F89E
:102D70000C00022808D0D8F80C00032804D0C32186
:102D8000DFF82002FFF7F0FEA96803223800C0B286
:102D9000400082409143D8F80C203800C0B2400077
:102DA00082401143A960686819FA07F930EA0900FE
:102DB000D8F80410C1F30011B9400843686098F8CE
:102DC000040010F0030003281FD0D8F808000028E2
:102DD0000CD0D8F80800012808D0D8F8080002283C
:102DE00004D0D421DFF8BC01FFF7BEFEE96803225E
:102DF0003800C0B2400082409143D8F80820380023
:102E0000C0B2400082401143E96098F8040010F01D
:102E1000030002283CD1B54218D0DFF87401854286
:102E200014D0DFF87001854210D0DFF86C018542C4
:102E30000CD0DFF86801854208D0DFF864018542D4
:102E400004D0E121DFF85C01FFF78EFED8F8100016
:102E5000102804D3E221DFF84C01FFF785FE38008B
:102E6000C00805EB8000016A0F2217F00700C0B20E
:102E7000800082409143D8F8102017F00700C0B2BC
:102E80008000824011433800C00805EB80000162D9
:102E9000296803223800C0B240008240914398F86C
:102EA000042012F003023800C0B2400082401143F7
:102EB0002960D8F8040010F4403F3FF434AFDFF845
:102EC000F800016851F001010160006810F0010094
:102ED00000900098DFF8E4103800800851F82020B6
:102EE0000F2317F00300C0B2800083409A43B5421D
:102EF00001D10023E4E62648854201D10123DFE623
:102F00002448854201D10223DAE6234885427FF432
:102F1000D2AE0323D4E6BDE8F18338B504000D003A
:102F2000280080B2002804D14FF4C1711D48FFF77A
:102F30001BFE2069ADB2284201D0012000E0002034
:102F4000C0B232BD70B505000E001400300080B272
:102F5000002804D14FF4D0711248FFF705FE20007D
:102F6000C0B2002808D02000C0B2012804D040F22E
:102F7000A1110C48FFF7F8FDE4B2002C02D0B6B264
:102F8000AE6102E0B6B23604AE6170BD0000024030
:102F90000004024000080240000C02400010024001
:102FA000001402402C6D000800040140040401409C
:102FB000080401400C040140203802400800014090
:102FC00038B50400FFF7D2FD050014F1010F02D05F
:102FD000044800680419FFF7C9FD401BA042FAD35A
:102FE00031BD00BF0400002031B50C00002240219B
:102FF000DFF8E003FFF7A6FFDFF8DC5300224FF411
:1030000000412800FFF79EFF4FF47A73220092B22E
:103010006946DFF8C80301F02FFE01224FF400419A
:103020002800FFF78FFF31BD70B504000D000122AD
:103030004021DFF8A003FFF785FFDFF89C63002243
:103040004FF400413000FFF77DFF4FF47A732A0000
:1030500092B22100DFF8840301F00EFE01224FF44A
:1030600000413000FFF76EFF70BD00210AE0FF2233
:1030700004E00200D2B2002AF9D10022DFF8603366
:103080005A54491CB1F5007FF3D3704710B50024A2
:1030900018E00121B4F15000C0B2FFF7A5FF0121F3
:1030A0000020FFF7A1FF01211020FFF79DFF8021E5
:1030B000CB4A2300DBB28020434302EB0300FFF73F
:1030C000B3FF641C2000C0B20428E2DB10BD10B5C1
:1030D00001224FF40041C048FFF734FFBD4C0122EC
:1030E00020212000FFF72EFF012210212000FFF7F2
:1030F00029FF0121AF20FFF777FF10BD80B5002227
:103100001021B448FFF71EFF0121AE20FFF76CFF2E
:1031100001BD10B501224FF40041AF48FFF712FF87
:10312000AC4C002210212000FFF70CFF00222021D0
:103130002000FFF707FF6420FFF742FF0122202154
:103140002000FFF7FFFE6420FFF73AFF0121AE20C9
:10315000FFF74AFF0121D520FFF746FF012180201C
:10316000FFF742FF0121A820FFF73EFF01211F20AA
:10317000FFF73AFF0121D320FFF736FF012100209E
:10318000FFF732FF01214020FFF72EFF01218D20A4
:10319000FFF72AFF01211420FFF726FF0121A120BC
:1031A000FFF722FF0121C820FFF71EFF0121DA20CF
:1031B000FFF71AFF01210020FFF716FF01218120F0
:1031C000FFF712FF01218F20FFF70EFF0121D92009
:1031D000FFF70AFF01211F20FFF706FF0121DB2077
:1031E000FFF702FF01214020FFF7FEFE0121A4208E
:1031F000FFF7FAFE012210212000FFF7A3FE0020B6
:10320000FFF733FFFFF742FF0121AF20FFF7ECFE8E
:103210006420FFF7D5FE0020724908700020724933
:10322000087010BDF0B40300DBB2802B03DA0B0092
:10323000DBB2202B00DB44E0D2B2012A20D10B000C
:10324000DBB20824664D0600F6B20A00D2B20827A7
:1032500092FBF7F7802202FB0766C0B2C9B20822D0
:1032600091FBF2F2802101FB0200285C012193FB1B
:10327000F4F204FB123311FA03F30343AB5520E0DD
:103280000B00DBB20824564D0600F6B20A00D2B29B
:10329000082792FBF7F7802202FB0766C0B2C9B28B
:1032A000082291FBF2F2802101FB0200285C01213F
:1032B00093FBF4F204FB123311FA03F330EA030335
:1032C000AB55F0BC70472DE9FE4F05002800C0B299
:1032D00020385F2800D320251600424F3A7830006E
:1032E000C0B28218812A0ADA8DF80010DFF8F8805F
:1032F00098F800109DF800004118212901DB0020FA
:1033000047E05FF0000901930C9C01E019F101090D
:103310009DF80000814537D201982900C9B22039B3
:103320009DF8002002FB019130F811A05FF0000B26
:1033300014E0002204E02000C0B20028F9D10122EC
:10334000D2B298F8001019EB0101C9B238781BEB22
:103350000000C0B2FFF766FF1BF1010B3000C0B2E6
:103360008345D3D21AFA0BF00004E4D52200D2B27E
:1033700098F8001019EB0101C9B238781BEB000076
:10338000C0B2FFF74FFFE7E7387836183E702800E5
:10339000C0B2BDE8FE8F2DE9FC4105000E0017000C
:1033A0009846089C0BE02000C0B2009043463A00CB
:1033B000D2B23100C9B22878FFF785FF6D1C28789A
:1033C0000028F0D12878BDE8F681064A107006483A
:1033D00001707047000402400000024044020020D7
:1033E00044000020580400205904002010B5002497
:1033F000032001F0B7FA0F20FFF7BEFB002801D031
:10340000012401E001F0BAFD2000C0B210BD034864
:10341000016851F00401016070470000042004E0DD
:1034200001205FF40001B1FA81F1154A12EB81022B
:103430001060704710B50400B4F5807F0AD0B4F571
:10344000007F07D0B4F5806F04D040F299110D4889
:10345000FFF78AFB94FAA4F0B0FA80F00B4911EB65
:1034600080010120086010BD0748016851F0020189
:1034700001600748016851F00401016030BF7047E6
:1034800000000E42386F00080070004080000E42BD
:1034900010ED00E0002201F095BD000010B5040021
:1034A0002000FDF787FD020092B22100424801F0A2
:1034B00038FE002801D0FFF755FB10BD3F494FF4FF
:1034C0007A7008600868002805D03D480078002818
:1034D000F8D0002000E003207047F8B5364C2000FB
:1034E00001F0ABFE14210022364D2E00300002F018
:1034F000AFFA14210022344E3700380002F0A8FA47
:1035000032480021017000212D4A117000780028F6
:1035100001D03500FFE714222900200001F054FEFD
:10352000002801D0FFF71EFB29480168096831F027
:10353000040100680160F1BD38B5244A1078002804
:1035400001D0214800E01F4801230FE01C00E4B235
:10355000044414F8014C4F2C07D11C00E4B2045D64
:103560004B2C02D10124164D2C705B1C1C00E4B2C4
:103570000D00A4B2ADB2AC42E8D31078002802D05E
:103580000020107001E0012010701078002801D098
:103590000D4900E00B491422074801F015FE0028F0
:1035A00001D0FFF7DFFA0A480168096831F0040129
:1035B0000068016031BD0000E00200204C040020E2
:1035C0006004002020040020340400205F04002058
:1035D0002403002070B586B068461421FFF75AFF17
:1035E0005748016851F004010160016811F00401BD
:1035F00005910599016851F020010160016811F001
:10360000200105910599016851F0010101600168EF
:1036100011F0010105910599016851F00201016065
:10362000006810F0020005900598464C00224421E5
:103630002000FFF787FC4CF2D105434E0022290001
:103640003000FFF77FFC012220213000FFF77AFCD9
:1036500001224FF400412000FFF774FC032000908A
:10366000032001900020029069463848FFF7B2FA23
:103670004220009000200190002002906946200026
:10368000FFF7A8FA0420009001200190002002908A
:103690000020039069462000FFF79CFA4FF4004099
:1036A00000900120019001200290032003906946C0
:1036B0002000FFF78FFA4FF48470009003200190F0
:1036C0000020029069462000FFF784FA009501204F
:1036D0000190002002900020039069463000FFF71F
:1036E00079FA202000900120019001200290002012
:1036F000039069463000FFF76DFA02200090002029
:1037000001900020029069463000FFF763FA43F60B
:1037100004000090002001900020029069463000D3
:10372000FFF758FA4FF4E06000900320019000206A
:10373000029069463000FFF74DFA06B070BD00BF39
:103740001C38024000000240000402400014024005
:1037500080B51148016851F080710160006810F077
:10376000807000900098002200210C2001F00FF9D9
:103770000C2001F02BF9002200210E2001F007F9A6
:103780000E2001F023F9002200210F2001F0FFF8A4
:103790000F2001F01BF901BD1C3802401FB5534832
:1037A000D0E90023CDE90223514C524820600A2081
:1037B00060600020A0604FF4FA60E060200002F03A
:1037C0007BF9002801D0FFF7CDF9202002900020DE
:1037D000039002A9200002F0E7FA002801D0FFF7C9
:1037E000C1F94548D0E90023CDE90023434C4448C2
:1037F0002060200002F05EFB002801D0FFF7B2F944
:10380000042000900020019000226946200002F070
:1038100072FB002801D0FFF7A5F9102269462000AD
:1038200002F069FB002801D0FFF79CF91FBD38B5F5
:1038300086B0040001A81421FFF72CFE206830494F
:10384000884239D12F48016851F000510160006869
:1038500010F00050009000982B48016851F00101D1
:103860000160006810F00100009000983020019085
:10387000032002900020039001A92448FFF7AAF931
:10388000234D24482860102068600020A860802014
:10389000E8604FF4007028614FF4006068612020F8
:1038A000A8610020E861280002F08AFB002801D00E
:1038B000FFF758F9A5606C6207B030BD80B50068AD
:1038C0000C49884211D10F48016851F01001016084
:1038D000006810F0100000900098002200212B20BA
:1038E00001F055F82B2001F071F801BDF4710008CA
:1038F000AC03002000100040FC7100080C04002004
:1039000000740040243802401C380240000002408D
:103910009C0200201C60024080B53448344901609C
:103920004FF482714160002181600021C16000215B
:103930000161002141614FF4007181610021C16189
:103940000021016200214162002181620A21C162DD
:1039500001F062F8002801D0FFF704F901BD10B5AD
:1039600086B0040068461421FFF794FD20682049C2
:10397000884238D11F48016851F4805101600068C5
:1039800010F48050059005981B48016851F0010122
:103990000160016811F0010105910599016851F07C
:1039A00002010160006810F0020005900598802077
:1039B0000090022001900020029003200390052037
:1039C000049069460D48FFF705F908200090022091
:1039D0000190002002900320039005200490694686
:1039E0000748FFF7F7F806B010BD000044020020BA
:1039F00000300140203802401C38024000000240E4
:103A00000004024080B54348434901605FF4E1315E
:103A10004160002181600021C160002101610C2111
:103A200041614FF4407181610021C16101F0E4FA0C
:103A3000002801D0FFF796F800220021252000F091
:103A4000A6FF252000F0C2FF01BD38B586B00400F6
:103A500001A81421FFF71EFD20682F49884256D186
:103A60002E48016851F480410160006810F48040E4
:103A7000009000982A48016851F001010160006837
:103A800010F00100009000984FF4F05001900220D7
:103A9000029000200390032004900720059001A9C4
:103AA0002048FFF797F8204D2048286000206860E4
:103AB0000020A8608020E860002028610020686164
:103AC0000020A8610020E861280002F079FA0028AF
:103AD00001D0FFF747F8A5636C62154D15482860C3
:103AE000102068600020A8608020E8600020286125
:103AF000002068610020A8610020E861280002F031
:103B00005FFA002801D0FFF72DF865636C6207B0FB
:103B100030BD0000E00200200038014020380240A3
:103B20001C3802400000024024030020586002407C
:103B30006803002044600240F8B584B001AC002561
:103B40000026002784E8E0002A4C246800948DF8C1
:103B500000308DF801108DF802208DF80300264CFE
:103B600000226946200000F051FA002801D0FEF73B
:103B7000F9FF0C980B990A9A8DF804208DF805101E
:103B80008DF806000020029000200390002201A979
:103B9000200000F0EEF8002801D0FEF7E3FF05B0AA
:103BA000F0BD10B5144C15482060002060607F20E7
:103BB000A060FF20E0600020206100206061002004
:103BC000A061200000F01EF8002801D0FEF7CAFF17
:103BD00000220021200002F0F5FB002801D0FEF7B2
:103BE000C1FF10BD00680549884202D10120044987
:103BF000086070471C720008EC0300200028004099
:103C0000D806474210B50400002C01D10120AFE0D6
:103C10002068DFF8B815884204D0FC21DFF8B00531
:103C2000FEF7A2FF6068402807D06068002804D033
:103C3000FD21DFF89C05FEF797FFA068802804D3DC
:103C4000FE21DFF88C05FEF78FFFE068B0F5005F1E
:103C500004D3FF21DFF87805FEF786FF20690028EE
:103C600011D02069B0F5001F0DD02069B0F5800F8C
:103C700009D02069B0F5C00F05D04FF48071DFF88E
:103C80005005FEF771FF6069002809D06069B0F542
:103C9000801F05D040F20111DFF83405FEF764FF04
:103CA000A069002809D0A069B0F5802F05D04FF495
:103CB0008171DFF81C05FEF757FF607F002804D1F3
:103CC000002020772000FFF78DFF02206077CA20B8
:103CD00021684862532021684862200000F0B4FC4B
:103CE000002806D0FF202168486204206077012068
:103CF0003EE020688168DFF8DC04014020688160D4
:103D00002068816862682069024360690243114348
:103D100020688160E0682168086120680069A16806
:103D200050EA0140216808612068C06830F08000D6
:103D30002168C860200000F06DFC002806D0FF203C
:103D40002168486204206077012011E02068006C3F
:103D500030F48020216808642068016CA069014368
:103D600020680164FF2021684862012060770020FC
:103D700010BDF8B505000E001400002C07D0012C72
:103D800005D040F2E621DFF84804FEF7EDFE70684A
:103D9000B0F5003F0CD07068B0F5803F08D0706877
:103DA000002805D040F2E721DFF82404FEF7DCFE0E
:103DB000B068002809D0B068B0F5802F05D04FF466
:103DC0003A71DFF80C04FEF7CFFE287F012801D1FD
:103DD0000220E6E00120287702206877002C4FD1EE
:103DE00028688068400618D53078002802D03078DE
:103DF0000D2805D340F2F321DFF8D403FEF7B4FE1B
:103E0000F078002814D0F078402811D04FF43D719C
:103E1000DFF8BC03FEF7A8FE0AE00020F07030785F
:103E2000182805D340F2F921DFF8A403FEF79CFE21
:103E300070783C2805D340F2FB21DFF89403FEF7AD
:103E400093FEB0783C2805D34FF43F71DFF8800330
:103E5000FEF78AFE307800F013FC0700707800F05F
:103E60000FFC0400B07800F00BFCFFB2E4B22402B7
:103E700054EA0744C0B20443F07854EA00444DE0E9
:103E80002868806840061CD5307800F005FC0028C2
:103E900004D0307800F000FC0D2805D340F2073143
:103EA000DFF82C03FEF760FEF078002816D0F078DB
:103EB000402813D04FF44271DFF81403FEF754FE8C
:103EC0000CE00020F070307800F0E6FB182805D3F5
:103ED00040F20D31DFF8F802FEF746FE707800F090
:103EE000DBFB3C2805D340F20F31DFF8E402FEF79C
:103EF0003BFEB07800F0D0FB3C2805D34FF4447172
:103F0000DFF8CC02FEF730FE30787478240254EAF1
:103F10000044B0780443F07854EA0044CA20296889
:103F20004862532029684862280000F08DFB002871
:103F300008D0FF202968486204206877002028778D
:103F400001202EE0DFF85406044028680460286849
:103F5000806830F4802029688860286881687268E9
:103F6000B06802431143286881602868C06830F057
:103F700080002968C860280000F04CFB002808D0A9
:103F8000FF202968486204206877002028770120F4
:103F900007E0FF2029684862012068770020287721
:103FA0000020F2BD70B506000D001400002C07D0F3
:103FB000012C05D040F26931DFF81402FEF7D4FD80
:103FC00030680168DFF8D40501400800000C10F0EB
:103FD0003F0028700800000A10F07F00687011F0A0
:103FE0007F00A870090C11F04001E970002C0BD182
:103FF000287800F051FB2870687800F04DFB68705D
:10400000A87800F049FBA870002070BDF8B5050045
:104010000E001400002C07D0012C05D040F297317F
:10402000DFF8AC01FEF7A0FD287F012801D10220B6
:10403000CBE00120287702206877002C07D1707828
:10404000C00604D5707810F0EF000A307070307838
:10405000012817D03078022814D03078032811D0E6
:10406000307804280ED0307805280BD03078062818
:1040700008D03078072805D040F2A331DFF850018E
:10408000FEF772FD002C36D1F078642805D340F29B
:10409000A731DFF83C01FEF767FD7078002802D0F9
:1040A00070780D2805D34FF46A71DFF82401FEF70C
:1040B0005BFDB078002802D0B078202805D340F20C
:1040C000A931DFF80C01FEF74FFDF07800F0D8FAC7
:1040D0000700707800F0D4FA0400B07800F0D0FA4D
:1040E000FFB2E4B2240254EA0744C0B20443307879
:1040F00054EA403434E0F07800F0CEFA642805D376
:1041000040F2B231DFF8C800FEF72EFD707800F003
:10411000C3FA002804D0707800F0BEFA0D2805D349
:1041200040F2B331DFF8A800FEF71EFDB07800F0D2
:10413000B3FA002804D0B07800F0AEFA202805D3F6
:104140004FF46D71DFF88800FEF70EFDF07874789B
:10415000240254EA0044B0780443307854EA4034EE
:10416000CA2029684862532029684862280000F064
:104170006BFA002808D0FF2029684862042068777D
:1041800000202877012020E0DFF87404044028682C
:1041900044602868C06830F080002968C860280042
:1041A00000F038FA002808D0FF202968486204206F
:1041B000687700202877012007E0FF2029684862FF
:1041C00001206877002028770020F2BD00280040F9
:1041D000C86F0008BFFF8FFF2DE9F04105000E00FA
:1041E000140000200020002C07D0012C05D040F244
:1041F0003D51DFF81004FEF7B7FCB069B0F5807FE1
:1042000009D0B069B0F5007F05D040F23E51DFF82B
:10421000F403FEF7A9FCF06830F08030002805D0E8
:1042200040F23F51DFF8DC03FEF79EFC30690028C6
:1042300009D03069B0F1804F05D04FF4A861DFF8A4
:10424000C403FEF791FC287F012801D10220A2E1DE
:104250000120287702206877002C40F088802868A9
:104260008068400618D53078002802D030780D28B4
:1042700005D340F24F51DFF88C03FEF775FCF07860
:10428000002814D0F078402811D04FF4AA61DFF84C
:104290007403FEF769FC0AE00020F07030781828FB
:1042A00005D340F25551DFF85C03FEF75DFC7078F2
:1042B0003C2805D340F25751DFF84803FEF754FC81
:1042C000B0783C2805D34FF4AB61DFF83803FEF734
:1042D0004BFC306900280CD1307D002802D0307DA5
:1042E000202821D340F25C51DFF81803FEF73CFC94
:1042F0001AE0307D012817D0307D022814D0307D9F
:10430000032811D0307D04280ED0307D05280BD035
:10431000307D062808D0307D072805D04FF4AC61E9
:10432000DFF8E002FEF720FC307800F0A9F9070082
:10433000707800F0A5F90400B07800F0A1F980468B
:10434000307D00F09DF9FFB2E4B2240254EA074444
:104350005FFA88F858EA0404F17854EA0144C0B2DC
:1043600054EA006430690443F068044390E028682C
:10437000806840061CD5307800F08EF9002804D003
:10438000307800F089F90D2805D340F26E51DFF83E
:104390007402FEF7E9FBF078002816D0F078402888
:1043A00013D040F26F51DFF85C02FEF7DDFB0CE04A
:1043B0000020F070307800F06FF9182805D340F233
:1043C0007451DFF84002FEF7CFFB707800F064F91B
:1043D0003C2805D340F27751DFF82802FEF7C4FBF2
:1043E000B07800F059F93C2805D34FF4AF61DFF8FD
:1043F0001402FEF7B9FB3069002810D1307D00F0BF
:104400004BF9002804D0307D00F046F920282ED347
:1044100040F27C51DFF8EC01FEF7A6FB27E0307D8F
:1044200000F03AF9012822D0307D00F035F9022859
:104430001DD0307D00F030F9032818D0307D00F019
:104440002BF9042813D0307D00F026F905280ED072
:10445000307D00F021F9062809D0307D00F01CF9EC
:10446000072804D04FF4B0616648FEF77DFB307832
:104470007478240254EA0044B0780443F07854EA93
:104480000044307D54EA006430690443F06804431A
:10449000CA2029684862532029684862B069B0F58B
:1044A000807F33D12868806830F480702968886004
:1044B0002868C06810F0800070F4C0702968C86077
:1044C000FEF754FB06002868C068C0070FD4FEF74B
:1044D0004DFB801B40F2E9318842F4D3FF2029686C
:1044E00048620320687700202877032053E028687B
:1044F000C4612868806850F48070296888602868E2
:10450000806850F480502968886032E028688068AC
:1045100030F40070296888602868C06810F0800056
:1045200070F420702968C860FEF720FB0600286838
:10453000C06880070FD4FEF719FB801B40F2E931F9
:104540008842F4D3FF20296848620320687700205E
:10455000287703201FE0286804622868806850F4E8
:104560000070296888602868806850F400502968C5
:1045700088602548016851F40031016023480168D2
:1045800051F400310160FF202968486201206877FA
:10459000002028770020BDE8F08100007F7F7F00A9
:1045A00010B5040020688068C0040ED52068C0687B
:1045B000C0050AD5200001F089FF2068C06810F00E
:1045C000800070F4C0702168C86020688068800432
:1045D0000ED52068C06880050AD5200001F077FF5D
:1045E0002068C06810F0800070F420702168C860F6
:1045F0005FF40030064908600120607710BD0000BC
:104600003FFFFF00C86F000800040140080401409C
:104610001404014038B504002068C06830F0A000E0
:104620002168C860FEF7A2FA05002068C06880060D
:1046300008D4FEF79BFA401B40F2E9318842F4D3DC
:10464000032000E0002032BD38B504002068C068B7
:10465000400613D45FF0FF302168C860FEF786FA89
:1046600005002068C068400608D4FEF77FFA401BAA
:1046700040F2E9318842F4D3032000E0002032BD4B
:10468000002101E0491C0A380200D2B20A2AF9D2FC
:1046900050EA0110C0B270470200D2B212090A21DA
:1046A0004A4310F00F008018C0B270470CB430B508
:1046B00083B00A4606A9029104460025019400959C
:1046C00002AB01A9084878441E30FBF713FD019A9C
:1046D000157000284EBF04460198041B204603B005
:1046E00030BC5DF80CFB00BF83C8FFFF2DE9F84329
:1046F00004002068012803D062215948FEF734FAEB
:104700002078C00740F1A9802078C0071ED56068D6
:1047100000281BD06068B0F5803F17D06068B0F506
:10472000003F13D06068B0F5403F0FD060684D493E
:1047300088420BD060684C49884207D060684B497A
:10474000884203D06E214648FEF70EFA0026484DF7
:104750002868C00009D4286850F080502860286874
:1047600010F08050009000980126424F3868C00534
:1047700011D4386850F480703860FEF7F7F980463D
:104780003868C00507D4FEF7F1F9B0EB08006528DA
:10479000F6D3032062E0384F386810F0C0406168FB
:1047A00011F0C04188420AD0606810F44030B0F582
:1047B000403F04D13868800301D501204EE0DFF886
:1047C000BC80D8F8000010F44030002825D0616883
:1047D00011F44031884220D02078C0071DD5D8F888
:1047E000000030F44030264901220A6000220A60AD
:1047F000C8F80000C00510D5FEF7B8F98146D8F812
:104800000000800509D4FEF7B1F9B0EB090041F2D0
:1048100089318842F3D3032020E02078C00715D5E2
:10482000606810F44030B0F5403F07D1386830F090
:10483000C040616811F0C04108433860D8F80000FA
:10484000616811F440310843C8F80000F6B2012E47
:1048500003D1286830F0805028600020BDE8F28342
:10486000786D000800000320000003400000036092
:1048700024380240007000400038024034380240C2
:10488000DC06474210F00700DFF868311A684FF67F
:10489000FF010A40DFF8601151EA00210A431A6063
:1048A0007047DFF850010068C0F302207047010034
:1048B00049B2002909D4012210F01F018A40DFF813
:1048C0003C1140B2400941F820207047020052B22A
:1048D000002A05D40901DFF8282140B2115408E06C
:1048E0000901DFF8202140B210F00F00104400F859
:1048F000041C704710B410F00700D0F10703052B1B
:1049000001D3042301E0D0F10703041D072C01D2D9
:10491000002000E0C01E012414FA03F35B1E1940BE
:10492000814014FA00F0401E1040084310BC70474C
:1049300080B5411EB1F1807F01D3012011E0401EFE
:10494000DFF8C41008600F215FF0FF30FFF7BEFFF3
:104950000020DFF8B81008600720DFF8B410086006
:10496000002002BD10B50400072C0CD0062C0AD084
:10497000052C08D0042C06D0032C04D0AC21DFF881
:104980009400FEF7F1F82000FFF77CFF10BD70B532
:1049900004000D0016000020102E04D3C421DFF8FF
:1049A0007400FEF7E1F8102D04D3C521DFF8640090
:1049B000FEF7DAF8FFF775FF32002900FFF79AFFDC
:1049C0000100200040B2FFF781FF70BD10B5040068
:1049D000200040B2002804D5D821DFF83800FEF7C7
:1049E000C3F8200040B2FFF762FF10BD80B5FFF7AB
:1049F0009FFF02BD0CED00E00000FA0500E100E0C1
:104A000000E400E018ED00E014E000E018E000E051
:104A100010E000E0E06C000810B50400002C01D1AB
:104A2000012028E12068DFF8141488420AD02068A9
:104A3000DFF80C14884205D04FF4A171DFF80404AC
:104A4000FEF792F86068002809D06068B0F5827FB0
:104A500005D040F24311DFF8EC03FEF785F8A068BB
:104A600000280DD0A068B0F5806F09D0A068B0F51F
:104A7000004F05D04FF4A271DFF8C803FEF774F8B9
:104A8000E068B0F5006F08D0E068002805D040F27B
:104A90004511DFF8B003FEF767F8A069B0F5007FB5
:104AA0000CD0A069002809D0A069B0F5802F05D0EE
:104AB0004FF4A371DFF88C03FEF756F8E069002885
:104AC0001AD0E069082817D0E069102814D0E069EE
:104AD000182811D0E06920280ED0E06928280BD0D2
:104AE000E069302808D0E069382805D040F2471145
:104AF000DFF85003FEF738F8206A002808D0206A53
:104B0000802805D04FF4A471DFF83803FEF72CF8A5
:104B1000606A002805D040F24B11DFF82803FEF749
:104B200023F8606A00283DD12069002808D0206958
:104B3000022805D04FF4A771DFF80803FEF714F838
:104B40006069002808D06069012805D040F24F1143
:104B5000DFF8F002FEF708F86068B0F5827F1ED13A
:104B6000E069002840D0E06908283DD0E0691028BD
:104B70003AD0E069182837D0E069202834D0E069BD
:104B8000282831D0E06930282ED0E06938282BD091
:104B900040F25311DFF8AC02FDF7E6FF24E00020FD
:104BA000E06121E0E06900281AD0E069082817D008
:104BB000E069102814D0E069182811D0E069202895
:104BC0000ED0E06928280BD0E069302808D0E069D1
:104BD000382805D040F25D11DFF86802FDF7C4FF08
:104BE00000202061002060610020A06294F8510044
:104BF000002805D1002084F850002000FEF7AFFE09
:104C0000022084F851002068006830F040002168DC
:104C10000860606810F48270A16811F404410843D0
:104C2000E16811F400610843217C11F0020108439E
:104C3000217D11F001010843A16911F400710843BD
:104C4000217F11F03801084394F8201011F0800101
:104C50000843A16A11F40051084321680860A06963
:104C6000000C10F0040021684860002060650120FD
:104C700084F85100002010BD2DE9F84306000D0016
:104C800091461C000027B068002809D0B068B0F534
:104C9000004F05D040F21131DFF8A801FDF764FFA5
:104CA00096F85000012801D10220C5E0012086F8C5
:104CB0005000FDF75BFF8046494696F851000128F9
:104CC00001D00227B0E0002D03D0484680B2002872
:104CD00001D10127A8E0032086F85100002070656B
:104CE0003563A6F83490A6F836900020B063002013
:104CF000B0870020F0870020706400203064B06826
:104D0000B0F5004F0BD13068006830F040003268D9
:104D100010603068006850F480403268106030687D
:104D20000068400605D43068006850F040003268E2
:104D30001060F068B0F5006F2ED17068002802D0C6
:104D400089B2012914D1306B00883168C860306B9A
:104D5000801C3063F08E401EF08609E0306B0088C6
:104D60003168C860306B801C3063F08E401EF08666
:104D7000F08E00283FD0306880688007EED4FDF7C1
:104D8000F5FEB0EB0800A04202D314F1010F01D1EF
:104D9000002CEDD1032747E07068002802D089B2CB
:104DA000012914D1306B007831680873306B401CD6
:104DB0003063F08E401EF08609E0306B0078316879
:104DC0000873306B401C3063F08E401EF086F08E0E
:104DD000002810D0306880688007EED4FDF7C6FE4A
:104DE000B0EB0800A04202D314F1010F01D1002C56
:104DF000EDD1032718E042462100300000F08DF885
:104E0000002801D020207065B068002808D100205B
:104E100000903068C068009030688068009000980A
:104E2000706D002800D00127012086F85100002075
:104E300086F850003800C0B2BDE8F283003001406F
:104E400000380040107000082DE9F84305000E00FE
:104E500017009846089CFDF789FEB8EB000024185F
:104E6000FDF784FE8146DFF80C0100684001000D6B
:104E700000FB04F0009006E00098002800D1002418
:104E80000098401E0090286880683040B04201D1F0
:104E9000012000E000203900C9B288423AD018F160
:104EA000010FF0D0FDF762FEB0EB0900A04201D285
:104EB000002CE1D12868406830F0E00029684860A3
:104EC0006868B0F5827F0DD1A868B0F5004F03D0B7
:104ED000A868B0F5806F05D12868006830F0400000
:104EE00029680860A86AB0F5005F0BD128680068DF
:104EF00030F40050296808602868006850F40050B9
:104F000029680860012085F85100002085F85000CC
:104F1000032000E00020BDE8F2831CB504000B0074
:104F2000144800681821B0FBF1F01349B0FBF1F10F
:104F30004FF47A70414300916068B0F5827F14D1DC
:104F40000092002280212000FFF77EFF00280FD072
:104F5000606D50F02000606503200AE00098401E5C
:104F6000009020688068000602D500980028F5D1DE
:104F7000002016BD0800002040420F0081B00F48FD
:104F8000016851F000410160016811F00041009199
:104F900000990B490A6852F001020A60096811F091
:104FA000010100910099016851F080510160006891
:104FB00010F080500090009801B0704724380240F3
:104FC0002038024000B500BF1300964694461039C1
:104FD00028BFA0E80C50FAD85FEA417C28BF0CC07B
:104FE00048BF40F8042BC90728BF20F8022B48BF50
:104FF00000F8012B00BD000010B50400002C01D109
:1050000001208DE0A06900282AD02068DFF8A811CF
:1050100088420FD02068DFF8A41188420AD02068A7
:10502000DFF89C11884205D040F26B11DFF8940143
:10503000FDF79AFDA069002827D0A069B0F5807F10
:1050400023D0A069B0F5007F1FD0A069B0F5407FE4
:105050001BD04FF4B671DFF86C01FDF785FD14E04D
:105060002068DFF8541188420FD02068DFF84C1117
:1050700088420AD02068DFF84811884205D04FF4F2
:10508000B871DFF84001FDF76FFDA068002809D076
:10509000A068B0F5805F05D04FF4B971DFF8240146
:1050A000FDF762FDE069002809D0E069B0F5004F26
:1050B00005D040F27311DFF80C01FDF755FD94F8AF
:1050C0003D00002805D1002084F83C002000FEF7B8
:1050D000BCFC242084F83D002068C06830F40050F7
:1050E0002168C860200000F0C4FB2068006930F42B
:1050F0009040216808612068406930F02A002168EA
:1051000048612068C06850F400502168C8600020E1
:105110002064202084F83D00202084F83E000020F8
:1051200010BD13B50400130094F83D00202840D1B1
:105130000198002803D0180080B2002801D1012076
:1051400038E094F83C00012801D1022032E001202F
:1051500084F83C0001982062A384E384002020644A
:10516000212084F83D000FF2BD30616B88620FF2A0
:10517000E930616BC862DFF8A803616B0863002047
:10518000616B486301A89BB221680A1D0168606BCE
:1051900000F0C8FF7FF0400021680860002084F81C
:1051A0003C002068406950F0800021684861002080
:1051B00000E0022016BD000000380140004400401D
:1051C000004800405C6E00081CB5040094F83E00E6
:1051D000202830D1002903D0100080B2002801D14E
:1051E000012029E094F83C00012801D1022023E0AD
:1051F000012084F83C000120206392B2200000F0DE
:105200001AFA0100C9B2002913D1216B01290FD16B
:105210000021009121680968009121684968009186
:1052200000992168C96851F010012268D16000E03E
:105230000120C0B200E0022016BD10B504002068B5
:10524000C06830F4F0702168C86020684069400888
:10525000400021684861206B012805D12068C068A2
:1052600030F010002168C86020684069000619D538
:105270002068406930F0800021684861606B002838
:1052800010D00020616B4863606B00F0B5FF002810
:1052900008D0606B01F07AF8202803D11020206438
:1052A00003202CE020684069400619D52068406939
:1052B00030F0400021684861A06B002810D0002029
:1052C000A16B4863A06B00F097FF002808D0A06B8B
:1052D00001F05CF8202803D11020206403200EE0A8
:1052E0000020E0840020E08500202064202084F855
:1052F0003E00202084F83D0000202063002010BDE7
:1053000038B50400206801682068C26820684369D5
:105310000020002011F00F00002807D18D0605D5D0
:10532000950603D5200000F036FAF7E0002872D089
:10533000D80702D412F4907F6DD011F00100C0B2F2
:10534000002805D0D00503D5206C50F00100206462
:10535000480708D513F00100C0B2002803D0206C24
:1053600050F002002064880708D513F00100C0B295
:10537000002803D0206C50F00400206408070AD5F0
:10538000900604D413F00103DBB2002B03D0206C91
:1053900050F008002064206C00283BD0880604D51B
:1053A000900602D5200000F0F6F9206840698009D7
:1053B00010F00100216C090701D4002825D020003D
:1053C00000F085F92068406940061AD520684069D8
:1053D00030F0400021684861A06B00280DD00FF22A
:1053E0002530A16B4863A06B00F02FFF002811D07F
:1053F000A06BA16B496B88470CE0200001F068F8B6
:1054000008E0200001F064F804E0200001F060F8FA
:105410000020206482E0206B01286FD1C8066DD582
:10542000D0066BD5002000902068006800902068AE
:1054300040680090009820684069400638D5A06B0D
:1054400000684168080080B2002830D00800A28DB2
:1054500080B290422BD2E185A06B806920281FD0BA
:105460002068C06830F480702168C8602068406996
:1054700040084000216848612068406930F04000E1
:1054800021684861202084F83E00002020632068C5
:10549000C06830F010002168C860A06B00F0ACFE5E
:1054A000A18DE08D091A89B22000FEF745F835E09C
:1054B000A08DE18D411AE08D00281ED0080080B239
:1054C00000281AD02068C06830F490702268D0603C
:1054D000206840694008400022685061202084F81C
:1054E0003E00002020632068C06830F01000226871
:1054F000D06089B22000FEF71FF80FE0080605D53E
:10550000100603D5200000F007F907E0480605D58E
:10551000500603D5200000F030F9FFE731BD000050
:10552000E155000880B5416A0068006880060ED425
:105530000020C8840868406930F080000A68506123
:105540000868C06850F040000968C86002E00800C0
:1055500000F0BFFF01BD000080B5406A00F0BAFF57
:1055600001BD80B50100486A0968096889061FD431
:105570000021C1850168C96831F480710268D16079
:10558000016849694908490002685161016849692F
:1055900031F0400102685161202180F83E10016B1A
:1055A000012905D10168C96831F010010268D16094
:1055B000016B012903D1818DFDF7BEFF01E000F0F1
:1055C0008AFF01BD80B5406A016B012905D1818D3B
:1055D000490889B2FDF7B0FF01E000F07DFF01BD91
:1055E00010B50021446A20684069C00910F001002C
:1055F00094F83D10212906D1002804D00020E08431
:10560000200000F05AF820684069800910F001007D
:1056100094F83E10222906D1002804D00020E0850D
:10562000200000F054F8206C50F01000206420009E
:1056300000F04EFF10BD13B5040013000198A062E6
:10564000A38500202064222084F83E00DFF8EC03CC
:10565000A16B8862DFF8E803A16BC862DFF8E4039E
:10566000A16B08630020A16B486301A89BB202688C
:105670002068011DA06B00F055FD002000902068FF
:10568000006800902068406800900098002084F82E
:105690003C002068C06850F480702168C8602068B1
:1056A000406950F00100216848612068406950F06D
:1056B000400021684861002016BD0168C96831F0CA
:1056C000C0010268D160202180F83D107047016858
:1056D000C96831F490710268D1600168496949086C
:1056E000490002685161016B012905D10168C9684F
:1056F00031F010010268D160202180F83E100021B5
:105700000163704780B5406A0021C1850021C184D2
:1057100000F0DEFE01BD000090F83D1021292AD1E5
:105720008168B1F5805F0CD10169002909D1016A56
:105730000988C905C90D02685160016A891C0162A6
:1057400005E0016A4A1C0262097802685160C18C56
:10575000491EC18489B200290BD10168C96831F0A2
:1057600080010268D1600168C96851F04001006899
:10577000C160002000E00220704780B50168C96860
:1057800031F040010268D160202180F83D1000F026
:10579000A0FE002002BD80B590F83E10222966D1FF
:1057A0008168B1F5805F0DD1016900290AD100211E
:1057B000816A02685268D205D20D0A80816A891C0A
:1057C000816217E0826A00218168B1F5805F05D0AF
:1057D0008168002906D10169002903D1016849685F
:1057E000117004E00168496811F07F011170816A4D
:1057F000491C8162C18D491EC18589B2002934D1FD
:105800000168C96831F020010268D1600168C96887
:1058100031F480710268D160016849694908490022
:1058200002685161202180F83E10016B012918D1D6
:10583000002101630168C96831F010010268D1607C
:1058400001680968C90608D5002100910168096846
:1058500000910168496800910099818DFDF76CFE07
:1058600001E000F038FE002002E0002000E002200D
:1058700002BDF8B5040060687349884204D340F65D
:105880004A616D48FDF770F9E068002808D0E068CB
:10589000B0F5005F04D040F64B616748FDF764F94E
:1058A000206900280CD02069B0F5806F08D02069ED
:1058B000B0F5C06F04D040F64C615F48FDF754F975
:1058C00060694FF6F371084202D16069002804D183
:1058D00040F64D615848FDF747F92068016931F4F9
:1058E0004051E068014320680161A16820690143DB
:1058F00060690143E06901432068C268534802407F
:1059000011432068C1602068416931F44071A06989
:1059100001432068416120684649884202D1FCF772
:105920009FFE01E0FCF791FEE169B1F5004F40D127
:105930006421192202FB00F365686D00B3FBF5F3E7
:105940006425B3FBF5F302FB00F566687600B5FB52
:10595000F6F502FB00F667687F00B6FBF7F66427F2
:10596000B6FBF7F601FB1655ED0032356426B5FBA4
:10597000F6F56D0015F4F87515EB031502FB00F351
:1059800066687600B3FBF6F3504362685200B0FBE2
:10599000F2F06422B0FBF2F001FB1031C8003230AB
:1059A0006421B0FBF1F010F0070045192068856014
:1059B0003EE06421192202FB00F36568AD00B3FBF1
:1059C000F5F36425B3FBF5F302FB00F56668B6005A
:1059D000B5FBF6F502FB00F66768BF00B6FBF7F60D
:1059E0006427B6FBF7F601FB16552D013235642608
:1059F000B5FBF6F515F0F00515EB031502FB00F30A
:105A00006668B600B3FBF6F3504362689200B0FBE1
:105A1000F2F06422B0FBF2F001FB103108013230E9
:105A20006421B0FBF1F010F00F004519206885608B
:105A3000F1BD0000003801405C6E000863550008AD
:105A4000C5550008E155000801093D00F369FFFF55
:105A500062F30F2262F31F42401810F0030308D0D4
:105A6000C91A1FD3DB0748BF00F8012D28BF20F853
:105A7000022D130030B414461546103928BF20E912
:105A80003C00FAD8490728BF20E90C0048BF40F87D
:105A9000042D890028BF20F8022D48BF00F8012DF1
:105AA00030BC7047C91818BF00F8012DCB0728BFBC
:105AB00000F8012D7047000010B50400002C01D142
:105AC000012082E02068B0F1804F28D02068DFF804
:105AD000FC10884223D02068DFF8F41088421ED0E2
