:020000040800F2
:10000000C00C002061710008296C00082B6C0008EE
:100010002D6C00082F6C0008316C000800000000F7
:10002000000000000000000000000000336C000829
:10003000356C000800000000376C0008396C0008BF
:10004000D1710008D5710008D9710008DD71000870
:10005000E1710008E5710008E9710008ED71000820
:10006000F1710008F5710008F9710008FD710008D0
:10007000536C0008017200085D6C0008676C000892
:1000800005720008097200080D720008117200085C
:1000900015720008197200081D720008217200080C
:1000A0000000000025720008297200082D72000867
:1000B0003172000835720008397200083D7200087C
:1000C0004172000845720008497200084D7200082C
:1000D00051720008496C00085572000859720008F6
:1000E0005D7200087B6C000861720008716C00088A
:1000F000657200082DE9F0439FB000BF65A6269CFD
:10010000DFF8E88A8DF83B40029100240B944FF011
:10011000FF37044691461D460AE019F8011B029874
:10012000A0470028029000F0A1800B98401C0B9083
:1001300099F8000050B12528EFD100210022059147
:1001400006920791089209910A9203E00B98A5E0A4
:1001500041F0010119F8010F2028F9D023280CD013
:100160002B2804D02D2805D0302809D080E041F07C
:100170000201EFE741F00401ECE741F00801E9E793
:1001800041F01001E6E70D920AE00D98404505DACE
:1001900000EB800002EB4002303A0D9209F10109B8
:1001A00099F80020A2F130000A28EED399F8000057
:1001B0002E2818BF0C9726D119F8010F2A2808D12C
:1001C0002868286009F1010950F8042B28600C9276
:1001D00019E02D280CBF09F10109002000220C9222
:1001E0000BE040B90C9A424505DA02EB820203EBC0
:1001F0004203303B0C9309F1010999F80030A3F157
:1002000030020A2AEDD3ADF83810304699F80010C4
:1002100000F0A0FE08B119F8010B8DF83A009DF826
:100220003A00682805D199F8000068280CD16221AD
:1002300006E06C2804BF99F800006C2804D17121F5
:100240008DF83A1009F1010910A804902A4619F80E
:10025000013B6946204600F061F838B910AA6946AA
:10026000204600F091F900287FF562AF384615E08E
:100270002A2888D12A682A6052F8040B2A600028AC
:100280000D9003D540420D9041F0040109F10109A0
:100290008CE70000686A6C747A4C00001FB0BDE8FF
:1002A000F083622820D0682811D06A2803D06C28F7
:1002B00027D0712825D10868C01D20F007000860EC
:1002C000D0E9002308300860194610467047002A1C
:1002D0000A680A60106803D0121D0A6000B217E0B5
:1002E000121D0A6080B217E0002A0A680A601068CE
:1002F00003D0121D0A6040B20AE0121D0A60C0B2AB
:100300000AE0002A0A680A60106803D0121D0A6019
:10031000C1177047121D0A600021704770B51C4656
:100320000D46B4F125002E69114600F01B811C38E2
:100330006AD0001F022867D9133843D0093863D028
:10034000801E16D0401E1ED0401E02285CD9001F01
:1003500019D0401F00F08380401E33D0401E00F0B3
:10036000CD80C01E00F0DC80801E2BD0C01E29D0A6
:10037000FEE06869421C6A610A680A6052F8043B40
:100380000A603354FEE095F83A000122FFF789FF36
:10039000C5E900010023994204DA6869411C6961DA
:1003A0002D220DE0288F810704D56869411C696101
:1003B0002B2205E0C00722D56869411C6961202213
:1003C00032541CE095F83A000022FFF76AFFC5E9B5
:1003D000000195F83800010711D5D5E90023002068
:1003E000834208BF82420AD044F02000782806D118
:1003F000686930213154401C421C6A6134542146E2
:1004000068693044E86087E00868C01D20F0070094
:100410000860D0E9002308300860C5E90023D5E969
:100420000001C80F04D06869411C69612D220DE0EC
:10043000288F810704D56869411C69612B2205E07A
:10044000C00704D56869411C69612022325468697B
:100450003044E8602146284600F0C8F992E005F1F2
:100460003A02507820B14FF0FF340FF6502062E08E
:100470001078622808D0682824D06A2812D06C2806
:100480002ED071280ED02BE00A680A6052F8040BB7
:100490000A6020B94FF0FF340FF638204BE0E96ACC
:1004A00001706FE00A680A6052F8040B0A6020B914
:1004B0004FF0FF340FF61C203DE0EA6AD317C0E985
:1004C00000235FE00A680A6052F8040B0A6020B952
:1004D0004FF0FF340FF6FC102DE0E96A018051E087
:1004E0000A680A6052F8040B0A6020B94FF0FF3422
:1004F0000FF6E0101FE0E96A016043E00A680A6055
:1005000052F8040B0A60002120F0000221F0FF33B2
:10051000C5E90023EE607821284600F0BBF831E001
:100520000868086050F8044B0860EC603CB94FF074
:10053000FF340FF6B81000F01DFD201A70BD2E6BB1
:10054000002E04D5204600F035FD044608E0324672
:100550000021204600F04AFD002814BF041B344649
:10056000AC610FE06869411C69612522325409E0E1
:100570006969481C686125227254210002D0431C1D
:100580006B613454002070BD2DE9FC410F460646D6
:1005900090467A6B7869396ABC6A121AB869521A3D
:1005A000796A121AF869521A121A97F83800141B4D
:1005B00041070FD42020002C8DF800000ADD2546CD
:1005C00001236A463946304600F060FC00285DD1C0
:1005D0006D1EF5D17B6942463946304600F056FC27
:1005E000002853D130208DF800003D6A002D09DD30
:1005F00001236A463946304600F048FC002845D1C0
:100600006D1EF5D1BB69FA683946304600F03EFCF4
:1006100000283BD130208DF800007D6A002D08DDD8
:1006200001236A463946304600F030FC70BB6D1E2F
:10063000F6D1F868B969FB6942183946304600F0CE
:1006400025FC18BB30208DF80000BD6A002D08DDA8
:1006500001236A463946304600F018FCB0B96D1ED9
:10066000F6D197F8380041070DD52020002C8DF8E1
:10067000000008DD01236A463946304600F006FCDA
:1006800020B9641EF6D10020BDE8F6814FF0FF309E
:10069000BDE8F6812DE9FC4707468C463E69BCF172
:1006A0006F0F08BF082405D04CF02000782814BF35
:1006B0000A2410243C25D7E90023BCF1640F18BF9D
:1006C000BCF1690F9046994606D100218B4203DAAE
:1006D000D8F1000869EB49094FF0000AD14508BF7D
:1006E000D0451FD1386BE8B9082C4BD197F83800AA
:1006F000010747D530203B2586F83B0042E0002823
:100700000ED597F8380000F01400102808D17B6B44
:100710007969386A5B1A1B1A9A1A002AC8BF3A62AA
:10072000BDE8F3878DF800C0404649462246E317EE
:1007300000F088FC3032D0B26D1E3A28019504DBFF
:100740009DF80000A0F151018A18725540464946B3
:100750002246E31700F076FC89468046D14508BF63
:10076000D04503D0F86871198842DDD3082C09D12F
:1007700097F83800010705D5705D302802D06D1E4E
:1007800030207055C5F13C02BA617119F960386BBF
:100790008242B4DA821A3A624FF6EF70398F014022
:1007A0003987BDE8F3872DE9D04306460F46144646
:1007B0004FF00008DFF8389412E0E00707D5424612
:1007C0004B463046394600F055FD06460F4640463A
:1007D000494642464B4600F04DFD6410804689462E
:1007E000002CEAD130463946BDE8D0832DE9F34FDD
:1007F000054641F020048DB0D5E90089612C02AE98
:1008000009D0286B002848BF062003D408BF672CF6
:1008100001D101202863D5E9002358004015401C70
:100820000ED119030CD00320A8619DF8381061394E
:100830001A2902D20FF2D06111E00FF2D0610EE05E
:1008400059004915491C0FD118030DD10320A86187
:100850009DF8381061391A2914D30FF2B861E8688D
:10086000032200F0D9FDD3E1194621F00043B3F58E
:10087000801F10460DD20027BB4208BFBA42019725
:1008800003D111E00FF28861E9E701AA00F018FE38
:100890000AE0DFF8607307EB1352DFF85C33019274
:1008A0001940DFF858331943C5E90001612C0ED116
:1008B000E86830210170821CEA609DF838106129D7
:1008C0000CBF7821582141706869801C6861D5E9A6
:1008D00000AB2BF0004300202AF00002834204BF4B
:1008E0008242002300F05B81612C40F0AA80286BDB
:1008F000002847BF21210091401C0090009F7F1CD1
:10090000404649460022002300F012FED9460199D4
:100910008DF8082038BF89F00049091F002FD04604
:1009200001910DF1090040F34981B349DFF8D0B2DC
:100930000C910646404649460022002300F010FE76
:1009400080F03B814800400D00F11C0211D0002ACC
:100950000FDD40F2FF70824205DB09F0004040EA03
:100960000B01002013E00C98014041EA025140467F
:100970000DE029F00043002028F00002834208BF68
:1009800082420FBF40461C22404600F001FE8046D6
:10099000894600F09BFEFF1F002F044609DD00F092
:1009A000B3FE02460B464046494600F0BFFE804675
:1009B0008946F01D072104E004F00F0200F8012D24
:1009C0002411002C01DD491EF6D5491E5CBF002212
:1009D00000F8012DF9D5ECE00020194602AA0A44DE
:1009E00000E05B1E12F80149491E8442F9D00F282D
:1009F00004D10DF10900425C521C4254002904D577
:100A00000198001D02AE5B1C0190591E12D49DF886
:100A100038007218A0F13A07147804F130085FFA30
:100A200088F43A2CA8BFB844491E02F80189F3D5CE
:100A30008DF83800286B002840F1B080591E2963DA
:100A4000ACE0404649460022002300F071FD0199C8
:100A500038BF89F0004947F297504143694A91FBFA
:100A6000F2F20192D2F1070204DD40464946FFF757
:100A70009AFE0AE0524200206349FFF794FE0246C4
:100A80000B464046494600F0C3FE8046662C286B64
:100A9000DFF878B106BF019F0A3706273F18142FE9
:100AA000C8BF142730208DF8080089460DF10900D1
:100AB00000E03046002F34DD06464046494600F04F
:100AC000CBFF01460A4606F1080304200A26B2FBC2
:100AD000F6F606EB860EA2EB4E02303203F8012C3E
:100AE0000A22B6FBF2F202EB820EA6EB4E0630367D
:100AF000401E03F8026DE9D1083F002F03F10806FC
:100B0000D7DD084600F0BCFF02460B46404649468A
:100B100000F00CFE00225B4600F0ACFB80468946EC
:100B2000CBE70DF10901401A0DF1090604E0019926
:100B3000491E401E0191761C31783029F7D0662C71
:100B400002D10199491C03E0652C0CBF0121002151
:100B50002B6BCB189842B8BF431E002B1ED4834288
:100B600004DAF05C3528A8BF392000DA30201946B5
:100B7000721E02EB010800E05B1E18F80199491E85
:100B80008145F9D0392802D1705C401C705400298D
:100B900004D50198401C16465B1C0190019800B2D8
:100BA00000901BB29DF838103246284600F034F809
:100BB0002EE0C61D002F3FF7BDAE30460DF10901F6
:100BC000401A009903468842C8BF0B46002B0DF11E
:100BD00009063FF52FAF8342BFF6FEAE0DF10900C7
:100BE000C15C07297FF7F8AE0F20F6E6CBCCCC0C22
:100BF0000000244002FCFFFFFFFF0F800000E03FE9
:100C00000000F07FA08601000000F03F84D79741EC
:100C10000FB0BDE8F08F00002DE9F84783B006461D
:100C20008A461746984600F039FFB8F1000F406A2F
:100C3000356B90F8009002DC4FF00108B6A74AF03F
:100C40002000BDF93040662808BF641C15D0672815
:100C500040F0848014F1040FC0F28680AC4280F230
:100C6000838096F83800641C010702D4A845B8BFF9
:100C7000454620B22D1A48BF00250FFA84FAF068C5
:100C8000B169BAF1000F25DC4A1C30234354002D12
:100C900003DC96F83800010703D5F06800F80290ED
:100CA000521C15EB0A0FB8BF6C4220B244194142E6
:100CB0004445B8BFA046B26171620FFA88F5F5618C
:100CC000F068B3692A463946184400F0A5FB641B56
:100CD000B462C4E022B29045084417DA424639466D
:100CE00000F09AFBB0694044B061AAEB0801002D06
:100CF000716203DC96F838100A0705D5F16801F82F
:100D00000090F069401CF061B562A8E0394600F03F
:100D100083FBB069002D5044A8EB040803DC96F86F
:100D200038100A0703D5F16801F80090401CB06143
:100D30000FFA88F08542F368B069B8BFA8460FFA89
:100D400088F207EB0A01184400F066FBB1690FFA5C
:100D500088F00144B161281A706280E0BAF1610F35
:100D600014D14FF0700A16E0A84504DA96F838104E
:100D70000A0758BF45466D1E48BF0025BAF1670FE8
:100D800014BF4FF0450A4FF0650A04E0BAF1410F75
:100D900008BF4FF0500AB169F368481CB061002DDC
:100DA00017F8012B5A5403DC96F838100A071BD5A4
:100DB000F168431CB36101F80090002D14DDA8F127
:100DC00001080FFA88F039468542F768B8BFA8468F
:100DD0000FFA88F2F81800F01FFBB0690FFA88F1DB
:100DE00008446D1AB0617562F068B1690844002C5E
:100DF00080F800A003D42B224270811C03E02D2137
:100E000041706442811C00206A460AE023460A249D
:100E100093FBF4F404EB8405A3EB450302F8013BD8
:100E2000401C24B2002CF1DC012806DC4AF0200230
:100E3000652A04BF302201F8012B48B9302001F89F
:100E4000010B07E0401E1DF80030303301F8013B74
:100E50000028F7DCF268B0691044091AF16196F8CD
:100E6000380000F0140010280DD17269B169706A61
:100E70008A18F1698218B06A8A188218706B8242E7
:100E8000BCBF821A326204B0BDE8F087F8B50546EF
:100E90000E4617461C46002074B117F8011BB068B7
:100EA000A847B06030B1F06A401CF0620020641EB8
:100EB000F3D1F2BD4FF0FF30F2BD00007072696EE9
:100EC00074665F733A20256E20646973616C6C6F81
:100ED000776564007072696E74663A20626164209E
:100EE000256E20617267756D656E74007072696E33
:100EF00074665F733A2062616420257320617267B3
:100F0000756D656E740000006E616E004E414E009E
:100F1000696E6600494E4600300030B4002513E08B
:100F200050F8042BD30744BFA9F101039A18091FF5
:100F3000042942F8045BFAD213468C0744BF15809B
:100F40009B1CC90748BF1D7050F8041B0029E7D13E
:100F500030BC70470278C9B28A421AB11CBF10F87F
:100F6000012FF9E718BF002070470268531C036087
:100F70001170704780B500B906A005490B681BB118
:100F800022220021984701E000F08CFD222002BDC2
:100F9000AC040020636F6E73747261696E742068B4
:100FA000616E646C65723A20626164206D65737372
:100FB0006167650000F10103810704D010F8011B8F
:100FC000820781B1FAD10268A2F10131914311F097
:100FD000803104BF50F8042FF6E709BAB1FA81F165
:100FE00000EBD100401CC01A70470000C9B2830753
:100FF00006D0521E22D310F8013B9942F7D11FE0D0
:10100000083A13D302F1040241EA012141EA014105
:1010100050F8043B121F21BF4B40A3F1013C2CEAC6
:10102000030C1CF0803FF3D0C9B2001F083210F847
:10103000013B521E28BF91EA030FF8D818BF0120C8
:10104000401E7047BBBBE1B1B2F5803F80F07E80AF
:10105000022A1ED98C46B1FBF2F102FB11C31B041C
:1010600043EA1043B3FBF2FC02FB1C3380B240EABC
:101070000343B3FBF2F002FB103240EA0C400023C2
:101080007047022A05D98446B0FBF2F002FB10C279
:1010900070474AB105D100F0010249085FEA30000B
:1010A000704700220023704700F000BD0B000200D3
:1010B000002100207047904271EB030CF6D3B3F58A
:1010C000803F2FD2F0B5B3FA83F7B1FA81F4A7F1DC
:1010D0000F0E3D1B5340CEF1200602FA0EF2F341F3
:1010E0005340B5F10F0746D80F3C2C444140C4F1A2
:1010F0002006A040F1414140B1FBF3F603FB16117D
:10110000A2FB0645001BA94102D2761E8018594158
:1011100080EA010221FA0EF362FA0EF200215A402F
:101120003046F0BD30B4B1FBF3FC03FB1C11A2FB55
:101130000C45001BA94103D2ACF1010C80185941A8
:1011400030BC02460B46604600217047B2F1807FFA
:1011500065D3F0B5B2FA82F7B1FA81F4C7F10F06A0
:101160003D1B22FA06F307F1110EF24120355A40D9
:10117000B5F10F07B8D94140C4F12006A040F141B4
:101180004140B1FBF3FC03FB1C11A2FB0C45001B0F
:10119000A94103D2BCF1010C801859410F2F12D381
:1011A0000F3FC90341EA5041B1FBF3F603FB1611AF
:1011B000A2FB0645D4EBC030A94102D2761E8018AE
:1011C000594146EACC3C07B34140C7F12006B8403C
:1011D000F1414140B1FBF3F603FB1611A2FB0645BA
:1011E000001BA94102D2761E8018594180EA0102F3
:1011F00021FA0EF3C7F1200462FA0EF20CFA07F09E
:101200005A402CFA04F13043F0BD80EA010221FA81
:101210000EF3002162FA0EF260465A40F0BD8C4691
:10122000B1FBF2F102FB11C31B0243EA1063B3FBF3
:10123000F2FC02FB1C331B024CEA002043EA106361
:10124000B3FBF2FC02FB1C331B024CEA002043EA16
:101250001063B3FBF2FC02FB1C331B024CEA0020C0
:1012600043EA1063B3FBF2FC02FB1C324CEA0020A1
:1012700000237047B0B581EA030C0CF0004C40F23B
:10128000FF7515EA11541DBF15EA1357AC42AF4262
:1012900039E0E41923EA455343F48013C90241F0CD
:1012A000004141EA505EC7021100A7FB020200287C
:1012B0004FF00000EEFB01204FF00001E3FB07219F
:1012C00018BF42F00102401800214941E3FB0E0122
:1012D000A4F580640F0302D252004041494154F109
:1012E00001046CDD470872F1004250F1000051EB3F
:1012F0000451A1F580115CBF41EA0C01B0BD4CEA7C
:1013000005510020B0BD05EA1357AC4214BFAF42EF
:1013100041E050EA410E1CBF52EA430E02E0614632
:101320000020B0BD24423C441BD15FEA070EF6D03A
:10133000090302BF01460020AEF1140EB1FA81F795
:10134000AEEB070401FA07FE0C37C7F1200100FAE3
:1013500007F7C8404EEA000E23EA455343F48013D2
:10136000A2E733F00043B3FA83F704BFB2FA82FE78
:1013700077440B3FE41BB7F1200E2FBF02FA0EF3A8
:10138000BB40C7F1200E22FA0EFE38BF43EA0E031F
:10139000BA40641C82E750EA410E14BF52EA430E81
:1013A0006FF000014FF4001717EB430F8ABF194687
:1013B00017EB410FB5E74CEA05510020B0BDD4F161
:1013C0000104B4F120070FDAC4F12007520828BF46
:1013D00042F0010210FA07F501FA07F7E1BF2A43CC
:1013E000E0403843E1400FE0352C98DCC7F12004A1
:1013F00052EA400220FA07F218BF42F0010231FA25
:1014000007F0A1400A43002172F1004250F10000B0
:1014100051EB0C01B0BD000062B38B0708D0521E27
:1014200011F8013B00F8013B00F024808B07F6D156
:10143000830740F0208000BF103A07D330B4B1E8F2
:101440003810103AA0E83810F9D230BC530724BF46
:10145000B1E80810A0E8081044BF51F8043B40F878
:10146000043BD20724BF31F8022B20F8022B44BFE3
:101470000B7803707047121F17D35B0009D151F826
:10148000043B20F8023B1B0C121F20F8023BF6D253
:101490000BE051F8043B00F8013B1B0A20F8023B2B
:1014A0001B0C121F00F8013BF3D238BF121D521E55
:1014B00024BF11F8013B00F8013BF8D87047000049
:1014C00010B5144600F002F8226010BDC1F30A53B3
:1014D00043B14A0012F5001F28D2A3F2FE32A1EB5D
:1014E0000251704750EA410C20D001F0004C31EA23
:1014F0000C01B1FA81F204BFB0FA80F3D2180B3AB2
:10150000B2F120032CBF00FA03F1914041EA0C0133
:101510003EBFC2F1200C20FA0CF319439040524216
:1015200040F2FD33D21A01EB03517047002270479D
:101530004FF4001C1CEB410F94BF1CEB430F09E060
:1015400041EA030C50EA4C0C52EA0C0C03D29942CB
:1015500008BF9042704714BF8B4282427047000020
:101560004FF4001C1CEB410F94BF1CEB430F09E030
:1015700041EA030C50EA4C0C52EA0C0C03D28B42A9
:1015800008BF8242704714BF9942904270470000E2
:10159000124254D440F2FF7C1CEA11530FD0634531
:1015A00031D09B1863453CBF01EB0251704701F0FD
:1015B000004141EA0C510020AFF30080704750EA2F
:1015C000410320D001F0004C91EA0C011CD0B1FA8B
:1015D00081F30B3B9A420DD9D21A994051EA0C0182
:1015E000C3F1200C20FA0CFC61449840531C40F2DB
:1015F000FF7CD7E7914041EA0C01C2F1200C20FAB0
:101600000CF3194390407047B0FA80F31533202B48
:10161000E0D3202AEED3203A203B9A4209D9D21AAD
:1016200000FA03F141EA0C010020531C40F2FF7C58
:10163000B8E700FA02F141EA0C010020704752427B
:1016400040F2FF7C1CEA11530DD06345DBD0B2EBB6
:10165000030C3CBFA1EB025170470CF1010221EADF
:10166000035141F4801150EA410CCCD001F0004C00
:10167000352A27DC30B481EA0C01B2F1200309DA03
:10168000C2F12003044601FA03F5D0402843D140BB
:101690009C400CE0C3F12002450020FA03F418BF7F
:1016A00044F0010421FA03F091400C43002174F14D
:1016B000004550F1000051EB0C01244230BC7FF496
:1016C0007BAF70476146002076E70000C1F30A5304
:1016D00040F2FE329B1A14DDD3F120034FEAE1728F
:1016E00008DDC90241EA505141F00040D84080185D
:1016F0005040704703F2E13010B1D24382F0004015
:101700007047002070470000C11768B14840401A78
:10171000B0FA80F29040D21CC907C2F5846241EA57
:10172000025202EBD02140057047000070B44FF028
:10173000004591EA030F40F1BB816B40841A71EBC5
:10174000030603D2001BB141121973414FF4001C70
:101750001CEB410F34BF7CEB430442E00C0DA4EBC7
:101760001356352E4FDC45EAC323DB0A45EAC12177
:10177000C912B6F120050DDD63FA05F6EB4086EAE5
:101780000305124218BF45F00105C01851F10001D0
:101790000CD213E062FA06F5F2405540F3415A408C
:1017A000B340F3405A408018594107D349085FEAD3
:1017B00030005FEA350528BF45F0010501F58011CD
:1017C000420875F1004250F1000041EB04514E0017
:1017D00016F5001F70BC38BF70470020090D0905C1
:1017E00070471CEB410F10D252EA43060BD0BCEB02
:1017F000410F05D80C0DAB43661E342EB6DD02E05A
:10180000AB438018594170BC704770BC70470000F2
:10181000F0B540F2FF7581EA030C0CF0004C15EABC
:1018200011541DBF15EA1357AC42AF42E5E0BC416D
:10183000C1F31301C3F31303801A994143F48013D6
:1018400004D2641E4000494180185941C90241EA4E
:101850005051B1FBF3F603FB1611A2FB0675D7EB53
:10186000C020A94102D2761E80185941C90241EA1E
:101870005051B1FBF3FE03FB1E11A2FB0E75D7EB1B
:10188000C020A94103D2AEF1010E8018594189024E
:1018900041EA9051760546EA8E2EB1FBF3F603FB42
:1018A0001611A2FB0675D7EB8020A94102D2761E45
:1018B00080185941C90241EA50514EEA060EB1FB67
:1018C000F3F603FB1611A2FB0675D7EBC020A94166
:1018D00002D2761E80185941C90241EA5051B1FB2B
:1018E000F3F703FB1711A2FB0735D3EBC020A94187
:1018F00067F100070CBF004247F0010766F3D527E8
:101900004FEA1E31B80814F5806412DDBD0775F189
:10191000004250EB0E5051EB045111F5801F5CBF9B
:1019200041EA0C01F0BD4CF07F6141F0E041002044
:10193000F0BDBD076D0840EA0E5041F48011D4F1AE
:101940000104B4F120060ADAC4F120060200E040E6
:1019500001FA06F3E1401843B24015430EE0342C7F
:1019600013DCC6F1200445EA40056D0820FA06F2B2
:10197000154321FA06F0A1400D43002175F1004204
:1019800050F1000051EB0C01F0BD00205FEA0C01AA
:10199000F0BDCFB992185B41B3FA83F704BFB2FA36
:1019A00082F6BF190B3FB7F120062FBF02FA06F3EC
:1019B000BB40C7F1200622FA06F638BF3343BA40CF
:1019C0001CB1E419641E33E77F4231F00041B1FAE3
:1019D00081F404BFB0FA80F6A4190B3CB4F12006E0
:1019E0002FBF00FA06F1A140C4F1200620FA06F646
:1019F00038BF3143A0403C1B1AE7AC421ABF05EA8E
:101A00001357AF4212E050EA41061CBF52EA4306A8
:101A1000BFE750EA4107304661461CBF41EA055125
:101A2000F0BD52EA430C08BFC143F0BD00204FF4A3
:101A3000001616EB410F98BF16EB430F08BF16EBCD
:101A4000410F24BFC14305E016EB430F0CBF6146B5
:101A50004CEA0551F0BD0000400D491840EA8120D4
:101A60000CD2490DA1F58061491C40F0004005DB16
:101A7000D1F11F0154BFC840C01770470020704704
:101A8000014648B1B0FA80F18840C91CC1F58461B3
:101A9000090501EBD0214005704700000048704760
:101AA0000C000020012000F0B9B8000070470000D1
:101AB000841A71EB030604D26E40001BB141121967
:101AC00073414FF4001C1CEB410F34BF7CEB430609
:101AD00083E00C0DA4EB1356362E00F37C80012E10
:101AE00045EAC32341DC43EA525312BFD2029202B9
:101AF0005B08240545EAC12141EA5051D2EBC020E0
:101B0000994125D407D1B0FA80F610FA06F162D0D7
:101B10000020203608E0B1FA81F6B140C6F120027B
:101B200020FA02F21143B0404FEAF474B4EB465489
:101B300034F001064FEA74040AD8D6F50016760D83
:101B400004F00044F04061FA06F25040F140484091
:101B5000C00A40EA415021F0004128BF5FEA500529
:101B600050F1000044EBD12135E0DB0A45EAC12108
:101B7000C90AB6F120050EDD42EA0242120CC5F197
:101B8000200603FA06F6EB4042EA06056D4298414C
:101B900061F100010DE062FA06F5F240554063FA8A
:101BA00006FC82EA0C02F3405A406D42904161EB20
:101BB000030111F4801F05D1641E620502D06D007F
:101BC0004041494121F48011430875F1004350F12F
:101BD000000041EB045170BC70471CEB410F15D263
:101BE00023F0004352EA43060BD04FEA4C0CBCEB07
:101BF000410F04D80C0D661E342EB7DDEBE7801ABA
:101C0000994150EA410608BF0021E4E708BF1CEBF8
:101C1000430F28BF6FF00001DDE7000080B5AFF390
:101C20000080024A11001820ABBEFBE7260002002C
:101C30002DE9FC470400002C01D1012077E3206846
:101C4000002809D0207810F01F0F05D14FF4A8719B
:101C5000DFF8280A01F02CF8DFF874793D6815F0F8
:101C60000C053E6816F480362078C00772D560688F
:101C700000280BD06068012808D06068052805D0CE
:101C800040F25911DFF8F40901F012F8082D04D0E0
:101C90000C2D0CD1B6F5803F09D1DFF83009006872
:101CA000800357D56068002854D101203FE3606865
:101CB000012806D1DFF81409016851F48031016070
:101CC00025E0606800280AD1DFF80009016831F4D6
:101CD00080310160016831F48021016017E06068A3
:101CE00005280AD1DFF8E408016851F48021016079
:101CF000016851F48031016009E0DFF8D008016823
:101D000031F480310160016831F480210160606844
:101D100000280FD000F0CEFF8046DFF8B008006842
:101D2000800317D400F0C6FFB0EB08006528F4D399
:101D30000320FCE200F0BEFF8046DFF89008006858
:101D4000800307D500F0B6FFB0EB08006528F4D398
:101D50000320ECE2207880072DD5E068002808D029
:101D6000E068012805D04FF4C671DFF8100900F0D3
:101D70009FFF2069202805D340F28D11DFF8FC0871
:101D800000F096FF042D03D00C2D25D1002E23D179
:101D9000DFF838080068800704D5E068012801D022
:101DA0000120C4E2DFF82008016831F4F85122690B
:101DB00051EA022101602078C00640F11481002D13
:101DC00040F0B580DFF804080068800537D5A069C9
:101DD000002834D10120AAE2E06800281CD00120AC
:101DE000DFF89C18086000F065FF0600DFF8DC07EC
:101DF0000068800706D400F05DFF801B0328F5D340
:101E0000032094E2DFF8C007016831F4F851226939
:101E100051EA02210160CEE70020DFF86418086073
:101E200000F048FF0600DFF8A40700688007C2D56D
:101E300000F040FF801B0328F5D3032077E2E06920
:101E4000B0F5807F05D340F2D711DFF8300800F0FD
:101E50002FFF206A00281DD0206AB0F5005F19D03E
:101E6000206AB0F5804F15D0206AB0F5C04F11D070
:101E7000206AB0F5004F0DD0206AB0F5204F09D090
:101E8000206AB0F5404F05D04FF4EC71DFF8EC0755
:101E900000F00EFFDFF83067306810F46040216A10
:101EA000884230D2206A00F0EDFB002801D00120EA
:101EB0003DE2316831F46041206A014331603068AD
:101EC00020F07F40E16950EA016030600121206A22
:101ED000400B401C81404FF400404143DFF8240890
:101EE0003A68C2F30312805CC140DFF8E806016083
:101EF000DFF8E406006800F0E3FE0100C9B2002943
:101F000071D0C0B213E2316831F46041206A0143FC
:101F10003160306820F07F40E16950EA0160306054
:101F2000206A00F0AFFB0028D0D00120FFE1A069BB
:101F3000002808D0A069012805D04FF40271DFF80D
:101F40003C0700F0B5FEA069002871D00120DFF841
:101F5000B817086000F0AEFE0600DFF870060068F3
:101F6000800506D400F0A6FE801B0328F5D30320CD
:101F7000DDE1E069B0F5807F05D34FF40771DFF84C
:101F8000FC0600F095FE206A00281DD0206AB0F5FE
:101F9000005F19D0206AB0F5804F15D0206AB0F5E7
:101FA000C04F11D0206AB0F5004F0DD0206AB0F5B7
:101FB000204F09D0206AB0F5404F05D040F21D21D6
:101FC000DFF8B80600F074FEDFF8FC150A6832F49A
:101FD0006042206A02430A60086820F07F40E2699C
:101FE00050EA026008602078000747D56069002841
:101FF00008D06069012805D04FF40F71DFF87C0626
:1020000000F056FE6069002825D00120DFF8FC169C
:10201000086000F04FFE0600DFF85C0600688007ED
:102020002CD400F047FE801B0328F5D303207EE16B
:102030000020DFF8D416086000F03CFE0600DFF850
:102040008C0500688005CED500F034FE801B032887
:10205000F5D303206BE10020DFF8B016086000F034
:1020600029FE0600DFF810060068800706D500F09C
:1020700021FE801B0328F5D3032058E12078400778
:1020800040F19C805FF00008A06800280BD0A06899
:10209000012808D0A068052805D04FF41A71DFF890
:1020A000DC0500F005FEDFF868663068C0000AD481
:1020B000306850F080503060306810F080500090F0
:1020C00000985FF00108DFF84C96D9F80000C005D1
:1020D00014D4D9F8000050F48070C9F8000000F062
:1020E000E9FD8246D9F80000C00507D400F0E2FD02
:1020F000B0EB0A006528F5D3032018E1A068012899
:1021000006D1DFF87405016851F48071016025E0A3
:10211000A06800280AD1DFF86005016831F48071F9
:102120000160016831F48061016017E0A068052852
:102130000AD1DFF84405016851F48061016001684B
:1021400051F48071016009E0DFF82C05016831F479
:1021500080710160016831F480610160A06800282D
:1021600011D000F0A7FD8146DFF80C05006880055E
:102170001BD400F09FFDB0EB090041F28931884289
:10218000F2D30320D3E000F095FD8146DFF8E804A8
:102190000068800509D500F08DFDB0EB090041F223
:1021A00089318842F2D30320C1E05FFA88F8B8F1A0
:1021B000010F03D1306830F080503060606A002831
:1021C0000BD0606A012808D0606A022805D04FF45D
:1021D0002B71DFF8A80400F06BFD606A002800F0A6
:1021E000A5800C2D00F08B80606A022874D1A06A53
:1021F000002809D0A06AB0F5803F05D040F2B52193
:10220000DFF8780400F054FDE06A002825D0E06A89
:10221000B0F5802F21D0E06AB0F5002F1DD0E06A24
:10222000B0F5402F19D0E06AB0F5801F15D0E06AF4
:10223000B0F5A01F11D0E06AB0F5C01F0DD0E06A64
:10224000B0F5E01F09D0E06AB0F5001F05D040F2FC
:10225000B621DFF8280400F02BFD206BB0F5800FCD
:102260000DD0206BB0F5000F09D0206BB0F5400FFA
:1022700005D040F2B721DFF8040400F019FDDFF8C3
:1022800098640020306000F015FD8046DFF83C5374
:102290002868800107D500F00DFDB0EB0800032889
:1022A000F4D3032043E0396831F47D01A06A01438F
:1022B000E06A0143206B014339600120306000F087
:1022C000F9FC04002868800130D400F0F3FC001B06
:1022D0000328F7D303202AE00020DFF83C1408602D
:1022E00000F0E8FC0400DFF8E402006880011DD57E
:1022F00000F0E0FC001B0328F5D3032017E0606A20
:10230000012801D1012012E0386810F48031A26A5E
:10231000914209D110F47011E26A914204D110F493
:102320004000216B884201D0012000E00020BDE880
:10233000F6872DE9F04104000D00002C01D10120A9
:102340003FE1002D07D0012D05D040F22A31DFF802
:102350002C0300F0ADFCDFF8C463306810F001001E
:10236000A84211D2012D03D1306850F00400306032
:1023700030684008400028433060306810F00100A9
:10238000A84201D001201CE12078800727D5A06851
:1023900000281DD0A06880281AD0A068902817D0E7
:1023A000A068A02814D0A068B02811D0A068C028C8
:1023B0000ED0A068D0280BD0A068E02808D0A06874
:1023C000F02805D040F24131DFF8B00200F070FC97
:1023D0007F490A6832F0F002A06802430A60207860
:1023E000C00740F18180606800280ED06068012835
:1023F0000BD06068022808D06068032805D04FF42D
:102400005271DFF8780200F053FC6068022805D1B1
:102410006E480068800319D40120D2E06068032868
:1024200005D16A480068800110D40120C9E06068C5
:10243000012805D165480068800707D40120C0E065
:1024400062480068800501D40120BAE0604F396815
:102450008908890060680143396000F02BFC8046E0
:10246000606802280ED1386810F00C0008283BD0B4
:1024700000F020FCB0EB080041F289318842F2D331
:1024800003209EE0606803280ED1386810F00C002D
:102490000C2829D000F00EFCB0EB080041F2893185
:1024A0008842F2D303208CE0606801280ED138689E
:1024B00010F00C00042817D000F0FCFBB0EB080073
:1024C00041F289318842F2D303207AE0386810F073
:1024D0000C0F09D000F0EEFBB0EB080041F289319F
:1024E0008842F3D303206CE0306810F0010085428D
:1024F00011D2012D03D1306850F0040030603068F3
:102500004008400028433060306810F00100A842C5
:1025100001D0012055E0207840071ED5E068002852
:1025200014D0E068B0F5806F10D0E068B0F5A06F0F
:102530000CD0E068B0F5C06F08D0E068B0F5E06F8F
:1025400004D040F2AD314D4800F0B2FB20490A689A
:1025500032F4E062E06802430A60207800071FD589
:102560002069002814D02069B0F5806F10D0206950
:10257000B0F5A06F0CD02069B0F5C06F08D020690D
:10258000B0F5E06F04D04FF46D713C4800F090FB63
:102590000F48016831F46051226951EAC2010160BB
:1025A00000F01CF8DFF85C11094A1268C2F303124C
:1025B000895CC840074908600748006800F080FB54
:1025C000C0B2BDE8F081000004380240003802408B
:1025D00008380240080000200000002000B5504BE1
:1025E000186810F00C01042904D0082904D00C2923
:1025F00004D01BE04B4824E04B4822E04B49C0F399
:102600008342895CC0F38152521C1868C00306D50E
:102610004548A0FB01010023FEF714FD05E04148F9
:10262000A0FB01010023FEF70DFD0AE04048006811
:10263000C0F342300121401C11FA00F04FF4004178
:10264000484300BD3B480068704780B5FFF7FAFF7C
:102650003949334A1268C2F30222895CC84002BD7C
:1026600080B5FFF7EFFF34492D4A1268C2F3C2224A
:10267000895CC84002BD000034380240C46E0008C6
:102680000000474218B40021254A126812F0F00FEA
:1026900020D11F4B1A68D20004D51E4A126812F4CA
:1026A000C05210E01A6852F080521A601A6812F094
:1026B00080520092009A174A126812F4C0521C68A5
:1026C00034F080541C60B2F5C05F03D1B0F5404FC8
:1026D00000D10121012904D11048026852F00402FE
:1026E00002600E480268520852000A430260006805
:1026F00010F00100884201D0012000E0002012BC4F
:102700007047000050710008200047428006474291
:10271000243802400070004060004742003C024004
:10272000083802400024F40000366E018871000869
:102730000438024008000020C071000810B5DFF81E
:102740000C4501228021200000F0A0FC40F21A403C
:1027500000F0DAFC00228021200000F097FC10BD80
:1027600080B501220421DFF8E80400F08FFC00F0BE
:10277000DFFC00F0D5FDDFF8DC0400F0B3FD00F075
:10278000C1FD002801D0012030E000F0C9FDDFF8D4
:10279000C80400F0A7FD00F0B5FD002801D001201D
:1027A00024E000F0BDFDDFF8B40400F09BFD00F074
:1027B000A9FD002801D0012018E000F0B1FDDFF8EC
:1027C000A00400F08FFD00F09DFD002801D0012045
:1027D0000CE000F0A5FDDFF88C0400F083FD00F0B4
:1027E00091FD002801D0012000E0002002BD38B595
:1027F00000F096FDDFF87044200000F073FD00F05B
:1028000081FD002801D0FFF799FF012510E0FFF7B7
:1028100095FF40F21A4000F077FC00F081FD2000A7
:1028200000F060FD00F06EFD002801D0FFF786FF8C
:102830002800451EC0B2002815D000F071FDDFF859
:102840002C0400F04FFD00F05DFD002801D00120B8
:102850000FE000F065FDDFF8180400F043FD00F024
:1028600051FD0028D3D1EDB2FF2D01D1642000E04D
:10287000002032BD80B500224FF40041DFF8CC03C8
:1028800000F004FC00F04CFDDFF8DC0300F02AFD52
:1028900000F038FD0028F5D101BDF0B585B06846DF
:1028A000142100F0B9FD01200090032001900020C8
:1028B000029000200390DFF894636946300000F036
:1028C0002DFA0A2000F020FCDFF884734021380044
:1028D00000F0C7FB0400012001906946300000F0C1
:1028E0001DFA0A2000F010FC00220121300000F047
:1028F000CDFB4021380000F0B4FB0500012201218E
:10290000300000F0C3FB4021380000F0AAFB21009A
:10291000C9B2012909D12900C9B2002905D1010094
:10292000C9B2012901D1002011E055EA0401014397
:10293000C9B2002901D1012009E02C43E4B2002CE6
:1029400004D1C0B2012801D1022000E0002005B06E
:10295000F0BD2DE9F04F95B000F062FDC64801686A
:1029600051F080510160006810F080500090009894
:102970000026C2480068C00705D50126BD48016889
:1029800051F00401016000F012F900F05BFD00F06D
:102990001FFE00F0EAFB00F041FE00F0B5FE300043
:1029A000C0B2012801D1FFF765FF00F07CFFB44CF5
:1029B0002068C068C0050BD5B2480178491C017079
:1029C0002068C06810F0800070F4C0702168C86092
:1029D0003000C0B2002816D101F016F80020029095
:1029E000052001900B200090062302220A211520C9
:1029F00000F024FF2068C06810F0800070F4C07000
:102A00002168C86001E000F0E8FFFFF7F0FE050074
:102A10000DA8202100F000FD002203A9200001F0F4
:102A200031FB002801D000F041F9F6B2002E21D18F
:102A300006A81C2100F0F0FC4FF480700C9006A852
:102A400003A991E84C0080E84C009DF81A000F3073
:102A50008DF81A000020099000200A9002208DF8BD
:102A60002C00002206A9200001F026FC002801D03D
:102A700000F01CF9002700202068C068C0050BD5B5
:102A800080480178491C01702068C06810F08000FF
:102A900070F4C0702168C8607B480168491C0160FF
:102AA000DFF8A8910221484600F0DBFA060030006A
:102AB000C0B2012834D1FFB2002F31D1DFF8CCB140
:102AC0004FF40051484600F0CCFA8BF80000DFF8D4
:102AD000C0A14FF48051484600F0C3FA8AF80000C4
:102AE000DFF8B0814FF40061484600F0BAFA88F888
:102AF0000000694F0421484600F0B3FA38709BF893
:102B0000000000280CD19AF80000002808D098F89E
:102B10000000002804D03878002801D0FFF720FEFC
:102B20003700FFF7BAFE002203A9200001F0AAFA3D
:102B3000002801D000F0BAF8002000F01CFF0021AE
:102B4000002001F0BDF89DF80E0000909DF80D30BA
:102B50009DF80C2051490DA801F018FE504E01209F
:102B60000090330007220A210DA801F08FF81021F0
:102B7000002001F0A5F84848007802904548007808
:102B80000190434800780090404803782A00D2B270
:102B900044490DA801F0FAFD0120009033000722FE
:102BA0000A210DA801F072F800F0F6FE64E780B586
:102BB00094B007A8342100F02FFC02A8142100F0E3
:102BC0002BFC3948D0E90023CDE9002329480168CE
:102BD00031F4C05151F400610160062007900120DA
:102BE000099001200A9010200B90022010900020E4
:102BF0001190002012905FF48000139007A8FFF757
:102C000017F8002801D000F051F80F20029003209F
:102C100003900020049000200590002006900121E0
:102C200002A8FFF786FB002801D000F03FF8012042
:102C300000905FF480300190684601F0C7FD0028E5
:102C400001D000F033F815B000BD000000040240D0
:102C500000000240F07000080071000810710008C8
:102C60002071000830710008B07100087071000810
:102C70007C7100080070004024380240047000405D
:102C80006C040020B6040020A0040020B204002040
:102C9000B3040020B4040020B504002040710008F3
:102CA000BC640008D4700008B871000872B6FEE772
:102CB0007047000001480068704700BFA80400206A
:102CC00038B5040000251249086800281BD04FF4CD
:102CD0007A700968B0FBF1F00E490968B1FBF0F0B9
:102CE00001F0F4FE00280CD1102C08D200222100A3
:102CF0005FF0FF3001F0BBFE0748046004E00125EF
:102D000002E0012500E001252800C0B232BD00BF6D
:102D10000400002008000020000000202DE9F843F6
:102D200005008846002700200020DFF8A863B54290
:102D300018D0DFF8A403854214D0DFF8A003854241
:102D400010D0DFF89C0385420CD0DFF89803854251
:102D500008D0DFF89403854204D0B121DFF88C035A
:102D6000FFF7A6FFD8F80000000405D0D8F800004F
:102D7000000C0004002804D0B221DFF87003FFF734
:102D800097FFD8F80400002872D0D8F80400012872
:102D90006ED0D8F8040011286AD0D8F804000228B0
:102DA00066D0D8F80400122862D0D8F80400B0F534
:102DB000881F5DD0D8F80400B0F5041F58D0D8F8AB
:102DC0000400B0F5441F53D0D8F80400B0F5901FAC
:102DD0004ED0D8F80400B0F5081F49D0D8F8040048
:102DE000B0F5481F44D0D8F80400032840D0B321E0
:102DF000DFF8F802FFF75CFF3AE0052304E0DFF8B4
:102E0000E4028542F9D1042317F00300C0B2800028
:102E100083401A433800800841F82020DFF8D012A0
:102E20000868A043D8F80420D20300D520430860E6
:102E3000DFF8C0120868A043D8F80420920300D538
:102E400020430860DFF8B0120868A043D8F80420D7
:102E5000D20200D520430860DFF8A0120868A04322
:102E6000D8F80420920201D50443200008607F1C9A
:102E7000D8F80000F840002800F0F1805FF0010968
:102E8000D8F8004019FA07F00440002CEFD098F869
:102E9000040010F00300012805D098F8040010F099
:102EA000030002282FD1D8F80C00002810D0D8F841
:102EB0000C0001280CD0D8F80C00022808D0D8F853
:102EC0000C00032804D0C321DFF82002FFF7F0FE36
:102ED000A96803223800C0B2400082409143D8F86C
:102EE0000C203800C0B2400082401143A9606868DD
:102EF00019FA07F930EA0900D8F80410C1F30011F3
:102F0000B9400843686098F8040010F003000328F3
:102F10001FD0D8F8080000280CD0D8F808000128E5
:102F200008D0D8F80800022804D0D421DFF8BC016A
:102F3000FFF7BEFEE96803223800C0B240008240BD
:102F40009143D8F808203800C0B2400082401143B5
:102F5000E96098F8040010F0030002283CD1B54263
:102F600018D0DFF87401854214D0DFF87001854273
:102F700010D0DFF86C0185420CD0DFF86801854283
:102F800008D0DFF86401854204D0E121DFF85C015C
:102F9000FFF78EFED8F81000102804D3E221DFF8E6
:102FA0004C01FFF785FE3800C00805EB8000016A80
:102FB0000F2217F00700C0B2800082409143D8F87A
:102FC000102017F00700C0B2800082401143380083
:102FD000C00805EB80000162296803223800C0B2F6
:102FE00040008240914398F8042012F00302380018
:102FF000C0B24000824011432960D8F8040010F4A8
:10300000403F3FF434AFDFF8F800016851F00101B0
:103010000160006810F0010000900098DFF8E410F3
:103020003800800851F820200F2317F00300C0B2A9
:10303000800083409A43B54201D10023E4E626484C
:10304000854201D10123DFE62448854201D10223D4
:10305000DAE6234885427FF4D2AE0323D4E6BDE806
:10306000F18338B504000D00280080B2002804D197
:103070004FF4C1711D48FFF71BFE2069ADB2284215
:1030800001D0012000E00020C0B232BD70B50500C3
:103090000E001400300080B2002804D14FF4D0712B
:1030A0001248FFF705FE2000C0B2002808D020001B
:1030B000C0B2012804D040F2A1110C48FFF7F8FD7E
:1030C000E4B2002C02D0B6B2AE6102E0B6B2360471
:1030D000AE6170BD000002400004024000080240E2
:1030E000000C02400010024000140240046D000871
:1030F0000004014004040140080401400C040140A4
:10310000203802400800014038B50400FFF7D2FD26
:10311000050014F1010F02D0044800680419FFF7FC
:10312000C9FD401BA042FAD331BD00BF04000020FE
:1031300018B585B06846142100F06EF93020009073
:1031400001200190022002905B4C69462000FFF7AD
:10315000E5FD002210212000FFF798FF002220212A
:103160002000FFF793FF06B010BD1FB55348D0E90C
:103170000023CDE90223524C5248206000206060B9
:103180000020A060B420E060200001F0B5FC002821
:1031900001D0FFF78BFD202002900020039002A9B0
:1031A000200001F021FE002801D0FFF77FFD4648F6
:1031B000D0E90023CDE90023444C4548206020009D
:1031C00001F098FE002801D0FFF770FD0420009068
:1031D0000020019000226946200001F0ACFE00288A
:1031E00001D0FFF763FD10226946200001F0A3FE25
:1031F000002801D0FFF75AFD1FBD38B586B0040086
:1032000001A8142100F008F920683149884239D119
:103210003048016851F000510160006810F0005022
:10322000009000982C48016851F00101016000688D
:1032300010F00100009000983020019003200290CF
:103240000020039001A91C48FFF768FD234D244886
:103250002860102068600020A8608020E8604FF49B
:10326000007028614FF4006068612020A861002090
:10327000E861280001F0C4FE002801D0FFF716FD28
:10328000A5606C6207B030BD80B500680D4988420A
:1032900011D11048016851F010010160006810F070
:1032A000100000900098002200212B2001F0DFFB8D
:1032B0002B2001F0FBFB01BD00000240A0710008C3
:1032C000AC03002000100040A87100088C0400200E
:1032D00000740040243802401C3802409C02002048
:1032E0001C60024010B504002000FDF763FE0200E0
:1032F00092B22100414802F01AF9002801D0FFF7EC
:10330000D5FC10BD3E490A2008600868002805D099
:103310003C4800780028F8D0002000E003207047E7
:10332000F8B5364C200002F08EF940210022364DCF
:103330002E00300002F092FD40210022334E370073
:10334000380002F08BFD32480021017000212D4A27
:1033500011700078002801D03500FFE740222900D5
:10336000200002F037F9002801D0FFF79FFC294820
:103370000168096831F0040100680160F1BD38B5E9
:10338000234A1078002801D0204800E01E4801237D
:103390000FE01C00E4B2044414F8014C4F2C07D198
:1033A0001C00E4B2045D4B2C02D10124154D2C709D
:1033B0005B1C1C00E4B20D00A4B2ADB2AC42E8D379
:1033C0001078002802D00020107001E00120107059
:1033D0001078002801D00D4900E00B494022074831
:1033E00002F0F8F8002801D0FFF760FC09480168F6
:1033F000096831F004010068016031BDE00200207D
:10340000A4040020B8040020EC0300202C040020B9
:10341000B704002024030020002202F053BD000066
:1034200010B50024032001F00DFB0F20FFF748FC2E
:10343000002801D0012401E002F05EFD2000C0B2AE
:1034400010BD000038B586B068461421FFF7E4FFD0
:103450005B48016851F004010160016811F004014A
:1034600005910599016851F020010160016811F092
:10347000200105910599016851F001010160016881
:1034800011F0010105910599016851F002010160F7
:10349000006810F00200059005984A4C0022442173
:1034A0002000FFF7F3FD484D00224CF2D101280027
:1034B000FFF7ECFD012220212800FFF7E7FD0022A5
:1034C0004FF400412800FFF7E1FD01224FF40041D5
:1034D0002000FFF7DBFD0320009003200190002077
:1034E000029069463948FFF719FC422000900020FD
:1034F00001900020029069462000FFF70FFC042095
:103500000090012001900020029000200390694665
:103510002000FFF703FC4FF40040009001200190D1
:10352000012002900320039069462000FFF7F6FB7C
:103530004FF48470009003200190002002906946AF
:103540002000FFF7EBFB44F2D10000900120019036
:10355000002002900020039069462800FFF7DEFB60
:1035600048F22000009001200190012002900020EC
:10357000039069462800FFF7D1FB0220009000204D
:1035800001900020029069462800FFF7C7FB43F630
:10359000040000900020019000200290694628005D
:1035A000FFF7BCFB4FF4E060009003200190002087
:1035B000029069462800FFF7B1FB07B030BD00BF9D
:1035C0001C38024000000240000402400014024087
:1035D00080B51148016851F080710160006810F0F9
:1035E000807000900098002200210C2001F03FFA2A
:1035F0000C2001F05BFA002200210E2001F037FAC6
:103600000E2001F053FA002200210F2001F02FFAC2
:103610000F2001F04BFA01BD1C38024080B5344840
:10362000344901604FF482714160002181600021C2
:10363000C16000210161002141614FF4007181618D
:103640000021C161002101620021416200218162EB
:103650000A21C16202F074FC002801D0FFF726FBAA
:1036600001BD10B586B0040068461421FFF7D4FEF2
:1036700020682049884238D11F48016851F48051A0
:103680000160006810F48050059005981B4801689F
:1036900051F001010160016811F0010105910599E6
:1036A000016851F002010160006810F0020005900D
:1036B00005988020009002200190002002900320B5
:1036C00003900520049069460D48FFF727FB08206A
:1036D000009002200190002002900320039005201A
:1036E000049069460748FFF719FB06B010BD0000BB
:1036F0004402002000300140203802401C380240C3
:10370000000002400004024080B543484349016084
:103710005FF4E1314160002181600021C16000213E
:1037200001610C2141614FF4407181610021C1614F
:1037300001F068FE002801D0FFF7B8FA002200214E
:10374000252001F094F9252001F0B0F901BD38B52C
:1037500086B0040001A81421FFF75EFE20682F49FF
:10376000884256D12E48016851F4804101600068BA
:1037700010F48040009000982A48016851F001013F
:103780000160006810F00100009000984FF4F050C4
:103790000190022002900020039003200490072053
:1037A000059001A92048FFF7B9FA204D204828606C
:1037B000002068600020A8608020E8600020286168
:1037C000002068610020A8610020E861280001F065
:1037D00017FC002801D0FFF769FAA5636C62154D4C
:1037E00015482860102068600020A8608020E860EC
:1037F00000202861002068610020A8610020E861A5
:10380000280001F0FDFB002801D0FFF74FFA6563A7
:103810006C6207B030BD0000E002002000380140BB
:10382000203802401C3802400000024024030020DF
:10383000586002406803002044600240F8B584B03C
:1038400001AC00250026002784E8E000254C246810
:1038500000948DF800308DF801108DF802208DF85D
:103860000300214C00226946200000F03FFC0028A4
:1038700001D0FFF71BFA0C980B990A9A8DF80420D7
:103880008DF805108DF806000020029000200390AE
:10389000002201A9200000F0DCFA002801D0FFF787
:1038A00005FA05B0F0BD80B50F4810490160002150
:1038B00041607F218160FF21C16000210161002101
:1038C00041610021816100F00DFA002801D0FFF76D
:1038D000EDF901BD00680549884202D10120044983
:1038E00008607047C87100086C0400200028004080
:1038F000D806474231B50C0000224021DFF8CC0346
:10390000FFF7C4FBDFF8C85300224FF40041280042
:10391000FFF7BCFB4FF47A73220092B26946DFF8DE
:10392000B40302F03DFC01224FF400412800FFF7F0
:10393000ADFB31BD70B504000D0001224021DFF860
:103940008C03FFF7A3FBDFF8886300224FF40041EC
:103950003000FFF79BFB4FF47A732A0092B22100EC
:10396000DFF8700302F01CFC01224FF4004130002C
:10397000FFF78CFB70BD00210AE0FF2204E002008B
:10398000D2B2002AF9D10022DFF84C335A54491C34
:10399000B1F5007FF3D3704710B5002418E0012182
:1039A000B4F15000C0B2FFF7A5FF01210020FFF7DE
:1039B000A1FF01211020FFF79DFF8021C64A2300AF
:1039C000DBB28020434302EB0300FFF7B3FF641C2C
:1039D0002000C0B20428E2DB10BD10B501224FF474
:1039E0000041BB48FFF752FBB84C012220212000C8
:1039F000FFF74CFB012210212000FFF747FB0121BC
:103A0000AF20FFF777FF10BD10B501224FF4004142
:103A1000AF48FFF73BFBAD4C002210212000FFF721
:103A200035FB002220212000FFF730FB6420FFF748
:103A30006BFB012220212000FFF728FB6420FFF709
:103A400063FB0121AE20FFF755FF0121D520FFF7D1
:103A500051FF01218020FFF74DFF0121A820FFF732
:103A600049FF01211F20FFF745FF0121D320FFF768
:103A700041FF01210020FFF73DFF01214020FFF71A
:103A800039FF01218D20FFF735FF01211420FFF7B9
:103A900031FF0121A120FFF72DFF0121C820FFF7F1
:103AA00029FF0121DA20FFF725FF01210020FFF780
:103AB00021FF01218120FFF71DFF01218F20FFF74A
:103AC00019FF0121D920FFF715FF01211F20FFF762
:103AD00011FF0121DB20FFF70DFF01214020FFF73F
:103AE00009FF0121A420FFF705FF0122102120007A
:103AF000FFF7CCFA0020FFF73EFFFFF74DFF012153
:103B0000AF20FFF7F7FE6420FFF7FEFA00207349AD
:103B1000087000207249087010BDF0B40300DBB2D9
:103B2000802B03DA0B00DBB2202B00DB44E0D2B2A7
:103B3000012A20D10B00DBB20824674D0600F6B243
:103B40000A00D2B2082792FBF7F7802202FB076631
:103B5000C0B2C9B2082291FBF2F2802101FB02003F
:103B6000285C012193FBF4F204FB123311FA03F3F6
:103B70000343AB5520E00B00DBB20824564D060092
:103B8000F6B20A00D2B2082792FBF7F7802202FBB6
:103B90000766C0B2C9B2082291FBF2F2802101FB94
:103BA0000200285C012193FBF4F204FB123311FAAA
:103BB00003F330EA0303AB55F0BC70472DE9FE4F29
:103BC00005002800C0B220385F2800D32025160049
:103BD000424F3A783000C0B28218812A0ADA8DF852
:103BE0000010DFF8FC8098F800109DF800004118E4
:103BF000212901DB002047E05FF0000901930C9CC4
:103C000001E019F101099DF80000814537D20198C2
:103C10002900C9B220399DF8002002FB019130F83B
:103C200011A05FF0000B14E0002204E02000C0B2FD
:103C30000028F9D10122D2B298F8001019EB010145
:103C4000C9B238781BEB0000C0B2FFF766FF1BF16A
:103C5000010B3000C0B28345D3D21AFA0BF0000436
:103C6000E4D52200D2B298F8001019EB0101C9B2D4
:103C700038781BEB0000C0B2FFF74FFFE7E738785A
:103C800036183E702800C0B2BDE8FE8F2DE9FC4119
:103C900005000E0017009846089C0BE02000C0B2FB
:103CA000009043463A00D2B23100C9B22878FFF7FB
:103CB00085FF6D1C28780028F0D12878BDE8F681B2
:103CC000064A107006480170704700000004024068
:103CD000000002404402002044000020B004002004
:103CE000B104002010B50400002C01D10120AFE088
:103CF0002068DFF8B815884204D0FC21DFF8B00551
:103D0000FEF7D6FF6068402807D06068002804D01E
:103D1000FD21DFF89C05FEF7CBFFA068802804D3C7
:103D2000FE21DFF88C05FEF7C3FFE068B0F5005F09
:103D300004D3FF21DFF87805FEF7BAFF20690028D9
:103D400011D02069B0F5001F0DD02069B0F5800FAB
:103D500009D02069B0F5C00F05D04FF48071DFF8AD
:103D60005005FEF7A5FF6069002809D06069B0F52D
:103D7000801F05D040F20111DFF83405FEF798FFEF
:103D8000A069002809D0A069B0F5802F05D04FF4B4
:103D90008171DFF81C05FEF78BFF607F002804D1DE
:103DA000002020772000FFF795FD02206077CA20D1
:103DB00021684862532021684862200000F0B4FC6A
:103DC000002806D0FF202168486204206077012087
:103DD0003EE020688168DFF8DC04014020688160F3
:103DE0002068816862682069024360690243114368
:103DF00020688160E0682168086120680069A16826
:103E000050EA0140216808612068C06830F08000F5
:103E10002168C860200000F06DFC002806D0FF205B
:103E20002168486204206077012011E02068006C5E
:103E300030F48020216808642068016CA069014387
:103E400020680164FF20216848620120607700201B
:103E500010BDF8B505000E001400002C07D0012C91
:103E600005D040F2E621DFF84804FEF721FF706834
:103E7000B0F5003F0CD07068B0F5803F08D0706896
:103E8000002805D040F2E721DFF82404FEF710FFF8
:103E9000B068002809D0B068B0F5802F05D04FF485
:103EA0003A71DFF80C04FEF703FF287F012801D1E7
:103EB0000220E6E00120287702206877002C4FD10D
:103EC00028688068400618D53078002802D03078FD
:103ED0000D2805D340F2F321DFF8D403FEF7E8FE06
:103EE000F078002814D0F078402811D04FF43D71BC
:103EF000DFF8BC03FEF7DCFE0AE00020F07030784B
:103F0000182805D340F2F921DFF8A403FEF7D0FE0C
:103F100070783C2805D340F2FB21DFF89403FEF7CC
:103F2000C7FEB0783C2805D34FF43F71DFF880031B
:103F3000FEF7BEFE307800F013FC0700707800F04A
:103F40000FFC0400B07800F00BFCFFB2E4B22402D6
:103F500054EA0744C0B20443F07854EA00444DE008
:103F60002868806840061CD5307800F005FC0028E1
:103F700004D0307800F000FC0D2805D340F2073162
:103F8000DFF82C03FEF794FEF078002816D0F078C6
:103F9000402813D04FF44271DFF81403FEF788FE77
:103FA0000CE00020F070307800F0E6FB182805D314
:103FB00040F20D31DFF8F802FEF77AFE707800F07B
:103FC000DBFB3C2805D340F20F31DFF8E402FEF7BB
:103FD0006FFEB07800F0D0FB3C2805D34FF444715D
:103FE000DFF8CC02FEF764FE30787478240254EADD
:103FF0000044B0780443F07854EA0044CA202968A9
:104000004862532029684862280000F08DFB002890
:1040100008D0FF20296848620420687700202877AC
:1040200001202EE0DFF85406044028680460286868
:10403000806830F480202968886028688168726808
:10404000B06802431143286881602868C06830F076
:1040500080002968C860280000F04CFB002808D0C8
:10406000FF20296848620420687700202877012013
:1040700007E0FF2029684862012068770020287740
:104080000020F2BD70B506000D001400002C07D012
:10409000012C05D040F26931DFF81402FEF708FE6A
:1040A00030680168DFF8D40501400800000C10F00A
:1040B0003F0028700800000A10F07F00687011F0BF
:1040C0007F00A870090C11F04001E970002C0BD1A1
:1040D000287800F051FB2870687800F04DFB68707C
:1040E000A87800F049FBA870002070BDF8B5050065
:1040F0000E001400002C07D0012C05D040F297319F
:10410000DFF8AC01FEF7D4FD287F012801D10220A1
:10411000CBE00120287702206877002C07D1707847
:10412000C00604D5707810F0EF000A307070307857
:10413000012817D03078022814D03078032811D005
:10414000307804280ED0307805280BD03078062837
:1041500008D03078072805D040F2A331DFF85001AD
:10416000FEF7A6FD002C36D1F078642805D340F286
:10417000A731DFF83C01FEF79BFD7078002802D0E4
:1041800070780D2805D34FF46A71DFF82401FEF72B
:104190008FFDB078002802D0B078202805D340F2F7
:1041A000A931DFF80C01FEF783FDF07800F0D8FAB2
:1041B0000700707800F0D4FA0400B07800F0D0FA6C
:1041C000FFB2E4B2240254EA0744C0B20443307898
:1041D00054EA403434E0F07800F0CEFA642805D395
:1041E00040F2B231DFF8C800FEF762FD707800F0EF
:1041F000C3FA002804D0707800F0BEFA0D2805D369
:1042000040F2B331DFF8A800FEF752FDB07800F0BD
:10421000B3FA002804D0B07800F0AEFA202805D315
:104220004FF46D71DFF88800FEF742FDF078747886
:10423000240254EA0044B0780443307854EA40340D
:10424000CA2029684862532029684862280000F083
:104250006BFA002808D0FF2029684862042068779C
:1042600000202877012020E0DFF87404044028684B
:1042700044602868C06830F080002968C860280061
:1042800000F038FA002808D0FF202968486204208E
:10429000687700202877012007E0FF20296848621E
:1042A00001206877002028770020F2BD0028004018
:1042B0000C6F0008BFFF8FFF2DE9F04105000E00D5
:1042C000140000200020002C07D0012C05D040F263
:1042D0003D51DFF81004FEF7EBFCB069B0F5807FCC
:1042E00009D0B069B0F5007F05D040F23E51DFF84B
:1042F000F403FEF7DDFCF06830F08030002805D0D4
:1043000040F23F51DFF8DC03FEF7D2FC30690028B1
:1043100009D03069B0F1804F05D04FF4A861DFF8C3
:10432000C403FEF7C5FC287F012801D10220A2E1C9
:104330000120287702206877002C40F088802868C8
:104340008068400618D53078002802D030780D28D3
:1043500005D340F24F51DFF88C03FEF7A9FCF0784B
:10436000002814D0F078402811D04FF4AA61DFF86B
:104370007403FEF79DFC0AE00020F07030781828E6
:1043800005D340F25551DFF85C03FEF791FC7078DD
:104390003C2805D340F25751DFF84803FEF788FC6C
:1043A000B0783C2805D34FF4AB61DFF83803FEF753
:1043B0007FFC306900280CD1307D002802D0307D90
:1043C000202821D340F25C51DFF81803FEF770FC7F
:1043D0001AE0307D012817D0307D022814D0307DBE
:1043E000032811D0307D04280ED0307D05280BD055
:1043F000307D062808D0307D072805D04FF4AC6109
:10440000DFF8E002FEF754FC307800F0A9F907006D
:10441000707800F0A5F90400B07800F0A1F98046AA
:10442000307D00F09DF9FFB2E4B2240254EA074463
:104430005FFA88F858EA0404F17854EA0144C0B2FB
:1044400054EA006430690443F068044390E028684B
:10445000806840061CD5307800F08EF9002804D022
:10446000307800F089F90D2805D340F26E51DFF85D
:104470007402FEF71DFCF078002816D0F078402872
:1044800013D040F26F51DFF85C02FEF711FC0CE034
:104490000020F070307800F06FF9182805D340F252
:1044A0007451DFF84002FEF703FC707800F064F905
:1044B0003C2805D340F27751DFF82802FEF7F8FBDD
:1044C000B07800F059F93C2805D34FF4AF61DFF81C
:1044D0001402FEF7EDFB3069002810D1307D00F0AA
:1044E0004BF9002804D0307D00F046F920282ED367
:1044F00040F27C51DFF8EC01FEF7DAFB27E0307D7B
:1045000000F03AF9012822D0307D00F035F9022878
:104510001DD0307D00F030F9032818D0307D00F038
:104520002BF9042813D0307D00F026F905280ED091
:10453000307D00F021F9062809D0307D00F01CF90B
:10454000072804D04FF4B0616648FEF7B1FB30781D
:104550007478240254EA0044B0780443F07854EAB2
:104560000044307D54EA006430690443F068044339
:10457000CA2029684862532029684862B069B0F5AA
:10458000807F33D12868806830F480702968886023
:104590002868C06810F0800070F4C0702968C86096
:1045A000FEF788FB06002868C068C0070FD4FEF736
:1045B00081FB801B40F2E9318842F4D3FF20296857
:1045C00048620320687700202877032053E028689A
:1045D000C4612868806850F4807029688860286801
:1045E000806850F480502968886032E028688068CC
:1045F00030F40070296888602868C06810F0800076
:1046000070F420702968C860FEF754FB0600286823
:10461000C06880070FD4FEF74DFB801B40F2E931E4
:104620008842F4D3FF20296848620320687700207D
:10463000287703201FE0286804622868806850F407
:104640000070296888602868806850F400502968E4
:1046500088602548016851F40031016023480168F1
:1046600051F400310160FF20296848620120687719
:10467000002028770020BDE8F08100007F7F7F00C8
:1046800010B5040020688068C0040ED52068C0689A
:10469000C0050AD5200001F005FF2068C06810F0B1
:1046A000800070F4C0702168C86020688068800451
:1046B0000ED52068C06880050AD5200001F0F3FE01
:1046C0002068C06810F0800070F420702168C86015
:1046D0005FF40030064908600120607710BD0000DB
:1046E0003FFFFF000C6F0008000401400804014078
:1046F0001404014038B504002068C06830F0A00000
:104700002168C860FEF7D6FA05002068C0688006F8
:1047100008D4FEF7CFFA401B40F2E9318842F4D3C7
:10472000032000E0002032BD38B504002068C068D6
:10473000400613D45FF0FF302168C860FEF7BAFA74
:1047400005002068C068400608D4FEF7B3FA401B95
:1047500040F2E9318842F4D3032000E0002032BD6A
:10476000002101E0491C0A380200D2B20A2AF9D21B
:1047700050EA0110C0B270470200D2B212090A21F9
:104780004A4310F00F008018C0B270470CB430B527
:1047900083B00A4606A902910446002501940095BB
:1047A00002AB01A9084878441E30FBF7A3FC019A2C
:1047B000157000284EBF04460198041B204603B024
:1047C00030BC5DF80CFB00BFA3C7FFFF2DE9F84329
:1047D00004002068012803D062215948FEF768FAD6
:1047E0002078C00740F1A9802078C0071ED56068F6
:1047F00000281BD06068B0F5803F17D06068B0F526
:10480000003F13D06068B0F5403F0FD060684D495D
:1048100088420BD060684C49884207D060684B4999
:10482000884203D06E214648FEF742FA0026484DE2
:104830002868C00009D4286850F080502860286893
:1048400010F08050009000980126424F3868C00553
:1048500011D4386850F480703860FEF72BFA804627
:104860003868C00507D4FEF725FAB0EB08006528C4
:10487000F6D3032062E0384F386810F0C04061681A
:1048800011F0C04188420AD0606810F44030B0F5A1
:10489000403F04D13868800301D501204EE0DFF8A5
:1048A000BC80D8F8000010F44030002825D06168A2
:1048B00011F44031884220D02078C0071DD5D8F8A7
:1048C000000030F44030264901220A6000220A60CC
:1048D000C8F80000C00510D5FEF7ECF98146D8F8FD
:1048E0000000800509D4FEF7E5F9B0EB090041F2BC
:1048F00089318842F3D3032020E02078C00715D502
:10490000606810F44030B0F5403F07D1386830F0AF
:10491000C040616811F0C04108433860D8F8000019
:10492000616811F440310843C8F80000F6B2012E66
:1049300003D1286830F0805028600020BDE8F28361
:10494000506D0008000003200000034000000360D9
:1049500024380240007000400038024034380240E1
:10496000DC06474210F00700DFF868311A684FF69E
:10497000FF010A40DFF8601151EA00210A431A6082
:104980007047DFF850010068C0F302207047010053
:1049900049B2002909D4012210F01F018A40DFF832
:1049A0003C1140B2400941F820207047020052B249
:1049B000002A05D40901DFF8282140B2115408E08B
:1049C0000901DFF8202140B210F00F00104400F878
:1049D000041C704710B410F00700D0F10703052B3A
:1049E00001D3042301E0D0F10703041D072C01D2F9
:1049F000002000E0C01E012414FA03F35B1E1940DE
:104A0000814014FA00F0401E1040084310BC70476B
:104A100080B5411EB1F1807F01D3012011E0401E1D
:104A2000DFF8C41008600F215FF0FF30FFF7BEFF12
:104A30000020DFF8B81008600720DFF8B410086025
:104A4000002002BD10B50400072C0CD0062C0AD0A3
:104A5000052C08D0042C06D0032C04D0AC21DFF8A0
:104A60009400FEF725F92000FFF77CFF10BD70B51C
:104A700004000D0016000020102E04D3C421DFF81E
:104A80007400FEF715F9102D04D3C521DFF864007A
:104A9000FEF70EF9FFF775FF32002900FFF79AFFC6
:104AA0000100200040B2FFF781FF70BD10B5040087
:104AB000200040B2002804D5D821DFF83800FEF7E6
:104AC000F7F8200040B2FFF762FF10BD80B5FFF796
:104AD0009FFF02BD0CED00E00000FA0500E100E0E0
:104AE00000E400E018ED00E014E000E018E000E071
:104AF00010E000E0B86C000810B50400002C01D1F3
:104B0000012082E02068B0F1804F28D02068DFF8D3
:104B1000FC10884223D02068DFF8F41088421ED0B1
:104B20002068DFF8F010884219D02068DFF8E8101C
:104B3000884214D02068DFF8E41088420FD0206843
:104B4000DFF8DC1088420AD02068DFF8D8108842ED
:104B500005D04FF48B71DFF8D000FEF7A9F8A068FC
:104B6000002811D0A06810280ED0A06820280BD0F3
:104B7000A068402808D0A068602805D040F217112E
:104B8000DFF8A400FEF794F8206900280DD0206912
:104B9000B0F5807F09D02069B0F5007F05D04FF4D3
:104BA0008C71DFF88400FEF783F86069002808D074
:104BB0006069802805D040F21911DFF86C00FEF71B
:104BC00077F894F83900002805D1002084F83800DF
:104BD0002000FEF759FB022084F83900211D2068CF
:104BE00000F0C1F8012084F83E00012084F83A006A
:104BF000012084F83B00012084F83C00012084F867
:104C00003D00012084F83900002010BD0004004060
:104C1000000800400010004000140040000801405F
:104C2000000C0140001001409C6F000810B504000A
:104C30002068006980071AD52068C068800716D5EB
:104C40007FF00200216808610120207620688069D9
:104C500010F0030F03D0200001F026FC05E0200037
:104C600001F023FC200001F021FC002020762068C8
:104C7000006940071AD52068C068400716D57FF044
:104C8000040021680861022020762068806910F401
:104C9000407F03D0200001F007FC05E0200001F078
:104CA00004FC200001F002FC00202076206800694E
:104CB00000071AD52068C068000716D57FF00800E5
:104CC00021680861042020762068C06910F0030F75
:104CD00003D0200001F0E8FB05E0200001F0E5FB37
:104CE000200001F0E3FB0020207620680069C00668
:104CF0001AD52068C068C00616D57FF0100021685C
:104D00000861082020762068C06910F4407F03D035
:104D1000200001F0C9FB05E0200001F0C6FB2000E7
:104D200001F0C4FB0020207620680069C0070AD586
:104D30002068C068C00706D57FF0010021680861BF
:104D4000200001F0B4FB2068006940060AD5206805
:104D5000C068400606D57FF0400021680861200049
:104D600001F0A6FB10BD0368B0F1804F07D0DFF85B
:104D70006820904203D0DFF86420904203D133F0E2
:104D800070034A681343B0F1804F13D0DFF8482016
:104D900090420FD0DFF8442090420BD0DFF834204F
:104DA000904207D0DFF83820904203D0DFF834205B
:104DB000904203D133F44073CA68134333F0800345
:104DC0000A69134303608A68C2620968816201212B
:104DD00041617047000801400004004000080040A5
:104DE000000C01400010014038B504000D0020689F
:104DF000B0F1804F17D020683849884213D020681E
:104E0000374988420FD02068364988420BD0206845
:104E10003549884207D020683449884203D05A2156
:104E20003348FDF745FF2868002818D02868102867
:104E300015D02868202812D0286830280FD028687C
:104E400040280CD02868502809D02868602806D04F
:104E50002868702803D05B212548FDF729FF686882
:104E6000802806D06868002803D05C212048FDF720
:104E70001FFF94F83800012801D102202CE0012006
:104E800084F83800022084F83900206842682068DD
:104E9000816832F07002286802432068426020680E
:104EA000B0F1804F0BD020680C4A904207D02068A8
:104EB0000B4A904203D020680C4A904205D131F051
:104EC00080016868014320688160012084F839000E
:104ED000002084F83800002032BD000000040040AB
:104EE000000800400010004000140040000801408D
:104EF0009C6D000810B50400002C01D1012019E0C0
:104F00002068DFF8F410884205D04FF49171DFF883
:104F1000EC00FDF7CDFE2079002804D1002060715F
:104F20002000FEF76AF90220207100202061012094
:104F30002071002010BD70B505000E00140030680F
:104F4000002819D03068042816D03068142813D0EF
:104F500030681C2810D0306824280DD030682C28E8
:104F60000AD03068342807D030683C2804D040F29A
:104F7000B1312248FDF79CFE7068002807D07068A8
:104F8000022804D040F2B2311C48FDF791FE002CFB
:104F900006D0102C04D040F2B3311848FDF788FE3B
:104FA0006879012801D1022024E0012068710220E3
:104FB00028712868016840F6FE7214F010008240E3
:104FC000914332687068024314F01000824011432C
:104FD0002868016028680068C02114F0100411FAE4
:104FE00004F430EA040428680460012028710020D9
:104FF0006871002070BD000000740040346E00082D
:1050000010B50400002C01D10120AAE02068DFF8CF
:10501000001288421ED02068DFF8F811884219D0AB
:105020002068DFF8F411884214D02068DFF8EC1112
:1050300088420FD020687A4988420BD0206879498D
:10504000884207D020687849884203D09A2177485F
:10505000FDF72EFE606800280AD06068102807D08F
:105060006068B0F5804F03D09B217048FDF720FEAB
:10507000A068402806D0A068002803D09C216B4877
:10508000FDF716FEE068802806D0E068002803D00F
:105090009D216648FDF70CFE206900280BD0206991
:1050A000B0F5807F07D02069B0F5007F03D09E2146
:1050B0005E48FDF7FDFD606900280BD06069B0F522
:1050C000806F07D06069B0F5006F03D09F2157480B
:1050D000FDF7EEFDA069002806D0A069202803D0C6
:1050E000A0215248FDF7E4FDE06900280FD0E069F7
:1050F000B0F5805F0BD0E069B0F5005F07D0E069E4
:10510000B0F5405F03D0A1214848FDF7D1FD2168EB
:10511000474841181420B1FBF0F080002064454856
:10512000E063022084F82100206801686FF30E110B
:105130006268A0680243E068024320690243606934
:105140000243A0690243E069024311432068016001
:105150000020A063012084F82100002084F82000B2
:10516000002010BD2DE9F04106000F0090461C0004
:105170000025002C02D0B4F5803F04D34FF4B57164
:105180002A48FDF795FD96F82000012801D102205C
:105190003AE0012086F8200096F8210001282DD160
:1051A000022086F821000020B063306800684008C3
:1051B000400031680860230042463900300000F0AA
:1051C00007F9F06A002806D03068006850F00E0039
:1051D000316808600BE03068006830F00400316826
:1051E00008603068006850F00A0031680860306874
:1051F000006850F001003168086003E0002086F884
:10520000200002252800C0B2BDE8F08100000000A7
:10521000086002401C60024030600240446002406E
:10522000586002406C600240806002407C6E000862
:10523000F89FFDBF00600240002190F82120022A63
:1052400006D004218163002180F8201001201BE09A
:105250000268126832F00E0203681A60026812686F
:105260005208520003681A60012290F8403013F08F
:105270001C039A40C36B5A60012280F8212000224F
:1052800080F820200800C0B2704710B5002490F8C4
:105290002110022903D00421816301241EE001684A
:1052A000096831F00E010268116001680968490857
:1052B000490002681160012190F8402012F01C02A0
:1052C0009140C26B5160012180F82110002180F8CB
:1052D0002010416B002901D0416B88472000C0B2EB
:1052E00010BD10B5C16B0A6801680B68042190F805
:1052F000404014F01C0411FA04F4224218D05C0758
:1053000016D502681268920605D40268126832F057
:10531000040203681A6090F8402012F01C029140C9
:10532000C26B5160C16A00294FD0C16A88474CE006
:10533000022190F8404014F01C0411FA04F42242B7
:105340001ED09C071CD502681268920608D4026819
:10535000126832F00A0203681A60012280F82120E4
:1053600090F8402012F01C029140C26B5160002165
:1053700080F82010816A002927D0816A884724E0BC
:10538000082190F8404014F01C04A1400A421CD0AF
:1053900019071AD50168096831F00E010268116019
:1053A000012190F8402012F01C029140C26B516024
:1053B00001218163012180F82110002180F8201053
:1053C000016B002901D0016B884710BD806B7047CD
:1053D00030B4012490F8405015F01C05AC40C56B6A
:1053E0006C60046863604368102B04D103689A60A2
:1053F0000068C16003E0036899600068C26030BC67
:105400007047000010B50400002C01D101208DE090
:10541000A06900282AD02068DFF8A81188420FD0A0
:105420002068DFF8A41188420AD02068DFF89C11B8
:10543000884205D040F26B11DFF89401FDF738FC8B
:10544000A069002827D0A069B0F5807F23D0A0698B
:10545000B0F5007F1FD0A069B0F5407F1BD04FF49E
:10546000B671DFF86C01FDF723FC14E02068DFF86B
:10547000541188420FD02068DFF84C1188420AD0BE
:105480002068DFF84811884205D04FF4B871DFF882
:105490004001FDF70DFCA068002809D0A068B0F518
:1054A000805F05D04FF4B971DFF82401FDF700FCEF
:1054B000E069002809D0E069B0F5004F05D040F25E
:1054C0007311DFF80C01FDF7F3FB94F83D000028A1
:1054D00005D1002084F83C002000FEF738F9242094
:1054E00084F83D002068C06830F400502168C8602E
:1054F000200000F0C4FB2068006930F4904021686F
:1055000008612068406930F02A00216848612068FD
:10551000C06850F400502168C8600020206420203A
:1055200084F83D00202084F83E00002010BD13B513
:105530000400130094F83D00202840D10198002871
:1055400003D0180080B2002801D1012038E094F87F
:105550003C00012801D1022032E0012084F83C0007
:1055600001982062A384E38400202064212084F831
:105570003D000FF2BD30616B88620FF2E930616B64
:10558000C862DFF8A803616B08630020616B4863A1
:1055900001A89BB221680A1D0168606BFFF7E2FD5C
:1055A0007FF0400021680860002084F83C002068FB
:1055B000406950F0800021684861002000E002202E
:1055C00016BD000000380140004400400048004083
:1055D000E86D00081CB5040094F83E00202830D186
:1055E000002903D0100080B2002801D1012029E059
:1055F00094F83C00012801D1022023E0012084F826
:105600003C000120206392B2200000F01AFA010051
:10561000C9B2002913D1216B01290FD100210091BA
:105620002168096800912168496800910099216802
:10563000C96851F010012268D16000E00120C0B2B9
:1056400000E0022016BD10B504002068C06830F4E8
:10565000F0702168C86020684069400840002168F7
:105660004861206B012805D12068C06830F0100027
:105670002168C86020684069000619D52068406923
:1056800030F0800021684861606B002810D0002055
:10569000616B4863606BFFF7CFFD002808D0606B3B
:1056A000FFF794FE202803D11020206403202CE073
:1056B00020684069400619D52068406930F04000F4
:1056C00021684861A06B002810D00020A16B4863BE
:1056D000A06BFFF7B1FD002808D0A06BFFF776FEA6
:1056E000202803D11020206403200EE00020E08455
:1056F0000020E08500202064202084F83E00202047
:1057000084F83D0000202063002010BD38B504005F
:10571000206801682068C268206843690020002072
:1057200011F00F00002807D18D0605D5950603D589
:10573000200000F036FAF7E0002872D0D80702D433
:1057400012F4907F6DD011F00100C0B2002805D096
:10575000D00503D5206C50F001002064480708D51F
:1057600013F00100C0B2002803D0206C50F00200FA
:105770002064880708D513F00100C0B2002803D0C8
:10578000206C50F00400206408070AD5900604D469
:1057900013F00103DBB2002B03D0206C50F00800A3
:1057A0002064206C00283BD0880604D5900602D5E2
:1057B000200000F0F6F920684069800910F001002F
:1057C000216C090701D4002825D0200000F085F9BC
:1057D0002068406940061AD52068406930F04000D2
:1057E00021684861A06B00280DD00FF22530A16B15
:1057F0004863A06BFFF749FD002811D0A06BA16B97
:10580000496B88470CE0200000F053FE08E02000C0
:1058100000F04FFE04E0200000F04BFE002020646A
:1058200082E0206B01286FD1C8066DD5D0066BD5FC
:105830000020009020680068009020684068009078
:10584000009820684069400638D5A06B0068416820
:10585000080080B2002830D00800A28D80B29042AB
:105860002BD2E185A06B806920281FD02068C068FA
:1058700030F480702168C8602068406940084000AA
:10588000216848612068406930F040002168486123
:10589000202084F83E00002020632068C06830F09B
:1058A00010002168C860A06BFFF7C6FCA18DE08DD9
:1058B000091A89B22000FDF762FD35E0A08DE18D67
:1058C000411AE08D00281ED0080080B200281AD0AE
:1058D0002068C06830F490702268D0602068406909
:1058E0004008400022685061202084F83E000020DB
:1058F00020632068C06830F010002268D06089B250
:105900002000FDF73CFD0FE0080605D5100603D585
:10591000200000F007F907E0480605D5500603D53A
:10592000200000F030F9FFE731BD0000ED5900081C
:1059300080B5416A0068006880060ED40020C884E3
:105940000868406930F080000A6850610868C068E3
:1059500050F040000968C86002E0080000F0AAFDAD
:1059600001BD000080B5406A00F0A5FD01BD80B515
:105970000100486A0968096889061FD40021C185A9
:105980000168C96831F480710268D16001684969B1
:1059900049084900026851610168496931F04001D4
:1059A00002685161202180F83E10016B012905D168
:1059B0000168C96831F010010268D160016B0129EA
:1059C00003D1818DFDF7DBFC01E000F075FD01BD29
:1059D00080B5406A016B012905D1818D490889B2E2
:1059E000FDF7CDFC01E000F068FD01BD10B5002120
:1059F000446A20684069C00910F0010094F83D1025
:105A0000212906D1002804D00020E084200000F0E5
:105A10005AF820684069800910F0010094F83E109F
:105A2000222906D1002804D00020E085200000F0C3
:105A300054F8206C50F010002064200000F039FD74
:105A400010BD13B5040013000198A062A3850020C7
:105A50002064222084F83E00DFF8EC03A16B88620A
:105A6000DFF8E803A16BC862DFF8E403A16B086309
:105A70000020A16B486301A89BB202682068011D49
:105A8000A06BFFF76FFB002000902068006800907B
:105A90002068406800900098002084F83C0020684E
:105AA000C06850F480702168C8602068406950F078
:105AB0000100216848612068406950F04000216879
:105AC0004861002016BD0168C96831F0C001026854
:105AD000D160202180F83D1070470168C96831F419
