:020000040800F2
:10000000700B002025440008F9420008FB4200085C
:10001000FD420008FF420008014300080000000004
:100020000000000000000000000000000343000882
:1000300005430008000000000743000809430008CA
:1000400095440008994400089D440008A144000814
:10005000A5440008A9440008AD440008B1440008C4
:10006000B5440008B9440008BD440008C144000874
:100070001B43000825430008C5440008C944000884
:10008000CD440008D1440008D5440008D9440008F4
:10009000DD440008E1440008E5440008E9440008A4
:1000A00000000000ED440008F1440008F544000899
:1000B000F9440008FD440008014500080545000812
:1000C000094500080D4500081145000815450008C0
:1000D00019450008114300081D4500082145000886
:1000E00025450008294500082D4500083145000830
:1000F000354500082DE9FC470400002C01D1012002
:1001000077E32068002809D0207810F01F0F05D170
:100110004FF4A871DFF8280A00F01EFEDFF87479AA
:100120003D6815F00C053E6816F480362078C0074F
:1001300072D5606800280BD06068012808D060681C
:10014000052805D040F25911DFF8F40900F004FE4B
:10015000082D04D00C2D0CD1B6F5803F09D1DFF865
:1001600030090068800357D56068002854D1012009
:100170003FE36068012806D1DFF81409016851F4F3
:100180008031016025E0606800280AD1DFF80009AD
:10019000016831F480310160016831F4802101602F
:1001A00017E0606805280AD1DFF8E408016851F417
:1001B00080210160016851F48031016009E0DFF8BD
:1001C000D008016831F480310160016831F4802188
:1001D0000160606800280FD000F0DCFD8046DFF889
:1001E000B0080068800317D400F0D4FDB0EB08001D
:1001F0006528F4D30320FCE200F0CCFD8046DFF854
:1002000090080068800307D500F0C4FDB0EB08003B
:100210006528F4D30320ECE2207880072DD5E06830
:10022000002808D0E068012805D04FF4C671DFF837
:10023000100900F091FD2069202805D340F28D11AE
:10024000DFF8FC0800F088FD042D03D00C2D25D12B
:10025000002E23D1DFF838080068800704D5E06855
:10026000012801D00120C4E2DFF82008016831F440
:10027000F851226951EA022101602078C00640F15C
:100280001481002D40F0B580DFF804080068800577
:1002900037D5A069002834D10120AAE2E0680028FF
:1002A0001CD00120DFF89C18086000F073FD0600E8
:1002B000DFF8DC070068800706D400F06BFD801BC8
:1002C0000328F5D3032094E2DFF8C007016831F476
:1002D000F851226951EA02210160CEE70020DFF8DF
:1002E0006418086000F056FD0600DFF8A4070068F7
:1002F0008007C2D500F04EFD801B0328F5D30320F4
:1003000077E2E069B0F5807F05D340F2D711DFF8DE
:10031000300800F021FD206A00281DD0206AB0F5C9
:10032000005F19D0206AB0F5804F15D0206AB0F573
:10033000C04F11D0206AB0F5004F0DD0206AB0F543
:10034000204F09D0206AB0F5404F05D04FF4EC7132
:10035000DFF8EC0700F000FDDFF83067306810F4DC
:100360006040216A884230D2206A00F0EDFB00280C
:1003700001D001203DE2316831F46041206A01433F
:100380003160306820F07F40E16950EA0160306000
:100390000121206A400B401C81404FF40040414342
:1003A000DFF824083A68C2F30312805CC140DFF82A
:1003B000E8060160DFF8E406006800F0F1FC0100E7
:1003C000C9B2002971D0C0B213E2316831F4604182
:1003D000206A01433160306820F07F40E16950EAD3
:1003E00001603060206A00F0AFFB0028D0D001200F
:1003F000FFE1A069002808D0A069012805D04FF4CA
:100400000271DFF83C0700F0A7FCA069002871D05A
:100410000120DFF8B817086000F0BCFC0600DFF828
:1004200070060068800506D400F0B4FC801B032829
:10043000F5D30320DDE1E069B0F5807F05D34FF40B
:100440000771DFF8FC0600F087FC206A00281DD049
:10045000206AB0F5005F19D0206AB0F5804F15D042
:10046000206AB0F5C04F11D0206AB0F5004F0DD012
:10047000206AB0F5204F09D0206AB0F5404F05D072
:1004800040F21D21DFF8B80600F066FCDFF8FC152D
:100490000A6832F46042206A02430A60086820F069
:1004A0007F40E26950EA026008602078000747D583
:1004B0006069002808D06069012805D04FF40F71E9
:1004C000DFF87C0600F048FC6069002825D0012098
:1004D000DFF8FC16086000F05DFC0600DFF85C0643
:1004E000006880072CD400F055FC801B0328F5D34E
:1004F00003207EE10020DFF8D416086000F04AFCFB
:100500000600DFF88C0500688005CED500F042FCBF
:10051000801B0328F5D303206BE10020DFF8B01621
:10052000086000F037FC0600DFF81006006880075E
:1005300006D500F02FFC801B0328F5D3032058E1DB
:100540002078400740F19C805FF00008A0680028F8
:100550000BD0A068012808D0A068052805D04FF46A
:100560001A71DFF8DC0500F0F7FBDFF86866306829
:10057000C0000AD4306850F080503060306810F00D
:100580008050009000985FF00108DFF84C96D9F891
:100590000000C00514D4D9F8000050F48070C9F8E8
:1005A000000000F0F7FB8246D9F80000C00507D430
:1005B00000F0F0FBB0EB0A006528F5D3032018E14A
:1005C000A068012806D1DFF87405016851F4807134
:1005D000016025E0A06800280AD1DFF86005016805
:1005E00031F480710160016831F48061016017E0CD
:1005F000A06805280AD1DFF84405016851F480613C
:100600000160016851F48071016009E0DFF82C0598
:10061000016831F480710160016831F4806101602A
:10062000A068002811D000F0B5FB8146DFF80C056A
:10063000006880051BD400F0ADFBB0EB090041F26F
:1006400089318842F2D30320D3E000F0A3FB814636
:10065000DFF8E8040068800509D500F09BFBB0EBEB
:10066000090041F289318842F2D30320C1E05FFAE8
:1006700088F8B8F1010F03D1306830F08050306055
:10068000606A00280BD0606A012808D0606A0228DE
:1006900005D04FF42B71DFF8A80400F05DFB606A11
:1006A000002800F0A5800C2D00F08B80606A0228E5
:1006B00074D1A06A002809D0A06AB0F5803F05D0A7
:1006C00040F2B521DFF8780400F046FBE06A00282C
:1006D00025D0E06AB0F5802F21D0E06AB0F5002F78
:1006E0001DD0E06AB0F5402F19D0E06AB0F5801F48
:1006F00015D0E06AB0F5A01F11D0E06AB0F5C01FB8
:100700000DD0E06AB0F5E01F09D0E06AB0F5001F37
:1007100005D040F2B621DFF8280400F01DFB206B65
:10072000B0F5800F0DD0206BB0F5000F09D0206B15
:10073000B0F5400F05D040F2B721DFF8040400F017
:100740000BFBDFF898640020306000F023FB80464C
:10075000DFF83C532868800107D500F01BFBB0EBA5
:1007600008000328F4D3032043E0396831F47D0105
:10077000A06A0143E06A0143206B01433960012014
:10078000306000F007FB04002868800130D400F0DE
:1007900001FB001B0328F7D303202AE00020DFF829
:1007A0003C14086000F0F6FA0400DFF8E402006888
:1007B00080011DD500F0EEFA001B0328F5D30320BD
:1007C00017E0606A012801D1012012E0386810F4B6
:1007D0008031A26A914209D110F47011E26A91420B
:1007E00004D110F44000216B884201D0012000E0C8
:1007F0000020BDE8F6872DE9F04104000D00002C33
:1008000001D101203FE1002D07D0012D05D040F29C
:100810002A31DFF82C0300F09FFADFF8C463306858
:1008200010F00100A84211D2012D03D1306850F020
:100830000400306030684008400028433060306871
:1008400010F00100A84201D001201CE120788007AF
:1008500027D5A06800281DD0A06880281AD0A068DD
:10086000902817D0A068A02814D0A068B02811D074
:10087000A068C0280ED0A068D0280BD0A068E028BF
:1008800008D0A068F02805D040F24131DFF8B0026E
:1008900000F062FA7F490A6832F0F002A068024371
:1008A0000A602078C00740F18180606800280ED07F
:1008B000606801280BD06068022808D060680328AF
:1008C00005D04FF45271DFF8780200F045FA606805
:1008D000022805D16E480068800319D40120D2E0B7
:1008E0006068032805D16A480068800110D401209F
:1008F000C9E06068012805D165480068800707D411
:100900000120C0E062480068800501D40120BAE0FF
:10091000604F39688908890060680143396000F0D8
:1009200039FA8046606802280ED1386810F00C0051
:1009300008283BD000F02EFAB0EB080041F28931D4
:100940008842F2D303209EE0606803280ED1386805
:1009500010F00C000C2829D000F01CFAB0EB0800B5
:1009600041F289318842F2D303208CE0606801288B
:100970000ED1386810F00C00042817D000F00AFAE5
:10098000B0EB080041F289318842F2D303207AE0CB
:10099000386810F00C0F09D000F0FCF9B0EB08003B
:1009A00041F289318842F3D303206CE0306810F0C3
:1009B0000100854211D2012D03D1306850F00400AE
:1009C000306030684008400028433060306810F0E4
:1009D0000100A84201D0012055E0207840071ED533
:1009E000E068002814D0E068B0F5806F10D0E068AF
:1009F000B0F5A06F0CD0E068B0F5C06F08D0E0682B
:100A0000B0F5E06F04D040F2AD314D4800F0A4F9EC
:100A100020490A6832F4E062E06802430A60207804
:100A200000071FD52069002814D02069B0F5806F19
:100A300010D02069B0F5A06F0CD02069B0F5C06F60
:100A400008D02069B0F5E06F04D04FF46D713C48D8
:100A500000F082F90F48016831F46051226951EACF
:100A6000C201016000F01CF8DFF85C11094A12684D
:100A7000C2F30312895CC840074908600748006850
:100A800000F08EF9C0B2BDE8F081000004380240E9
:100A90000038024008380240080000200000002012
:100AA00000B5504B186810F00C01042904D0082937
:100AB00004D00C2904D01BE04B4824E04B4822E032
:100AC0004B49C0F38342895CC0F38152521C1868C1
:100AD000C00306D54548A0FB0101002300F08EF9B4
:100AE00005E04148A0FB0101002300F087F90AE07E
:100AF00040480068C0F342300121401C11FA00F068
:100B00004FF40041484300BD3B480068704780B542
:100B1000FFF7FAFF3949334A1268C2F30222895CAF
:100B2000C84002BD80B5FFF7EFFF34492D4A126877
:100B3000C2F3C222895CC84002BD000034380240C2
:100B4000204200080000474218B40021254A1268DC
:100B500012F0F00F20D11F4B1A68D20004D51E4AA4
:100B6000126812F4C05210E01A6852F080521A60F3
:100B70001A6812F080520092009A174A126812F412
:100B8000C0521C6834F080541C60B2F5C05F03D1C1
:100B9000B0F5404F00D10121012904D1104802686D
:100BA00052F0040202600E480268520852000A43E2
:100BB0000260006810F00100884201D0012000E0CE
:100BC000002012BC70470000144400082000474277
:100BD00080064742243802400070004060004742CF
:100BE000003C0240083802400024F40000366E0148
:100BF00034440008043802400800002088440008FB
:100C000080B500F013FA00F047F800F021FA00F088
:100C1000D9FA00F071FB00F0E5FB00F001FC00F0F8
:100C200065FC00F031FD24E001200090414B0722DB
:100C30000A21414800F06AFE19E0012000903D4B76
:100C400007220A213D4800F061FE1021002000F03B
:100C500077FE02213A4801F028F80028E4D001206C
:100C60000090344B07220A21364800F04FFE00F076
:100C7000EAFC0021002000F063FE02212C4801F074
:100C800014F80028D9D0012000902A4B07220A210D
:100C90002D4800F03BFED8E780B594B007A834217A
:100CA00001F056F802A8142101F052F82748D0E9C3
:100CB0000023CDE900232648016831F4C05151F4E6
:100CC000006101601820079001200C9001200D9018
:100CD00000200E904FF420400F900020109007A8A5
:100CE000FFF708FA002801D000F034F80F20029036
:100CF0000020039000200490002005900020069022
:100D0000002102A8FFF777FD002801D000F022F8AB
:100D1000012000905FF400300190684601F01CF85B
:100D2000002801D000F016F815B000BD000000004A
:100D300000040240A838000878440008684400080D
:100D4000000002407044000860440008804400082D
:100D50000070004072B6FEE7704730B4002513E023
:100D600050F8042BD30744BFA9F101039A18091FB7
:100D7000042942F8045BFAD213468C0744BF15805D
:100D80009B1CC90748BF1D7050F8041B0029E7D100
:100D900030BC704701480068704700BF6403002002
:100DA00038B5040000251249086800281BD04FF40C
:100DB0007A700968B0FBF1F00E490968B1FBF0F0F8
:100DC00001F04AF900280CD1102C08D20022210091
:100DD0005FF0FF3001F011F90748046004E00125DD
:100DE00002E0012500E001252800C0B232BD00BFAD
:100DF000040000200800002000000020BBBBE1B17F
:100E0000B2F5803F80F07E80022A1ED98C46B1FB6D
:100E1000F2F102FB11C31B0443EA1043B3FBF2FCE3
:100E200002FB1C3380B240EA0343B3FBF2F002FB47
:100E3000103240EA0C4000237047022A05D984464C
:100E4000B0FBF2F002FB10C270474AB105D100F0CE
:100E5000010249085FEA3000704700220023704712
:100E600001F010B90B0002000021002070479042F1
:100E700071EB030CF6D3B3F5803F2FD2F0B5B3FA84
:100E800083F7B1FA81F4A7F10F0E3D1B5340CEF169
:100E9000200602FA0EF2F3415340B5F10F0746D88F
:100EA0000F3C2C444140C4F12006A040F141414098
:100EB000B1FBF3F603FB1611A2FB0645001BA9418B
:100EC00002D2761E8018594180EA010221FA0EF3FF
:100ED00062FA0EF200215A403046F0BD30B4B1FB48
:100EE000F3FC03FB1C11A2FB0C45001BA94103D220
:100EF000ACF1010C8018594130BC02460B466046EB
:100F000000217047B2F1807F65D3F0B5B2FA82F765
:100F1000B1FA81F4C7F10F063D1B22FA06F307F17F
:100F2000110EF24120355A40B5F10F07B8D94140B2
:100F3000C4F12006A040F1414140B1FBF3FC03FBAA
:100F40001C11A2FB0C45001BA94103D2BCF1010CF2
:100F5000801859410F2F12D30F3FC90341EA504166
:100F6000B1FBF3F603FB1611A2FB0645D4EBC03030
:100F7000A94102D2761E8018594146EACC3C07B3FB
:100F80004140C7F12006B840F1414140B1FBF3F6C2
:100F900003FB1611A2FB0645001BA94102D2761ED7
:100FA0008018594180EA010221FA0EF3C7F12004AA
:100FB00062FA0EF20CFA07F05A402CFA04F13043B0
:100FC000F0BD80EA010221FA0EF3002162FA0EF26E
:100FD00060465A40F0BD8C46B1FBF2F102FB11C3F2
:100FE0001B0243EA1063B3FBF2FC02FB1C331B023F
:100FF0004CEA002043EA1063B3FBF2FC02FB1C3313
:101000001B024CEA002043EA1063B3FBF2FC02FB34
:101010001C331B024CEA002043EA1063B3FBF2FCD2
:1010200002FB1C324CEA00200023704710B500245C
:10103000032000F0CDFF0F20FFF7B2FE002801D003
:10104000012401E001F020F82000C0B210BD000032
:1010500070B586B06846142100F07AFE54480168E5
:1010600051F004010160016811F004010591059936
:10107000016851F020010160016811F02001059123
:101080000599016851F001010160016811F0010149
:1010900005910599016851F002010160006810F0A6
:1010A000020005900598434C00224421200000F0E6
:1010B00011FE4CF2F105404E00222900300000F0F4
:1010C00009FE4FF400500090032001900020029090
:1010D00069463A4800F046FC032000900320019046
:1010E000002002906946364800F03CFC0220009047
:1010F00000200190002002906946200000F032FCA0
:1011000044200090012001900020029000200390D4
:101110006946200000F026FC4FF4004000900120BA
:10112000019001200290032003906946200000F006
:1011300019FC01224FF40041200000F0CBFD4FF4D8
:1011400084700090032001900020029069462000E6
:1011500000F008FC00950120019000200290002082
:1011600003906946300000F0FDFB02200090002053
:101170000190002002906946300000F0F3FB43F636
:101180000400009000200190002002906946300089
:1011900000F0E8FB4FF4E060009003200190002095
:1011A00002906946300000F0DDFB06B070BD00BF64
:1011B0001C380240000002400004024000080240C7
:1011C000001402401CB54248D0E90023CDE90023B9
:1011D000404C41482060200000F07AFF002801D0F8
:1011E000FFF7B8FD242000900020019000226946FE
:1011F000200000F08EFF002801D0FFF7ABFD102289
:101200006946200000F085FF002801D0FFF7A2FD0D
:1012100013BDF8B586B0040001A8142100F098FDB4
:1012200020682D49884251D12C48016851F0005165
:101230000160006810F00050009000982848016894
:1012400051F001010160006810F001000090009869
:1012500030200190032002900020039001A9214832
:1012600000F080FB204D214828601020686000209D
:10127000A8608020E8604FF480762E614FF480678C
:101280006F610020A8610020E861280000F0A6FF3F
:10129000002801D0FFF75EFDA5606C62144D154873
:1012A0002860102068600020A8608020E8602E611F
:1012B0006F610020A8610020E861280000F08EFF27
:1012C000002801D0FFF746FDE5606C6207B0F0BD75
:1012D00058440008500300200074004024380240A5
:1012E0001C38024000000240640200201C600240E2
:1012F000A80200203060024080B5344834490160C3
:101300004FF482714160002181600021C1600021A1
:101310000161002141614FF4007181610021C161CF
:101320000021016200214162002181620A21C16223
:1013300001F0E4F8002801D0FFF70CFD01BD10B565
:1013400086B004006846142100F002FD20682049A0
:10135000884238D11F48016851F48051016000680B
:1013600010F48050059005981B48016851F0010168
:101370000160016811F0010105910599016851F0C2
:1013800002010160006810F00200059005988020BD
:10139000009002200190002002900320039005207D
:1013A000049069460D4800F0DDFA08200090022004
:1013B00001900020029003200390052004906946CC
:1013C000074800F0CFFA06B010BD00000C02002064
:1013D00000300140203802401C380240000002402A
:1013E0000004024080B50D48016851F08071016031
:1013F000006810F0807000900098002200210C20FE
:1014000000F0FBFD0C2000F017FE002200210D2053
:1014100000F0F3FD0D2000F00FFE01BD1C3802406E
:101420001FB501A800210022002380E80E002B48F0
:10143000006800902A4C2B482060002060607F20CC
:10144000A060FF20E060002020610020606100209B
:10145000A061200001F004FB002801D0FFF77AFC16
:1014600000208DF8040000208DF8050000208DF884
:1014700006000020029000200390012201A9200014
:1014800001F0A5FB002801D0FFF764FC01208DF8D6
:10149000000001208DF8010001208DF802000020DD
:1014A0008DF8030001226946200001F0A9FC002804
:1014B00001D0FFF74FFC00220021200001F0D6FDF3
:1014C000002801D0FFF746FC1FBD0068054988428F
:1014D00002D10120044908607047000090440008D0
:1014E0003003002000280040D806474280B5294834
:1014F000294901605FF4E1314160002181600021F0
:10150000C160002101610C2141614FF44071816192
:101510000021C16101F02EFE002801D0FFF71AFC66
:1015200000220021252000F068FD252000F084FD28
:1015300001BD10B586B0040001A8142100F008FC1C
:1015400020681549884222D11448016851F480412D
:101550000160006810F48040009000981048016815
:1015600051F001010160006810F001000090009846
:101570004FF4F050019002200290002003900320CD
:1015800004900720059001A9064800F0EBF906B089
:1015900010BD0000EC02002000380140203802405D
:1015A0001C3802400000024031B50C0000224021EE
:1015B000DFF8980300F08EFBDFF8945300224FF41D
:1015C0000041280000F086FB4FF47A73220092B2AB
:1015D0006946DFF8800301F0C1F801224FF40041B1
:1015E000280000F077FB31BD70B504000D0001222A
:1015F0004021DFF8580300F06DFBD54E00224FF478
:101600000041300000F066FB4FF47A732A0092B27A
:101610002100D04801F0A2F801224FF4004130002F
:1016200000F058FB70BD002109E0FF2204E0020039
:10163000D2B2002AF9D10022C74B5A54491CB1F545
:10164000007FF4D3704710B5002418E00121B4F1F5
:101650005000C0B2FFF7A8FF01210020FFF7A4FF50
:1016600001211020FFF7A0FF8021BB4A2300DBB23D
:101670008020434302EB0300FFF7B6FF641C200009
:10168000C0B20428E2DB10BD10B501224FF40041C6
:10169000AF4800F01FFBAD4C00221021200000F0ED
:1016A00019FB00222021200000F014FB642002F02E
:1016B000C9F801222021200000F00CFB642002F078
:1016C000C1F80121AE20FFF76FFF0121D520FFF700
:1016D0006BFF01218020FFF767FF0121A820FFF7A2
:1016E00063FF01211F20FFF75FFF0121D320FFF7D8
:1016F0005BFF01210020FFF757FF01214020FFF78A
:1017000053FF01218D20FFF74FFF01211420FFF728
:101710004BFF0121A120FFF747FF0121C820FFF760
:1017200043FF0121DA20FFF73FFF01210020FFF7EF
:101730003BFF01218120FFF737FF01218F20FFF7B9
:1017400033FF0121D920FFF72FFF01211F20FFF7D1
:101750002BFF0121DB20FFF727FF01214020FFF7AE
:1017600023FF0121A420FFF71FFF012210212000E9
:1017700000F0B0FA0020FFF756FFFFF764FF0121E9
:10178000AF20FFF711FF642002F05CF800207349DE
:10179000087000207249087010BDF0B40300DBB27D
:1017A000802B03DA0B00DBB2202B00DB44E0D2B24B
:1017B000012A20D10B00DBB20824674D0600F6B2E7
:1017C0000A00D2B2082792FBF7F7802202FB0766D5
:1017D000C0B2C9B2082291FBF2F2802101FB0200E3
:1017E000285C012193FBF4F204FB123311FA03F39A
:1017F0000343AB5520E00B00DBB20824564D060036
:10180000F6B20A00D2B2082792FBF7F7802202FB59
:101810000766C0B2C9B2082291FBF2F2802101FB37
:101820000200285C012193FBF4F204FB123311FA4D
:1018300003F330EA0303AB55F0BC70472DE9FE4FCC
:1018400005002800C0B220385F2800D320251600EC
:10185000424F3A783000C0B28218812A0ADA8DF8F5
:101860000010DFF8FC8098F800109DF80000411887
:10187000212901DB002047E05FF0000901930C9C67
:1018800001E019F101099DF80000814537D2019866
:101890002900C9B220399DF8002002FB019130F8DF
:1018A00011A05FF0000B14E0002204E02000C0B2A1
:1018B0000028F9D10122D2B298F8001019EB0101E9
:1018C000C9B238781BEB0000C0B2FFF766FF1BF10E
:1018D000010B3000C0B28345D3D21AFA0BF00004DA
:1018E000E4D52200D2B298F8001019EB0101C9B278
:1018F00038781BEB0000C0B2FFF74FFFE7E73878FE
:1019000036183E702800C0B2BDE8FE8F2DE9FC41BC
:1019100005000E0017009846089C0BE02000C0B29E
:10192000009043463A00D2B23100C9B22878FFF79E
:1019300085FF6D1C28780028F0D12878BDE8F68155
:10194000064A10700648017070470000000402400B
:10195000000002400C0200200C0000206803002060
:10196000690300202DE9F843050088460027002080
:101970000020DFF8A863B54218D0DFF8A403854241
:1019800014D0DFF8A003854210D0DFF89C03854215
:101990000CD0DFF89803854208D0DFF89403854225
:1019A00004D0B121DFF88C03FFF7D6F9D8F8000096
:1019B000000405D0D8F80000000C0004002804D072
:1019C000B221DFF87003FFF7C7F9D8F80400002848
:1019D00072D0D8F8040001286ED0D8F8040011287D
:1019E0006AD0D8F80400022866D0D8F8040012287B
:1019F00062D0D8F80400B0F5881F5DD0D8F8040094
:101A0000B0F5041F58D0D8F80400B0F5441F53D0E7
:101A1000D8F80400B0F5901F4ED0D8F80400B0F507
:101A2000081F49D0D8F80400B0F5481F44D0D8F8B2
:101A30000400032840D0B321DFF8F802FFF78CF947
:101A40003AE0052304E0DFF8E4028542F9D10423FB
:101A500017F00300C0B2800083401A4338008008AA
:101A600041F82020DFF8D0120868A043D8F80420FD
:101A7000D20300D520430860DFF8C0120868A043F5
:101A8000D8F80420920300D520430860DFF8B01294
:101A90000868A043D8F80420D20200D5204308608B
:101AA000DFF8A0120868A043D8F80420920201D5FC
:101AB0000443200008607F1CD8F80000F84000288C
:101AC00000F0F1805FF00109D8F8004019FA07F042
:101AD0000440002CEFD098F8040010F00300012817
:101AE00005D098F8040010F0030002282FD1D8F890
:101AF0000C00002810D0D8F80C0001280CD0D8F821
:101B00000C00022808D0D8F80C00032804D0C32108
:101B1000DFF82002FFF720F9A96803223800C0B2DD
:101B2000400082409143D8F80C203800C0B24000F9
:101B300082401143A960686819FA07F930EA090080
:101B4000D8F80410C1F30011B9400843686098F850
:101B5000040010F0030003281FD0D8F80800002864
:101B60000CD0D8F80800012808D0D8F808000228BE
:101B700004D0D421DFF8BC01FFF7EEF8E9680322B6
:101B80003800C0B2400082409143D8F808203800A5
:101B9000C0B2400082401143E96098F8040010F0A0
:101BA000030002283CD1B54218D0DFF87401854209
:101BB00014D0DFF87001854210D0DFF86C01854247
:101BC0000CD0DFF86801854208D0DFF86401854257
:101BD00004D0E121DFF85C01FFF7BEF8D8F810006F
:101BE000102804D3E221DFF84C01FFF7B5F83800E4
:101BF000C00805EB8000016A0F2217F00700C0B291
:101C0000800082409143D8F8102017F00700C0B23E
:101C10008000824011433800C00805EB800001625B
:101C2000296803223800C0B240008240914398F8EE
:101C3000042012F003023800C0B240008240114379
:101C40002960D8F8040010F4403F3FF434AFDFF8C7
:101C5000F800016851F001010160006810F0010016
:101C600000900098DFF8E4103800800851F8202038
:101C70000F2317F00300C0B2800083409A43B5429F
:101C800001D10023E4E62648854201D10123DFE6A5
:101C90002448854201D10223DAE6234885427FF4B5
:101CA000D2AE0323D4E6BDE8F18338B504000D00BD
:101CB000280080B2002804D14FF4C1711D48FFF7FD
:101CC0004BF82069ADB2284201D0012000E000208D
:101CD000C0B232BD70B505000E001400300080B2F5
:101CE000002804D14FF4D0711248FFF735F82000D6
:101CF000C0B2002808D02000C0B2012804D040F2B1
:101D0000A1110C48FFF728F8E4B2002C02D0B6B2BB
:101D1000AE6102E0B6B23604AE6170BD00000240B2
:101D20000004024000080240000C02400010024083
:101D30000014024060400008000401400404014017
:101D4000080401400C040140203802400800014012
:101D5000002201F08BBD00002DE9F843040020684B
:101D6000012803D062215948FEF7F6FF2078C0070A
:101D700040F1A9802078C0071ED5606800281BD0DC
:101D80006068B0F5803F17D06068B0F5003F13D0B1
:101D90006068B0F5403F0FD060684D4988420BD075
:101DA00060684C49884207D060684B49884203D03C
:101DB0006E214648FEF7D0FF0026484D2868C00037
:101DC00009D4286850F080502860286810F08050AE
:101DD000009000980126424F3868C00511D4386839
:101DE00050F480703860FEF7D5FF80463868C00533
:101DF00007D4FEF7CFFFB0EB08006528F6D3032029
:101E000062E0384F386810F0C040616811F0C0419E
:101E100088420AD0606810F44030B0F5403F04D1E9
:101E20003868800301D501204EE0DFF8BC80D8F887
:101E3000000010F44030002825D0616811F44031D2
:101E4000884220D02078C0071DD5D8F8000030F493
:101E50004030264901220A6000220A60C8F80000CA
:101E6000C00510D5FEF796FF8146D8F80000800522
:101E700009D4FEF78FFFB0EB090041F289318842A7
:101E8000F3D3032020E02078C00715D5606810F454
:101E90004030B0F5403F07D1386830F0C04061684D
:101EA00011F0C04108433860D8F80000616811F4AF
:101EB00040310843C8F80000F6B2012E03D128686B
:101EC00030F0805028600020BDE8F283AC4000086C
:101ED000000003200000034000000360243802409B
:101EE000007000400038024034380240DC064742AF
:101EF00010F00700DFF868311A684FF6FF010A405A
:101F0000DFF8601151EA00210A431A607047DFF8D8
:101F100050010068C0F302207047010049B2002957
:101F200009D4012210F01F018A40DFF83C1140B2B1
:101F3000400941F820207047020052B2002A05D41F
:101F40000901DFF8282140B2115408E00901DFF847
:101F5000202140B210F00F00104400F8041C70471C
:101F600010B410F00700D0F10703052B01D30423B0
:101F700001E0D0F10703041D072C01D2002000E08E
:101F8000C01E012414FA03F35B1E1940814014FAA9
:101F900000F0401E1040084310BC704780B5411E41
:101FA000B1F1807F01D3012011E0401EDFF8C410A1
:101FB00008600F215FF0FF30FFF7BEFF0020DFF861
:101FC000B81008600720DFF8B4100860002002BDD8
:101FD00010B50400072C0CD0062C0AD0052C08D014
:101FE000042C06D0032C04D0AC21DFF89400FEF7BB
:101FF000B3FE2000FFF77CFF10BD70B504000D009C
:1020000016000020102E04D3C421DFF87400FEF760
:10201000A3FE102D04D3C521DFF86400FEF79CFE5B
:10202000FFF775FF32002900FFF79AFF010020003B
:1020300040B2FFF781FF70BD10B50400200040B230
:10204000002804D5D821DFF83800FEF785FE2000EF
:1020500040B2FFF762FF10BD80B5FFF79FFF02BDE2
:102060000CED00E00000FA0500E100E000E400E013
:1020700018ED00E014E000E018E000E010E000E0FF
:10208000144000087047000081B00F48016851F00B
:1020900000410160016811F00041009100990B4975
:1020A0000A6852F001020A60096811F0010100910A
:1020B0000099016851F080510160006810F0805073
:1020C0000090009801B07047243802402038024048
:1020D00010B50400002C01D1012019E02068DFF8C0
:1020E000F410884205D04FF49171DFF8EC00FEF750
:1020F00033FE2079002804D1002060712000FFF712
:1021000088F8022020710020206101202071002029
:1021100010BD70B505000E0014003068002819D0FD
:102120003068042816D03068142813D030681C2872
:1021300010D0306824280DD030682C280AD03068A0
:10214000342807D030683C2804D040F2B13122480E
:10215000FEF702FE7068002807D07068022804D0DD
:1021600040F2B2311C48FEF7F7FD002C06D0102CCF
:1021700004D040F2B3311848FEF7EEFD687901282B
:1021800001D1022024E00120687102202871286812
:10219000016840F6FE7214F01000824091433268EC
:1021A0007068024314F010008240114328680160F7
:1021B00028680068C02114F0100411FA04F430EA11
:1021C0000404286804600120287100206871002040
:1021D00070BD0000007400409041000810B504007C
:1021E000002C01D10120AAE02068DFF854118842B8
:1021F0001ED02068DFF84C11884219D02068DFF823
:102200004811884214D02068DFF8401188420FD06E
:1022100020684F4988420BD020684E49884207D039
:1022200020684D49884203D09A214C48FEF794FD1E
:10223000606800280AD06068102807D06068B0F590
:10224000804F03D09B214548FEF786FDA0684028BB
:1022500006D0A068002803D09C214048FEF77CFDF2
:10226000E068802806D0E068002803D09D213B4824
:10227000FEF772FD206900280BD02069B0F5807F41
:1022800007D02069B0F5007F03D09E213348FEF7C8
:1022900063FD606900280BD06069B0F5806F07D0DE
:1022A0006069B0F5006F03D09F212C48FEF754FD04
:1022B000A069002806D0A069202803D0A0212748C3
:1022C000FEF74AFDE06900280FD0E069B0F5805FB5
:1022D0000BD0E069B0F5005F07D0E069B0F5405F72
:1022E00003D0A1211D48FEF737FD21681C48411885
:1022F0001420B1FBF0F0800020641A48E063022053
:1023000084F82100206801686FF30E116268A068EC
:102310000243E06802432069024360690243A06906
:102320000243E06902431143206801600020A0637A
:10233000012084F82100002084F82000002010BD36
:10234000086002401C60024030600240446002406D
:10235000586002406C60024080600240D841000832
:10236000F89FFDBF00600240002190F82120022A62
:1023700006D004218163002180F8201001201BE099
:102380000268126832F00E0203681A60026812686E
:102390005208520003681A60012290F8403013F08E
:1023A0001C039A40C36B5A60012280F8212000224E
:1023B00080F820200800C0B2704710B5002490F8C3
:1023C0002110022903D00421816301241EE0016849
:1023D000096831F00E010268116001680968490856
:1023E000490002681160012190F8402012F01C029F
:1023F0009140C26B5160012180F82110002180F8CA
:102400002010416B002901D0416B88472000C0B2E9
:1024100010BD10B5C16B0A6801680B68042190F803
:10242000404014F01C0411FA04F4224218D05C0756
:1024300016D502681268920605D40268126832F056
:10244000040203681A6090F8402012F01C029140C8
:10245000C26B5160C16A00294FD0C16A88474CE005
:10246000022190F8404014F01C0411FA04F42242B6
:102470001ED09C071CD502681268920608D4026818
:10248000126832F00A0203681A60012280F82120E3
:1024900090F8402012F01C029140C26B5160002164
:1024A00080F82010816A002927D0816A884724E0BB
:1024B000082190F8404014F01C04A1400A421CD0AE
:1024C00019071AD50168096831F00E010268116018
:1024D000012190F8402012F01C029140C26B516023
:1024E00001218163012180F82110002180F8201052
:1024F000016B002901D0016B884710BD10B50400A5
:10250000002C01D1012028E12068DFF81414884252
:102510000AD02068DFF80C14884205D04FF4A1716E
:10252000DFF80404FEF718FC6068002809D0606832
:10253000B0F5827F05D040F24311DFF8EC03FEF7DF
:102540000BFCA06800280DD0A068B0F5806F09D002
:10255000A068B0F5004F05D04FF4A271DFF8C803B2
:10256000FEF7FAFBE068B0F5006F08D0E0680028DD
:1025700005D040F24511DFF8B003FEF7EDFBA0698E
:10258000B0F5007F0CD0A069002809D0A069B0F593
:10259000802F05D04FF4A371DFF88C03FEF7DCFB2E
:1025A000E06900281AD0E069082817D0E0691028EF
:1025B00014D0E069182811D0E06920280ED0E06915
:1025C00028280BD0E069302808D0E069382805D0E9
:1025D00040F24711DFF85003FEF7BEFB206A0028E7
:1025E00008D0206A802805D04FF4A471DFF83803A2
:1025F000FEF7B2FB606A002805D040F24B11DFF80D
:102600002803FEF7A9FB606A00283DD12069002855
:1026100008D02069022805D04FF4A771DFF808031D
:10262000FEF79AFB6069002808D06069012805D090
:1026300040F24F11DFF8F002FEF78EFB6068B0F554
:10264000827F1ED1E069002840D0E06908283DD093
:10265000E06910283AD0E069182837D0E0692028CE
:1026600034D0E069282831D0E06930282ED0E069E4
:1026700038282BD040F25311DFF8AC02FEF76CFB88
:1026800024E00020E06121E0E06900281AD0E06940
:10269000082817D0E069102814D0E069182811D054
:1026A000E06920280ED0E06928280BD0E0693028A6
:1026B00008D0E069382805D040F25D11DFF86802E3
:1026C000FEF74AFB00202061002060610020A0622C
:1026D00094F85100002805D1002084F85000200013
:1026E000FEF72DFE022084F851002068006830F0CB
:1026F000400021680860606810F48270A16811F4DD
:1027000004410843E16811F400610843217C11F0A1
:1027100002010843217D11F001010843A16911F470
:1027200000710843217F11F03801084394F820100C
:1027300011F080010843A16A11F400510843216897
:102740000860A069000C10F00400216848600020B7
:102750006065012084F85100002010BD2DE9F84388
:1027600006000D0091461C000027B068002809D023
:10277000B068B0F5004F05D040F21131DFF8A80184
:10278000FEF7EAFA96F85000012801D10220C5E0D0
:10279000012086F85000FEF7FDFA8046494696F87B
:1027A0005100012801D00227B0E0002D03D0484697
:1027B00080B2002801D10127A8E0032086F851004B
:1027C000002070653563A6F83490A6F83690002096
:1027D000B0630020B0870020F087002070640020E4
:1027E0003064B068B0F5004F0BD13068006830F04D
:1027F0004000326810603068006850F480403268F1
:10280000106030680068400605D43068006850F0F9
:10281000400032681060F068B0F5006F2ED170682B
:10282000002802D089B2012914D1306B00883168A8
:10283000C860306B801C3063F08E401EF08609E06B
:10284000306B00883168C860306B801C3063F08E5C
:10285000401EF086F08E00283FD0306880688007E8
:10286000EED4FEF797FAB0EB0800A04202D314F1C1
:10287000010F01D1002CEDD1032747E0706800283B
:1028800002D089B2012914D1306B00783168087305
:10289000306B401C3063F08E401EF08609E0306BD8
:1028A000007831680873306B401C3063F08E401E36
:1028B000F086F08E002810D0306880688007EED453
:1028C000FEF768FAB0EB0800A04202D314F1010F42
:1028D00001D1002CEDD1032718E042462100300041
:1028E00000F08DF8002801D020207065B068002825
:1028F00008D1002000903068C0680090306880687F
:1029000000900098706D002800D00127012086F803
:102910005100002086F850003800C0B2BDE8F283B4
:102920000030014000380040B04200082DE9F84373
:1029300005000E0017009846089CFEF72BFAB8EB2E
:1029400000002418FEF726FA8146DFF80C01006823
:102950004001000D00FB04F0009006E00098002804
:1029600000D100240098401E009028688068304004
:10297000B04201D1012000E000203900C9B28842F4
:102980003AD018F1010FF0D0FEF704FAB0EB0900CD
:10299000A04201D2002CE1D12868406830F0E0006C
:1029A000296848606868B0F5827F0DD1A868B0F5E5
:1029B000004F03D0A868B0F5806F05D12868006883
:1029C00030F0400029680860A86AB0F5005F0BD1BC
:1029D0002868006830F4005029680860286800689A
:1029E00050F4005029680860012085F8510000204B
:1029F00085F85000032000E00020BDE8F2831CB5FC
:102A000004000B00144800681821B0FBF1F01349D2
:102A1000B0FBF1F14FF47A70414300916068B0F57A
:102A2000827F14D10092002280212000FFF77EFFD8
:102A300000280FD0606D50F02000606503200AE090
:102A40000098401E009020688068000602D500981B
:102A50000028F5D1002016BD0800002040420F00DC
:102A600010B50400002C01D10120AFE02068DFF890
:102A70005015884204D0FC21DFF84805FEF76CF9B8
:102A80006068402807D06068002804D0FD21DFF886
:102A90003405FEF761F9A068802804D3FE21DFF831
:102AA0002405FEF759F9E068B0F5005F04D3FF2173
:102AB000DFF81005FEF750F92069002811D02069D1
:102AC000B0F5001F0DD02069B0F5800F09D0206946
:102AD000B0F5C00F05D04FF48071DFF8E804FEF7C1
:102AE0003BF96069002809D06069B0F5801F05D006
:102AF00040F20111DFF8CC04FEF72EF9A06900289E
:102B000009D0A069B0F5802F05D04FF48171DFF8AE
:102B1000B404FEF721F9607F002804D1002020775B
:102B20002000FEF7D2FC02206077CA2021684862AC
:102B3000532021684862200000F066FA002806D081
:102B4000FF20216848620420607701203EE0206871
:102B50008168DFF874040140206881602068816822
:102B60006268206902436069024311432068816002
:102B7000E0682168086120680069A16850EA0140A6
:102B8000216808612068C06830F080002168C86052
:102B9000200000F01FFA002806D0FF2021684862BC
:102BA00004206077012011E02068006C30F4802060
:102BB000216808642068016CA069014320680164F1
:102BC000FF202168486201206077002010BDF8B521
:102BD00005000E001400002C07D0012C05D040F297
:102BE000E621DFF8E003FEF7B7F87068B0F5003FC4
:102BF0000CD07068B0F5803F08D07068002805D010
:102C000040F2E721DFF8BC03FEF7A6F8B068002821
:102C100009D0B068B0F5802F05D04FF43A71DFF8D5
:102C2000A403FEF799F8287F012801D10220E6E0ED
:102C30000120287702206877002C4FD1286880680F
:102C4000400618D53078002802D030780D2805D3FA
:102C500040F2F321DFF86C03FEF77EF8F0780028ED
:102C600014D0F078402811D04FF43D71DFF85403B0
:102C7000FEF772F80AE00020F0703078182805D3CB
:102C800040F2F921DFF83C03FEF766F870783C2843
:102C900005D340F2FB21DFF82C03FEF75DF8B07896
:102CA0003C2805D34FF43F71DFF81803FEF754F8C2
:102CB000307800F0C5F90700707800F0C1F9040021
:102CC000B07800F0BDF9FFB2E4B2240254EA074440
:102CD000C0B20443F07854EA00444DE028688068AC
:102CE00040061CD5307800F0B7F9002804D03078C1
:102CF00000F0B2F90D2805D340F20731DFF8C40225
:102D0000FEF72AF8F078002816D0F078402813D083
:102D10004FF44271DFF8AC02FEF71EF80CE0002021
:102D2000F070307800F098F9182805D340F20D3192
:102D3000DFF89002FEF710F8707800F08DF93C286B
:102D400005D340F20F31DFF87C02FEF705F8B078CA
:102D500000F082F93C2805D34FF44471DFF8640297
:102D6000FDF7FAFF30787478240254EA0044B07812
:102D70000443F07854EA0044CA202968486253208A
:102D800029684862280000F03FF9002808D0FF2099
:102D900029684862042068770020287701202EE007
:102DA000DFF828020440286804602868806830F44E
:102DB000802029688860286881687268B06802434A
:102DC0001143286881602868C06830F08000296855
:102DD000C860280000F0FEF8002808D0FF2029680D
:102DE00048620420687700202877012007E0FF2050
:102DF0002968486201206877002028770020F2BD0A
:102E0000F8B505000E001400002C07D0012C05D0E9
:102E100040F29731DFF8AC01FDF79EFF287F0128D3
:102E200001D10220CBE00120287702206877002C16
:102E300007D17078C00604D5707810F0EF000A3022
:102E400070703078012817D03078022814D030788C
:102E5000032811D0307804280ED0307805280BD004
:102E60003078062808D03078072805D040F2A33102
:102E7000DFF85001FDF770FF002C36D1F0786428A0
:102E800005D340F2A731DFF83C01FDF765FF70780C
:102E9000002802D070780D2805D34FF46A71DFF84E
:102EA0002401FDF759FFB078002802D0B07820281F
:102EB00005D340F2A931DFF80C01FDF74DFFF078A2
:102EC00000F0BEF80700707800F0BAF80400B0789F
:102ED00000F0B6F8FFB2E4B2240254EA0744C0B2EC
:102EE0000443307854EA403434E0F07800F0B4F829
:102EF000642805D340F2B231DFF8C800FDF72CFF9B
:102F0000707800F0A9F8002804D0707800F0A4F8D8
:102F10000D2805D340F2B331DFF8A800FDF71CFF00
:102F2000B07800F099F8002804D0B07800F094F858
:102F3000202805D34FF46D71DFF88800FDF70CFFF2
:102F4000F0787478240254EA0044B078044330786E
:102F500054EA4034CA2029684862532029684862EC
:102F6000280000F051F8002808D0FF2029684862A6
:102F70000420687700202877012020E0DFF8500047
:102F80000440286844602868C06830F080002968E0
:102F9000C860280000F01EF8002808D0FF2029682B
:102FA00048620420687700202877012007E0FF208E
:102FB0002968486201206877002028770020F2BD48
:102FC0000028004068420008BFFF8FFF7F7F7F001E
:102FD0003FFFFF0038B504002068C06830F0A00053
:102FE0002168C860FDF7D6FE05002068C06880062D
:102FF00008D4FDF7CFFE401B40F2E9318842F4D3FC
:10300000032000E0002032BD38B504002068C0680D
:10301000400613D45FF0FF302168C860FDF7BAFEA8
:1030200005002068C068400608D4FDF7B3FE401BC9
:1030300040F2E9318842F4D3032000E0002032BDA1
:10304000002101E0491C0A380200D2B20A2AF9D252
:1030500050EA0110C0B270470200D2B212090A2130
:103060004A4310F00F008018C0B27047F8B5050051
:103070000E001400002C0FD0012C0DD0022C0BD010
:10308000032C09D0042C07D0062C05D040F21531B2
:10309000DFF8DC00FDF760FEB6F5803F05D340F2B7
:1030A0001631DFF8CC00FDF757FE287F012801D14B
:1030B00002205CE00120287702206877CA20296876
:1030C000486253202968486228688068400516D500
:1030D000FDF760FE07002868C06840070FD5FDF7C0
:1030E00059FEC01B40F2E9318842F4D3FF20296821
:1030F00048620320687700202877032037E028689B
:10310000806830F4806029688860FDF743FE07001E
:103110002868C06840070FD4FDF73CFEC01B40F292
:10312000E9318842F4D3FF20296848620320687798
:103130000020287703201AE028688068C008C000B3
:103140002968886028688068044328688460286843
:1031500046612868806850F4806029688860FF2094
:103160002968486201206877002028770020F2BD96
:10317000F840000810B50400002C01D101208DE0BA
:10318000A06900282AD02068DFF8141188420FD0E7
:103190002068DFF8101188420AD02068DFF8081193
:1031A000884205D040F26B11DFF80001FDF7D4FD35
:1031B000A069002827D0A069B0F5807F23D0A0693E
:1031C000B0F5007F1FD0A069B0F5407F1BD04FF451
:1031D000B671DFF8D800FDF7BFFD14E02068DFF816
:1031E000C01088420FD02068DFF8B81088420AD09B
:1031F0002068DFF8B410884205D04FF4B871DFF8CA
:10320000AC00FDF7A9FDA068002809D0A068B0F5C2
:10321000805F05D04FF4B971DFF89000FDF79CFD99
:10322000E069002809D0E069B0F5004F05D040F210
:103230007311DFF87800FDF78FFD94F83D0000284A
:1032400005D1002084F83C002000FEF772F924200C
:1032500084F83D002068C06830F400502168C860E0
:10326000200000F006FA2068006930F490402168E0
:1032700008612068406930F02A00216848612068B0
:10328000C06850F400502168C860002020642020ED
:1032900084F83D00202084F83E00002010BD00008E
:1032A000003801400044004000480040444100080C
:1032B00038B50400206801682068C2682068436946
:1032C0000020002011F00F00002807D18D0605D541
:1032D000950603D5200000F05EF9F7E0002872D0D3
:1032E000D80702D412F4907F6DD011F00100C0B263
:1032F000002805D0D00503D5206C50F001002064D3
:10330000480708D513F00100C0B2002803D0206C94
:1033100050F002002064880708D513F00100C0B205
:10332000002803D0206C50F00400206408070AD560
:10333000900604D413F00103DBB2002B03D0206C01
:1033400050F008002064206C00283BD0880604D58B
:10335000900602D5200000F01EF92068406980091F
:1033600010F00100216C090701D4002825D02000AD
:1033700000F0ADF82068406940061AD52068406921
:1033800030F0400021684861A06B00280DD00FF29A
:103390007510A16B4863A06BFFF70FF8002811D0E0
:1033A000A06BA16B496B88470CE0200000F077FA16
:1033B00008E0200000F073FA04E0200000F06FFA4B
:1033C0000020206482E0206B01286FD1C8066DD5F3
:1033D000D0066BD50020009020680068009020681F
:1033E00040680090009820684069400638D5A06B7E
:1033F00000684168080080B2002830D00800A28D23
:1034000080B290422BD2E185A06B806920281FD02A
:103410002068C06830F480702168C8602068406906
:1034200040084000216848612068406930F0400051
:1034300021684861202084F83E0000202063206835
:10344000C06830F010002168C860A06BFEF78CFFE8
:10345000A18DE08D091A89B2200000F021FA35E033
:10346000A08DE18D411AE08D00281ED0080080B2A9
:1034700000281AD02068C06830F490702268D060AC
:10348000206840694008400022685061202084F88C
:103490003E00002020632068C06830F010002268E1
:1034A000D06089B2200000F0FBF90FE0080605D5D6
:1034B000100603D5200000F02FF807E0480605D5D8
:1034C000500603D5200000F058F8FFE731BD016831
:1034D000C96831F490710268D1600168496949088E
:1034E000490002685161016B012905D10168C96871
:1034F00031F010010268D160202180F83E100021D7
:103500000163704780B5406A0021C1850021C184F4
:1035100000F0C5F901BD000090F83D1021292AD125
:103520008168B1F5805F0CD10169002909D1016A78
:103530000988C905C90D02685160016A891C0162C8
:1035400005E0016A4A1C0262097802685160C18C78
:10355000491EC18489B200290BD10168C96831F0C4
:1035600080010268D1600168C96851F040010068BB
:10357000C160002000E00220704780B50168C96882
:1035800031F040010268D160202180F83D1000F048
:1035900088F9002002BD80B590F83E10222966D13E
:1035A0008168B1F5805F0DD1016900290AD1002140
:1035B000816A02685268D205D20D0A80816A891C2C
:1035C000816217E0826A00218168B1F5805F05D0D1
:1035D0008168002906D10169002903D10168496881
:1035E000117004E00168496811F07F011170816A6F
:1035F000491C8162C18D491EC18589B2002934D11F
:103600000168C96831F020010268D1600168C968A9
:1036100031F480710268D160016849694908490044
:1036200002685161202180F83E10016B012918D1F8
:10363000002101630168C96831F010010268D1609E
:1036400001680968C90608D5002100910168096868
:1036500000910168496800910099818D00F020F97E
:1036600001E000F01FF9002002E0002000E002204D
:1036700002BDF8B5040060687049884204D340F682
:103680004A616D48FDF768FBE068002808D0E068F3
:10369000B0F5005F04D040F64B616748FDF75CFB76
:1036A000206900280CD02069B0F5806F08D020690F
:1036B000B0F5C06F04D040F64C615F48FDF74CFB9D
:1036C00060694FF6F371084202D16069002804D1A5
:1036D00040F64D615848FDF73FFB2068016931F421
:1036E0004051E068014320680161A16820690143FD
:1036F00060690143E06901432068C26850480240A4
:1037000011432068C1602068416931F44071A069AB
:1037100001432068416120684649884202D1FDF793
:1037200001FA01E0FDF7F3F9E169B1F5004F40D18D
:103730006421192202FB00F365686D00B3FBF5F309
:103740006425B3FBF5F302FB00F566687600B5FB74
:10375000F6F502FB00F667687F00B6FBF7F6642714
:10376000B6FBF7F601FB1655ED0032356426B5FBC6
:10377000F6F56D0015F4F87515EB031502FB00F373
:1037800066687600B3FBF6F3504362685200B0FB04
:10379000F2F06422B0FBF2F001FB1031C8003230CD
:1037A0006421B0FBF1F010F0070045192068856036
:1037B0003EE06421192202FB00F36568AD00B3FB13
:1037C000F5F36425B3FBF5F302FB00F56668B6007C
:1037D000B5FBF6F502FB00F66768BF00B6FBF7F62F
:1037E0006427B6FBF7F601FB16552D01323564262A
:1037F000B5FBF6F515F0F00515EB031502FB00F32C
:103800006668B600B3FBF6F3504362689200B0FB03
:10381000F2F06422B0FBF2F001FB1031080132300B
:103820006421B0FBF1F010F00F00451920688560AD
:10383000F1BD0000003801404441000801093D008D
:10384000F369FFFF38B50400FDF7A4FA050014F191
:10385000010F02D0044800680419FDF79BFA401BD1
:10386000A042FAD331BD00BF0400002000B500BF64
:10387000130096469446103928BFA0E80C50FAD899
:103880005FEA417C28BF0CC048BF40F8042BC90741
:1038900028BF20F8022B48BF00F8012B00BD70475D
:1038A00070477047704700000000000000000000F3
:1038B00000000000000000000000000000100010E8
:1038C00000100010001000100000001000000000A8
:1038D0000028002800280000000000000000000070
:1038E0000000000000240024007C00240048007C2C
:1038F0000048004800000000003800540050003824
:10390000001400540054003800100000002000543F
:103910000058003000280054001400080000000087
:10392000001000280028001000340048004800342F
:103930000000000000100010001000000000000057
:10394000000000000000000000080010002000201F
:10395000002000200020002000100008002000109F
:1039600000080008000800080008000800100020F7
:1039700000100038001000280000000000000000C7
:10398000000000000000000000100010007C00108B
:103990000010000000000000000000000000000017
:1039A00000000000000000100010001000000000E7
:1039B00000000000000000380000000000000000CF
:1039C00000000000000000000000000000000010E7
:1039D0000000000000080008001000100010001097
:1039E0000020002000000000003800440044005483
:1039F0000044004400440038000000000010003083
:103A00000050001000100010001000100000000016
:103A10000038004400440004000800100020007C2E
:103A200000000000003800440004001800040004F6
:103A3000004400380000000000080018002800289A
:103A40000048007C0008000800000000007C0040E6
:103A5000004000780004000400440038000000002A
:103A6000003800440040007800440044004400381E
:103A700000000000007C000400080010001000207E
:103A800000200020000000000038004400440038FE
:103A900000440044004400380000000000380044A6
:103AA00000440044003C00040044003800000000D2
:103AB00000000000001000000000000000000010E6
:103AC00000000000000000000000001000000000E6
:103AD000000000100010001000000000000C00307A
:103AE00000400030000C000000000000000000005A
:103AF0000000007C0000007C0000000000000000CE
:103B000000000000006000180004001800600000C1
:103B100000000000003800440004000800100010FD
:103B2000000000100000000000380044004C005469
:103B3000005C004000400038000000000010002839
:103B4000002800280028007C0044004400000000F9
:103B500000780044004400780044004400440078A9
:103B600000000000003800440040004000400040D9
:103B70000044003800000000007000480044004489
:103B8000004400440048007000000000007C004039
:103B90000040007C004000400040007C000000002D
:103BA000007C0040004000780040004000400040A1
:103BB000000000000038004400400040005C004469
:103BC0000044003800000000004400440044007C31
:103BD000004400440044004400000000003800108D
:103BE000001000100010001000100038000000004D
:103BF0000004000400040004000400040044003831
:103C000000000000004400480050006000500048E0
:103C10000048004400000000004000400040004018
:103C2000004000400040007C000000000044006CA8
:103C3000006C0054004400440044004400000000B4
:103C400000440064006400540054004C004C0044E4
:103C500000000000003800440044004400440044D8
:103C60000044003800000000007800440044004494
:103C70000078004000400040000000000038004490
:103C80000044004400440044005400380004000094
:103C90000078004400440044007800480048004494
:103CA000000000000038004400400030000800041C
:103CB0000044003800000000007C001000100010DC
:103CC000001000100010001000000000004400442C
:103CD0000044004400440044004400380000000058
:103CE0000044004400440028002800280010001070
:103CF0000000000000440044005400540054006CD4
:103D000000280028000000000044002800280010BF
:103D10000010002800280044000000000044004477
:103D20000028002800100010001000100000000003
:103D3000007C000400080010001000200040007CFF
:103D4000000000000018001000100010001000100B
:103D500000100010001000180020002000100010BB
:103D600000100010000800080000000000300010E3
:103D700000100010001000100010001000100030A3
:103D8000001000280028004400000000000000008F
:103D90000000000000000000000000000000000023
:103DA00000000000000000FE0020001000000000E5
:103DB0000000000000000000000000000000000003
:103DC00000380044003C0044004C00340000000077
:103DD0000040004000580064004400440064005863
:103DE00000000000000000000038004400400040D7
:103DF0000044003800000000000400040034004CBF
:103E000000440044004C00340000000000000000AA
:103E100000380044007C00400044003800000000EE
:103E2000000C0010007C00100010001000100010AA
:103E300000000000000000000034004C004400447A
:103E4000004C00340004007800400040005800643A
:103E50000044004400440044000000000010000042
:103E60000070001000100010001000100000000092
:103E70000010000000700010001000100010001072
:103E8000001000E00040004000480050006000507A
:103E900000480044000000000070001000100010F6
:103EA00000100010001000100000000000000000D2
:103EB00000780054005400540054005400000000E6
:103EC0000000000000580064004400440044004426
:103ED00000000000000000000038004400440044DE
:103EE000004400380000000000000000005800649A
:103EF00000440044006400580040004000000000FE
:103F00000034004C00440044004C00340004000421
:103F100000000000005800640040004000400040E5
:103F200000000000000000000038004400300008DD
:103F3000004400380000000000200020007800202D
:103F400000200020002000180000000000000000F9
:103F50000044004400440044004C003400000000D1
:103F60000000000000440044002800280028001041
:103F70000000000000000000005400540054006CD9
:103F80000028002800000000000000000044002875
:103F90000010001000280044000000000000000095
:103FA00000440044002800280010001000100060A9
:103FB00000000000007C0008001000200040007C91
:103FC0000000000000180010001000100020002069
:103FD0000010001000100018001000100010001059
:103FE0000010001000100010001000100030001031
:103FF0000010001000080008001000100010003031
:104000000000000000000074004C000000000000F0
:1040100000000000433A5C68772D6D6973635C7043
:10402000686F6E6576325C447269766572735C5354
:10403000544D33324C3178785F48414C5F4472695B
:104040007665725C5372635C73746D33326C317875
:10405000785F68616C5F636F727465782E630000CF
:10406000433A5C68772D6D6973635C70686F6E6549
:1040700076325C447269766572735C53544D3332A8
:104080004C3178785F48414C5F4472697665725C68
:104090005372635C73746D33326C3178785F68612E
:1040A0006C5F6770696F2E6300000000433A5C68C4
:1040B000772D6D6973635C70686F6E6576325C44F2
:1040C0007269766572735C53544D33324C31787833
:1040D0005F48414C5F4472697665725C5372635C01
:1040E00073746D33326C3178785F68616C5F7263C2
:1040F000635F65782E630000433A5C68772D6D69D5
:1041000073635C70686F6E6576325C447269766565
:1041100072735C53544D33324C3178785F48414C64
:104120005F4472697665725C5372635C73746D335D
:10413000326C3178785F68616C5F7274635F657848
:104140002E630000433A5C68772D6D6973635C7081
:10415000686F6E6576325C447269766572735C5323
:10416000544D33324C3178785F48414C5F4472692A
:104170007665725C5372635C73746D33326C317844
:10418000785F68616C5F756172742E630000000077
:10419000433A5C68772D6D6973635C70686F6E6518
:1041A00076325C447269766572735C53544D333277
:1041B0004C3178785F48414C5F4472697665725C37
:1041C0005372635C73746D33326C3178785F6861FD
:1041D0006C5F6461632E6300433A5C68772D6D69A0
:1041E00073635C70686F6E6576325C447269766585
:1041F00072735C53544D33324C3178785F48414C84
:104200005F4472697665725C5372635C73746D337C
:10421000326C3178785F68616C5F646D612E630029
:10422000433A5C68772D6D6973635C70686F6E6587
:1042300076325C447269766572735C53544D3332E6
:104240004C3178785F48414C5F4472697665725CA6
:104250005372635C73746D33326C3178785F68616C
:104260006C5F7263632E6300433A5C68772D6D69FF
:1042700073635C70686F6E6576325C4472697665F4
:1042800072735C53544D33324C3178785F48414CF3
:104290005F4472697665725C5372635C73746D33EC
:1042A000326C3178785F68616C5F7274632E630082
:1042B000433A5C68772D6D6973635C70686F6E65F7
:1042C00076325C447269766572735C53544D333256
:1042D0004C3178785F48414C5F4472697665725C16
:1042E0005372635C73746D33326C3178785F6861DC
:1042F0006C5F7370692E6300FEE7FEE7FEE7FEE782
:10430000FEE770477047704780B500F017F801BDB1
:1043100080B50748FEF7CCFF01BD80B50548FEF724
:1043200078F801BD80B50448FEF773F801BD0000C0
:10433000EC02002064020020A802002003490A6861
:104340000348006882180A60704700BF64030020B9
:104350000400002030B450F8041B79B102684368AF
:1043600002440830DC0744BFA9F10104E31852F805
:10437000045B43F8045B091FF9D1ECE730BC7047DC
:1043800010B5074979441831064C7C44163404E0D2
:104390000A68081D114488470146A142F8D110BDA2
:1043A0000800000028000000B3C9FFFF6003000000
:1043B0000C000020000000009DFFFFFF0C0000002B
:1043C0008C000000000000200000000000F00DF84C
:1043D000002801D0FFF7D4FFAFF300800020AFF337
:1043E0000080FCF70DFC00F002F80120704700F09F
:1043F00001B800000746384600F002F8FBE700006D
:1044000080B5AFF30080024A11001820ABBEFBE775
:10441000260002000000000000000000010203046A
:104420000607080901488047014800473945000848
:1044300041440008030406080C1018203000000056
:10444000AFF30080AFF30080FFF7C0FF1000000063
:104450000100000068FF1F000000000000000000D5
:1044600042313D310000000042313D30000000008B
:1044700041313D310000000041313D30000000007D
:104480000000000000000000000000000102030422
:1044900000000000FFF7FEBFFFF7FEBFFFF7FEBF03
:1044A000FFF7FEBFFFF7FEBFFFF7FEBFFFF7FEBF40
:1044B000FFF7FEBFFFF7FEBFFFF7FEBFFFF7FEBF30
:1044C000FFF7FEBFFFF7FEBFFFF7FEBFFFF7FEBF20
:1044D000FFF7FEBFFFF7FEBFFFF7FEBFFFF7FEBF10
:1044E000FFF7FEBFFFF7FEBFFFF7FEBFFFF7FEBF00
:1044F000FFF7FEBFFFF7FEBFFFF7FEBFFFF7FEBFF0
:10450000FFF7FEBFFFF7FEBFFFF7FEBFFFF7FEBFDF
:10451000FFF7FEBFFFF7FEBFFFF7FEBFFFF7FEBFCF
:10452000FFF7FEBFFFF7FEBFFFF7FEBFFFF7FEBFBF
:0A453000FFF7FEBFFFF7FEBF704764
:04000005080044416A
:00000001FF
